{
  "contractName": "BorrowLowb",
  "abi": [
    {
      "inputs": [
        {
          "internalType": "address",
          "name": "lpAddress_",
          "type": "address"
        },
        {
          "internalType": "address",
          "name": "routerAddress_",
          "type": "address"
        }
      ],
      "stateMutability": "nonpayable",
      "type": "constructor"
    },
    {
      "anonymous": false,
      "inputs": [
        {
          "indexed": true,
          "internalType": "address",
          "name": "user",
          "type": "address"
        },
        {
          "indexed": false,
          "internalType": "uint256",
          "name": "amount",
          "type": "uint256"
        }
      ],
      "name": "AddUsdt",
      "type": "event"
    },
    {
      "anonymous": false,
      "inputs": [
        {
          "indexed": true,
          "internalType": "address",
          "name": "user",
          "type": "address"
        },
        {
          "indexed": false,
          "internalType": "uint256",
          "name": "usdtAmount",
          "type": "uint256"
        },
        {
          "indexed": false,
          "internalType": "uint256",
          "name": "lowbAmount",
          "type": "uint256"
        },
        {
          "indexed": false,
          "internalType": "uint256",
          "name": "commission",
          "type": "uint256"
        }
      ],
      "name": "BuyBackLowb",
      "type": "event"
    },
    {
      "anonymous": false,
      "inputs": [
        {
          "indexed": true,
          "internalType": "address",
          "name": "user",
          "type": "address"
        },
        {
          "indexed": false,
          "internalType": "uint256",
          "name": "amount",
          "type": "uint256"
        }
      ],
      "name": "Deposit",
      "type": "event"
    },
    {
      "anonymous": false,
      "inputs": [
        {
          "indexed": true,
          "internalType": "address",
          "name": "user",
          "type": "address"
        },
        {
          "indexed": false,
          "internalType": "uint256",
          "name": "lowbAmount",
          "type": "uint256"
        },
        {
          "indexed": false,
          "internalType": "uint256",
          "name": "usdtAmount",
          "type": "uint256"
        }
      ],
      "name": "LowbBorrowed",
      "type": "event"
    },
    {
      "anonymous": false,
      "inputs": [
        {
          "indexed": true,
          "internalType": "address",
          "name": "user",
          "type": "address"
        },
        {
          "indexed": false,
          "internalType": "uint256",
          "name": "amount",
          "type": "uint256"
        }
      ],
      "name": "MoreLowbBorrowed",
      "type": "event"
    },
    {
      "anonymous": false,
      "inputs": [
        {
          "indexed": true,
          "internalType": "address",
          "name": "user",
          "type": "address"
        },
        {
          "indexed": false,
          "internalType": "uint256",
          "name": "lowbAmount",
          "type": "uint256"
        },
        {
          "indexed": false,
          "internalType": "uint256",
          "name": "usdtAmount",
          "type": "uint256"
        },
        {
          "indexed": false,
          "internalType": "uint256",
          "name": "interestAmount",
          "type": "uint256"
        }
      ],
      "name": "ReturnAllLowb",
      "type": "event"
    },
    {
      "anonymous": false,
      "inputs": [
        {
          "indexed": true,
          "internalType": "address",
          "name": "user",
          "type": "address"
        },
        {
          "indexed": true,
          "internalType": "address",
          "name": "borrower",
          "type": "address"
        },
        {
          "indexed": false,
          "internalType": "uint256",
          "name": "usdtAmount",
          "type": "uint256"
        },
        {
          "indexed": false,
          "internalType": "uint256",
          "name": "risk",
          "type": "uint256"
        }
      ],
      "name": "UsdtLocked",
      "type": "event"
    },
    {
      "anonymous": false,
      "inputs": [
        {
          "indexed": true,
          "internalType": "address",
          "name": "user",
          "type": "address"
        },
        {
          "indexed": false,
          "internalType": "uint256",
          "name": "amount",
          "type": "uint256"
        }
      ],
      "name": "Withdraw",
      "type": "event"
    },
    {
      "inputs": [],
      "name": "INVERSE_BASIS_POINT",
      "outputs": [
        {
          "internalType": "uint256",
          "name": "",
          "type": "uint256"
        }
      ],
      "stateMutability": "view",
      "type": "function",
      "constant": true
    },
    {
      "inputs": [],
      "name": "MAXIMUM_FEE",
      "outputs": [
        {
          "internalType": "uint256",
          "name": "",
          "type": "uint256"
        }
      ],
      "stateMutability": "view",
      "type": "function",
      "constant": true
    },
    {
      "inputs": [
        {
          "internalType": "address",
          "name": "",
          "type": "address"
        }
      ],
      "name": "balanceOf",
      "outputs": [
        {
          "internalType": "uint256",
          "name": "",
          "type": "uint256"
        }
      ],
      "stateMutability": "view",
      "type": "function",
      "constant": true
    },
    {
      "inputs": [],
      "name": "commission",
      "outputs": [
        {
          "internalType": "uint256",
          "name": "",
          "type": "uint256"
        }
      ],
      "stateMutability": "view",
      "type": "function",
      "constant": true
    },
    {
      "inputs": [],
      "name": "feePerBlock",
      "outputs": [
        {
          "internalType": "uint256",
          "name": "",
          "type": "uint256"
        }
      ],
      "stateMutability": "view",
      "type": "function",
      "constant": true
    },
    {
      "inputs": [],
      "name": "lowbAddress",
      "outputs": [
        {
          "internalType": "address",
          "name": "",
          "type": "address"
        }
      ],
      "stateMutability": "view",
      "type": "function",
      "constant": true
    },
    {
      "inputs": [],
      "name": "lpAddress",
      "outputs": [
        {
          "internalType": "address",
          "name": "",
          "type": "address"
        }
      ],
      "stateMutability": "view",
      "type": "function",
      "constant": true
    },
    {
      "inputs": [],
      "name": "owner",
      "outputs": [
        {
          "internalType": "address",
          "name": "",
          "type": "address"
        }
      ],
      "stateMutability": "view",
      "type": "function",
      "constant": true
    },
    {
      "inputs": [
        {
          "internalType": "address",
          "name": "",
          "type": "address"
        }
      ],
      "name": "recordOf",
      "outputs": [
        {
          "internalType": "address",
          "name": "prevUser",
          "type": "address"
        },
        {
          "internalType": "address",
          "name": "nextUser",
          "type": "address"
        },
        {
          "internalType": "uint256",
          "name": "lowbAmount",
          "type": "uint256"
        },
        {
          "internalType": "uint256",
          "name": "usdtAmount",
          "type": "uint256"
        },
        {
          "internalType": "uint256",
          "name": "startBlock",
          "type": "uint256"
        },
        {
          "internalType": "uint256",
          "name": "feePerBlock",
          "type": "uint256"
        }
      ],
      "stateMutability": "view",
      "type": "function",
      "constant": true
    },
    {
      "inputs": [],
      "name": "routerAddress",
      "outputs": [
        {
          "internalType": "address",
          "name": "",
          "type": "address"
        }
      ],
      "stateMutability": "view",
      "type": "function",
      "constant": true
    },
    {
      "inputs": [],
      "name": "usdtAddress",
      "outputs": [
        {
          "internalType": "address",
          "name": "",
          "type": "address"
        }
      ],
      "stateMutability": "view",
      "type": "function",
      "constant": true
    },
    {
      "inputs": [
        {
          "internalType": "uint256",
          "name": "",
          "type": "uint256"
        }
      ],
      "name": "usdtToLowbPath",
      "outputs": [
        {
          "internalType": "address",
          "name": "",
          "type": "address"
        }
      ],
      "stateMutability": "view",
      "type": "function",
      "constant": true
    },
    {
      "inputs": [
        {
          "internalType": "address",
          "name": "user",
          "type": "address"
        }
      ],
      "name": "getInterestOf",
      "outputs": [
        {
          "internalType": "uint256",
          "name": "",
          "type": "uint256"
        }
      ],
      "stateMutability": "view",
      "type": "function",
      "constant": true
    },
    {
      "inputs": [
        {
          "internalType": "address",
          "name": "user",
          "type": "address"
        }
      ],
      "name": "getRiskNumberOf",
      "outputs": [
        {
          "internalType": "uint256",
          "name": "",
          "type": "uint256"
        }
      ],
      "stateMutability": "view",
      "type": "function",
      "constant": true
    },
    {
      "inputs": [
        {
          "internalType": "uint256",
          "name": "fee_",
          "type": "uint256"
        }
      ],
      "name": "setFee",
      "outputs": [],
      "stateMutability": "nonpayable",
      "type": "function"
    },
    {
      "inputs": [
        {
          "internalType": "uint256",
          "name": "amount",
          "type": "uint256"
        }
      ],
      "name": "deposit",
      "outputs": [],
      "stateMutability": "nonpayable",
      "type": "function"
    },
    {
      "inputs": [
        {
          "internalType": "uint256",
          "name": "amount",
          "type": "uint256"
        }
      ],
      "name": "withdraw",
      "outputs": [],
      "stateMutability": "nonpayable",
      "type": "function"
    },
    {
      "inputs": [
        {
          "internalType": "uint256",
          "name": "lowbAmount",
          "type": "uint256"
        },
        {
          "internalType": "uint256",
          "name": "usdtAmount",
          "type": "uint256"
        }
      ],
      "name": "borrowLowb",
      "outputs": [],
      "stateMutability": "nonpayable",
      "type": "function"
    },
    {
      "inputs": [
        {
          "internalType": "uint256",
          "name": "amount",
          "type": "uint256"
        }
      ],
      "name": "addMoreUsdt",
      "outputs": [],
      "stateMutability": "nonpayable",
      "type": "function"
    },
    {
      "inputs": [
        {
          "internalType": "uint256",
          "name": "amount",
          "type": "uint256"
        }
      ],
      "name": "borrowMoreLowb",
      "outputs": [],
      "stateMutability": "nonpayable",
      "type": "function"
    },
    {
      "inputs": [],
      "name": "returnAllLowb",
      "outputs": [],
      "stateMutability": "nonpayable",
      "type": "function"
    },
    {
      "inputs": [
        {
          "internalType": "address",
          "name": "user",
          "type": "address"
        }
      ],
      "name": "forceReturnAllLowb",
      "outputs": [],
      "stateMutability": "nonpayable",
      "type": "function"
    },
    {
      "inputs": [
        {
          "internalType": "address",
          "name": "user",
          "type": "address"
        }
      ],
      "name": "lockUsdt",
      "outputs": [],
      "stateMutability": "nonpayable",
      "type": "function"
    },
    {
      "inputs": [
        {
          "internalType": "uint256",
          "name": "amount",
          "type": "uint256"
        }
      ],
      "name": "buyBackLowb",
      "outputs": [],
      "stateMutability": "nonpayable",
      "type": "function"
    },
    {
      "inputs": [
        {
          "internalType": "address",
          "name": "user",
          "type": "address"
        },
        {
          "internalType": "uint256",
          "name": "n",
          "type": "uint256"
        }
      ],
      "name": "getRecords",
      "outputs": [
        {
          "components": [
            {
              "internalType": "address",
              "name": "prevUser",
              "type": "address"
            },
            {
              "internalType": "address",
              "name": "nextUser",
              "type": "address"
            },
            {
              "internalType": "uint256",
              "name": "lowbAmount",
              "type": "uint256"
            },
            {
              "internalType": "uint256",
              "name": "usdtAmount",
              "type": "uint256"
            },
            {
              "internalType": "uint256",
              "name": "startBlock",
              "type": "uint256"
            },
            {
              "internalType": "uint256",
              "name": "feePerBlock",
              "type": "uint256"
            }
          ],
          "internalType": "struct BorrowLowb.Record[]",
          "name": "",
          "type": "tuple[]"
        }
      ],
      "stateMutability": "view",
      "type": "function",
      "constant": true
    }
  ],
  "bytecode": "0x6080604052671bc16d674ec800006000553480156200001d57600080fd5b50604051620046d3380380620046d38339818101604052810190620000439190620003e5565b81600560006101000a81548173ffffffffffffffffffffffffffffffffffffffff021916908373ffffffffffffffffffffffffffffffffffffffff16021790555080600460006101000a81548173ffffffffffffffffffffffffffffffffffffffff021916908373ffffffffffffffffffffffffffffffffffffffff16021790555033600360006101000a81548173ffffffffffffffffffffffffffffffffffffffff021916908373ffffffffffffffffffffffffffffffffffffffff16021790555060008290508073ffffffffffffffffffffffffffffffffffffffff16630dfe16816040518163ffffffff1660e01b815260040160206040518083038186803b1580156200015257600080fd5b505afa15801562000167573d6000803e3d6000fd5b505050506040513d601f19601f820116820180604052508101906200018d9190620003b9565b600660006101000a81548173ffffffffffffffffffffffffffffffffffffffff021916908373ffffffffffffffffffffffffffffffffffffffff1602179055508073ffffffffffffffffffffffffffffffffffffffff1663d21220a76040518163ffffffff1660e01b815260040160206040518083038186803b1580156200021457600080fd5b505afa15801562000229573d6000803e3d6000fd5b505050506040513d601f19601f820116820180604052508101906200024f9190620003b9565b600760006101000a81548173ffffffffffffffffffffffffffffffffffffffff021916908373ffffffffffffffffffffffffffffffffffffffff1602179055506008600660009054906101000a900473ffffffffffffffffffffffffffffffffffffffff169080600181540180825580915050600190039060005260206000200160009091909190916101000a81548173ffffffffffffffffffffffffffffffffffffffff021916908373ffffffffffffffffffffffffffffffffffffffff1602179055506008600760009054906101000a900473ffffffffffffffffffffffffffffffffffffffff169080600181540180825580915050600190039060005260206000200160009091909190916101000a81548173ffffffffffffffffffffffffffffffffffffffff021916908373ffffffffffffffffffffffffffffffffffffffff16021790555050505062000474565b600081519050620003b3816200045a565b92915050565b600060208284031215620003cc57600080fd5b6000620003dc84828501620003a2565b91505092915050565b60008060408385031215620003f957600080fd5b60006200040985828601620003a2565b92505060206200041c85828601620003a2565b9150509250929050565b600062000433826200043a565b9050919050565b600073ffffffffffffffffffffffffffffffffffffffff82169050919050565b620004658162000426565b81146200047157600080fd5b50565b61424f80620004846000396000f3fe608060405234801561001057600080fd5b50600436106101735760003560e01c80639ab4a445116100de578063cae6047f11610097578063e399430a11610071578063e399430a1461043f578063eccb6f9e1461045b578063f3e99b2214610479578063f87d965b1461049557610173565b8063cae6047f146103e7578063e07d020614610405578063e14891911461042157610173565b80639ab4a4451461030e5780639b4dc8cc1461032c578063a085e2d81461034a578063b6b55f2514610366578063bab971bf14610382578063c06ac6a3146103b257610173565b80634f66a322116101305780634f66a3221461024c5780635b8e24481461026a57806369fe0e2d1461027457806370a082311461029057806372ba06f0146102c05780638da5cb5b146102f057610173565b806312bbc4e8146101785780631ccbacc0146101945780632e1a7d4d146101c45780633268cc56146101e05780633ef3f5cc146101fe5780634415f47a1461022e575b600080fd5b610192600480360381019061018d9190613428565b6104b1565b005b6101ae60048036038101906101a9919061330a565b61076b565b6040516101bb9190613d35565b60405180910390f35b6101de60048036038101906101d99190613428565b61086c565b005b6101e8610aa2565b6040516101f59190613a37565b60405180910390f35b61021860048036038101906102139190613428565b610ac8565b6040516102259190613a37565b60405180910390f35b610236610b07565b6040516102439190613d35565b60405180910390f35b610254610b0d565b6040516102619190613d35565b60405180910390f35b610272610b14565b005b61028e60048036038101906102899190613428565b610ba4565b005b6102aa60048036038101906102a5919061330a565b610c83565b6040516102b79190613d35565b60405180910390f35b6102da60048036038101906102d59190613333565b610c9b565b6040516102e79190613b13565b60405180910390f35b6102f8611051565b6040516103059190613a37565b60405180910390f35b610316611077565b6040516103239190613a37565b60405180910390f35b61033461109d565b6040516103419190613a37565b60405180910390f35b610364600480360381019061035f9190613428565b6110c3565b005b610380600480360381019061037b9190613428565b6112a6565b005b61039c6004803603810190610397919061330a565b61149f565b6040516103a99190613d35565b60405180910390f35b6103cc60048036038101906103c7919061330a565b611650565b6040516103de96959493929190613a89565b60405180910390f35b6103ef6116cc565b6040516103fc9190613d35565b60405180910390f35b61041f600480360381019061041a919061330a565b6116d5565b005b610429611748565b6040516104369190613d35565b60405180910390f35b6104596004803603810190610454919061330a565b61174e565b005b610463611c85565b6040516104709190613a37565b60405180910390f35b610493600480360381019061048e9190613428565b611cab565b005b6104af60048036038101906104aa9190613451565b6120c2565b005b600081116104f4576040517f08c379a00000000000000000000000000000000000000000000000000000000081526004016104eb90613cf5565b60405180910390fd5b60006104ff3361076b565b905061050a33612554565b80826105169190613eef565b600a60003373ffffffffffffffffffffffffffffffffffffffff1673ffffffffffffffffffffffffffffffffffffffff16815260200190815260200160002060020160008282546105679190613eef565b925050819055506064605a64174876e8006105829190613f76565b61058c9190613f45565b6105953361149f565b106105d5576040517f08c379a00000000000000000000000000000000000000000000000000000000081526004016105cc90613c35565b60405180910390fd5b6105de33612729565b6000600760009054906101000a900473ffffffffffffffffffffffffffffffffffffffff1690508073ffffffffffffffffffffffffffffffffffffffff1663a9059cbb33856040518363ffffffff1660e01b8152600401610640929190613aea565b602060405180830381600087803b15801561065a57600080fd5b505af115801561066e573d6000803e3d6000fd5b505050506040513d601f19601f8201168201806040525081019061069291906133b0565b6106d1576040517f08c379a00000000000000000000000000000000000000000000000000000000081526004016106c890613b35565b60405180910390fd5b43600a60003373ffffffffffffffffffffffffffffffffffffffff1673ffffffffffffffffffffffffffffffffffffffff168152602001908152602001600020600401819055503373ffffffffffffffffffffffffffffffffffffffff167f592b472c246e7e43fd7c7ebd0f82da9d79823cf2788cb0c399dad92f5a0e7e798460405161075e9190613d35565b60405180910390a2505050565b600064174876e800600a60008473ffffffffffffffffffffffffffffffffffffffff1673ffffffffffffffffffffffffffffffffffffffff16815260200190815260200160002060040154436107c19190613fd0565b600a60008573ffffffffffffffffffffffffffffffffffffffff1673ffffffffffffffffffffffffffffffffffffffff16815260200190815260200160002060050154600a60008673ffffffffffffffffffffffffffffffffffffffff1673ffffffffffffffffffffffffffffffffffffffff168152602001908152602001600020600201546108519190613f76565b61085b9190613f76565b6108659190613f45565b9050919050565b600960003373ffffffffffffffffffffffffffffffffffffffff1673ffffffffffffffffffffffffffffffffffffffff168152602001908152602001600020548111156108ee576040517f08c379a00000000000000000000000000000000000000000000000000000000081526004016108e590613c15565b60405180910390fd5b80600960003373ffffffffffffffffffffffffffffffffffffffff1673ffffffffffffffffffffffffffffffffffffffff168152602001908152602001600020600082825461093d9190613fd0565b925050819055506000600760009054906101000a900473ffffffffffffffffffffffffffffffffffffffff1690508073ffffffffffffffffffffffffffffffffffffffff1663a9059cbb33846040518363ffffffff1660e01b81526004016109a6929190613aea565b602060405180830381600087803b1580156109c057600080fd5b505af11580156109d4573d6000803e3d6000fd5b505050506040513d601f19601f820116820180604052508101906109f891906133b0565b610a37576040517f08c379a0000000000000000000000000000000000000000000000000000000008152600401610a2e90613c75565b60405180910390fd5b8160026000828254610a499190613fd0565b925050819055503373ffffffffffffffffffffffffffffffffffffffff167f884edad9ce6fa2440d8a54cc123490eb96d2768479d49ff9c7366125a942436483604051610a969190613d35565b60405180910390a25050565b600460009054906101000a900473ffffffffffffffffffffffffffffffffffffffff1681565b60088181548110610ad857600080fd5b906000526020600020016000915054906101000a900473ffffffffffffffffffffffffffffffffffffffff1681565b60015481565b620186a081565b6000600a60003373ffffffffffffffffffffffffffffffffffffffff1673ffffffffffffffffffffffffffffffffffffffff1681526020019081526020016000206002015411610b99576040517f08c379a0000000000000000000000000000000000000000000000000000000008152600401610b9090613c55565b60405180910390fd5b610ba233612cd4565b565b600360009054906101000a900473ffffffffffffffffffffffffffffffffffffffff1673ffffffffffffffffffffffffffffffffffffffff163373ffffffffffffffffffffffffffffffffffffffff1614610c34576040517f08c379a0000000000000000000000000000000000000000000000000000000008152600401610c2b90613b95565b60405180910390fd5b620186a08110610c79576040517f08c379a0000000000000000000000000000000000000000000000000000000008152600401610c7090613bf5565b60405180910390fd5b8060018190555050565b60096020528060005260406000206000915090505481565b606060008211610ce0576040517f08c379a0000000000000000000000000000000000000000000000000000000008152600401610cd790613c95565b60405180910390fd5b60008267ffffffffffffffff811115610d22577f4e487b7100000000000000000000000000000000000000000000000000000000600052604160045260246000fd5b604051908082528060200260200182016040528015610d5b57816020015b610d48613194565b815260200190600190039081610d405790505b5090506000600a60008673ffffffffffffffffffffffffffffffffffffffff1673ffffffffffffffffffffffffffffffffffffffff1681526020019081526020016000206040518060c00160405290816000820160009054906101000a900473ffffffffffffffffffffffffffffffffffffffff1673ffffffffffffffffffffffffffffffffffffffff1673ffffffffffffffffffffffffffffffffffffffff1681526020016001820160009054906101000a900473ffffffffffffffffffffffffffffffffffffffff1673ffffffffffffffffffffffffffffffffffffffff1673ffffffffffffffffffffffffffffffffffffffff168152602001600282015481526020016003820154815260200160048201548152602001600582015481525050905060005b848110156110455781838281518110610ec5577f4e487b7100000000000000000000000000000000000000000000000000000000600052603260045260246000fd5b6020026020010181905250600073ffffffffffffffffffffffffffffffffffffffff16826020015173ffffffffffffffffffffffffffffffffffffffff161415610f0e57611045565b600a6000836020015173ffffffffffffffffffffffffffffffffffffffff1673ffffffffffffffffffffffffffffffffffffffff1681526020019081526020016000206040518060c00160405290816000820160009054906101000a900473ffffffffffffffffffffffffffffffffffffffff1673ffffffffffffffffffffffffffffffffffffffff1673ffffffffffffffffffffffffffffffffffffffff1681526020016001820160009054906101000a900473ffffffffffffffffffffffffffffffffffffffff1673ffffffffffffffffffffffffffffffffffffffff1673ffffffffffffffffffffffffffffffffffffffff1681526020016002820154815260200160038201548152602001600482015481526020016005820154815250509150808061103d906140b0565b915050610e83565b50819250505092915050565b600360009054906101000a900473ffffffffffffffffffffffffffffffffffffffff1681565b600660009054906101000a900473ffffffffffffffffffffffffffffffffffffffff1681565b600560009054906101000a900473ffffffffffffffffffffffffffffffffffffffff1681565b60008111611106576040517f08c379a00000000000000000000000000000000000000000000000000000000081526004016110fd90613cb5565b60405180910390fd5b6000600660009054906101000a900473ffffffffffffffffffffffffffffffffffffffff1690508073ffffffffffffffffffffffffffffffffffffffff166323b872dd3330856040518463ffffffff1660e01b815260040161116a93929190613a52565b602060405180830381600087803b15801561118457600080fd5b505af1158015611198573d6000803e3d6000fd5b505050506040513d601f19601f820116820180604052508101906111bc91906133b0565b6111fb576040517f08c379a00000000000000000000000000000000000000000000000000000000081526004016111f290613b55565b60405180910390fd5b81600a60003373ffffffffffffffffffffffffffffffffffffffff1673ffffffffffffffffffffffffffffffffffffffff168152602001908152602001600020600301600082825461124d9190613eef565b925050819055503373ffffffffffffffffffffffffffffffffffffffff167ff9f12bf9d9b2c8dafc127be049aa94778a5a104c2ee97ed38f3ba26cb692dc7b8360405161129a9190613d35565b60405180910390a25050565b600081116112e9576040517f08c379a00000000000000000000000000000000000000000000000000000000081526004016112e090613cd5565b60405180910390fd5b6000600760009054906101000a900473ffffffffffffffffffffffffffffffffffffffff1690508073ffffffffffffffffffffffffffffffffffffffff166323b872dd3330856040518463ffffffff1660e01b815260040161134d93929190613a52565b602060405180830381600087803b15801561136757600080fd5b505af115801561137b573d6000803e3d6000fd5b505050506040513d601f19601f8201168201806040525081019061139f91906133b0565b6113de576040517f08c379a00000000000000000000000000000000000000000000000000000000081526004016113d590613c75565b60405180910390fd5b81600960003373ffffffffffffffffffffffffffffffffffffffff1673ffffffffffffffffffffffffffffffffffffffff168152602001908152602001600020600082825461142d9190613eef565b9250508190555081600260008282546114469190613eef565b925050819055503373ffffffffffffffffffffffffffffffffffffffff167fe1fffcc4923d04b559f4d29a8bfc6cda04eb5b0d3c460751c2402c5c5cc9109c836040516114939190613d35565b60405180910390a25050565b6000806114ab8361076b565b600a60008573ffffffffffffffffffffffffffffffffffffffff1673ffffffffffffffffffffffffffffffffffffffff168152602001908152602001600020600201546114f89190613eef565b90506000600a60008573ffffffffffffffffffffffffffffffffffffffff1673ffffffffffffffffffffffffffffffffffffffff1681526020019081526020016000206003015490506000600560009054906101000a900473ffffffffffffffffffffffffffffffffffffffff1690506000808273ffffffffffffffffffffffffffffffffffffffff16630902f1ac6040518163ffffffff1660e01b815260040160606040518083038186803b1580156115b157600080fd5b505afa1580156115c5573d6000803e3d6000fd5b505050506040513d601f19601f820116820180604052508101906115e991906133d9565b5080925081935050508364174876e800826dffffffffffffffffffffffffffff1687856dffffffffffffffffffffffffffff166116269190613f76565b6116309190613f45565b61163a9190613f76565b6116449190613f45565b95505050505050919050565b600a6020528060005260406000206000915090508060000160009054906101000a900473ffffffffffffffffffffffffffffffffffffffff16908060010160009054906101000a900473ffffffffffffffffffffffffffffffffffffffff16908060020154908060030154908060040154908060050154905086565b64174876e80081565b6064605f64174876e8006116e99190613f76565b6116f39190613f45565b6116fc8261149f565b1161173c576040517f08c379a000000000000000000000000000000000000000000000000000000000815260040161173390613d15565b60405180910390fd5b61174581612cd4565b50565b60005481565b600073ffffffffffffffffffffffffffffffffffffffff168173ffffffffffffffffffffffffffffffffffffffff1614156117be576040517f08c379a00000000000000000000000000000000000000000000000000000000081526004016117b590613b75565b60405180910390fd5b6064605f64174876e8006117d29190613f76565b6117dc9190613f45565b6117e58261149f565b11611825576040517f08c379a000000000000000000000000000000000000000000000000000000000815260040161181c90613bd5565b60405180910390fd5b61182e8161076b565b600a60008373ffffffffffffffffffffffffffffffffffffffff1673ffffffffffffffffffffffffffffffffffffffff1681526020019081526020016000206002015461187b9190613eef565b600a60008073ffffffffffffffffffffffffffffffffffffffff1673ffffffffffffffffffffffffffffffffffffffff16815260200190815260200160002060020160008282546118cc9190613eef565b92505081905550600054600a60008373ffffffffffffffffffffffffffffffffffffffff1673ffffffffffffffffffffffffffffffffffffffff168152602001908152602001600020600301546119239190613fd0565b600a60008073ffffffffffffffffffffffffffffffffffffffff1673ffffffffffffffffffffffffffffffffffffffff16815260200190815260200160002060030160008282546119749190613eef565b925050819055508073ffffffffffffffffffffffffffffffffffffffff163373ffffffffffffffffffffffffffffffffffffffff167f60ec112414a52b867835fb23a783e14828852cf264abbc233f1f659f3ffab261600a60008573ffffffffffffffffffffffffffffffffffffffff1673ffffffffffffffffffffffffffffffffffffffff16815260200190815260200160002060030154611a168561149f565b604051611a24929190613d50565b60405180910390a3611a3581612554565b6040518060c00160405280600073ffffffffffffffffffffffffffffffffffffffff168152602001600073ffffffffffffffffffffffffffffffffffffffff1681526020016000815260200160008152602001600081526020016000815250600a60008373ffffffffffffffffffffffffffffffffffffffff1673ffffffffffffffffffffffffffffffffffffffff16815260200190815260200160002060008201518160000160006101000a81548173ffffffffffffffffffffffffffffffffffffffff021916908373ffffffffffffffffffffffffffffffffffffffff16021790555060208201518160010160006101000a81548173ffffffffffffffffffffffffffffffffffffffff021916908373ffffffffffffffffffffffffffffffffffffffff16021790555060408201518160020155606082015181600301556080820151816004015560a082015181600501559050506000600660009054906101000a900473ffffffffffffffffffffffffffffffffffffffff1690508073ffffffffffffffffffffffffffffffffffffffff1663a9059cbb336000546040518363ffffffff1660e01b8152600401611bf0929190613aea565b602060405180830381600087803b158015611c0a57600080fd5b505af1158015611c1e573d6000803e3d6000fd5b505050506040513d601f19601f82011682018060405250810190611c4291906133b0565b611c81576040517f08c379a0000000000000000000000000000000000000000000000000000000008152600401611c7890613b55565b60405180910390fd5b5050565b600760009054906101000a900473ffffffffffffffffffffffffffffffffffffffff1681565b600081118015611cfd5750600a60008073ffffffffffffffffffffffffffffffffffffffff1673ffffffffffffffffffffffffffffffffffffffff168152602001908152602001600020600301548111155b611d3c576040517f08c379a0000000000000000000000000000000000000000000000000000000008152600401611d3390613b75565b60405180910390fd5b6000600a60008073ffffffffffffffffffffffffffffffffffffffff1673ffffffffffffffffffffffffffffffffffffffff16815260200190815260200160002060030154600a60008073ffffffffffffffffffffffffffffffffffffffff1673ffffffffffffffffffffffffffffffffffffffff1681526020019081526020016000206002015483611dcf9190613f76565b611dd99190613f45565b90506000606482611dea9190613f45565b90506000600460009054906101000a900473ffffffffffffffffffffffffffffffffffffffff1690508073ffffffffffffffffffffffffffffffffffffffff166338ed1739858486611e3c9190613eef565b600830606443611e4c9190613eef565b6040518663ffffffff1660e01b8152600401611e6c959493929190613d79565b600060405180830381600087803b158015611e8657600080fd5b505af1158015611e9a573d6000803e3d6000fd5b505050506040513d6000823e3d601f19601f82011682018060405250810190611ec3919061336f565b5083600a60008073ffffffffffffffffffffffffffffffffffffffff1673ffffffffffffffffffffffffffffffffffffffff1681526020019081526020016000206003016000828254611f169190613fd0565b9250508190555082600a60008073ffffffffffffffffffffffffffffffffffffffff1673ffffffffffffffffffffffffffffffffffffffff1681526020019081526020016000206002016000828254611f6f9190613fd0565b925050819055506000600760009054906101000a900473ffffffffffffffffffffffffffffffffffffffff1690508073ffffffffffffffffffffffffffffffffffffffff1663a9059cbb33856040518363ffffffff1660e01b8152600401611fd8929190613aea565b602060405180830381600087803b158015611ff257600080fd5b505af1158015612006573d6000803e3d6000fd5b505050506040513d601f19601f8201168201806040525081019061202a91906133b0565b612069576040517f08c379a000000000000000000000000000000000000000000000000000000000815260040161206090613b35565b60405180910390fd5b3373ffffffffffffffffffffffffffffffffffffffff167f59c9e4aa24096e6b5d8b1aba975245805493e83a83fc9d8fb4cd914c7689957c8686866040516120b393929190613dd3565b60405180910390a25050505050565b60008211612105576040517f08c379a00000000000000000000000000000000000000000000000000000000081526004016120fc90613cf5565b60405180910390fd5b6802b5e3af16b1880000811015612151576040517f08c379a000000000000000000000000000000000000000000000000000000000815260040161214890613bb5565b60405180910390fd5b6040518060c00160405280600073ffffffffffffffffffffffffffffffffffffffff168152602001600073ffffffffffffffffffffffffffffffffffffffff168152602001838152602001828152602001438152602001600154815250600a60003373ffffffffffffffffffffffffffffffffffffffff1673ffffffffffffffffffffffffffffffffffffffff16815260200190815260200160002060008201518160000160006101000a81548173ffffffffffffffffffffffffffffffffffffffff021916908373ffffffffffffffffffffffffffffffffffffffff16021790555060208201518160010160006101000a81548173ffffffffffffffffffffffffffffffffffffffff021916908373ffffffffffffffffffffffffffffffffffffffff16021790555060408201518160020155606082015181600301556080820151816004015560a082015181600501559050506064605a64174876e8006122ba9190613f76565b6122c49190613f45565b6122cd3361149f565b1061230d576040517f08c379a000000000000000000000000000000000000000000000000000000000815260040161230490613c35565b60405180910390fd5b6000600760009054906101000a900473ffffffffffffffffffffffffffffffffffffffff1690506000600660009054906101000a900473ffffffffffffffffffffffffffffffffffffffff1690508073ffffffffffffffffffffffffffffffffffffffff166323b872dd3330866040518463ffffffff1660e01b815260040161239893929190613a52565b602060405180830381600087803b1580156123b257600080fd5b505af11580156123c6573d6000803e3d6000fd5b505050506040513d601f19601f820116820180604052508101906123ea91906133b0565b612429576040517f08c379a000000000000000000000000000000000000000000000000000000000815260040161242090613b55565b60405180910390fd5b8173ffffffffffffffffffffffffffffffffffffffff1663a9059cbb33866040518363ffffffff1660e01b8152600401612464929190613aea565b602060405180830381600087803b15801561247e57600080fd5b505af1158015612492573d6000803e3d6000fd5b505050506040513d601f19601f820116820180604052508101906124b691906133b0565b6124f5576040517f08c379a00000000000000000000000000000000000000000000000000000000081526004016124ec90613b35565b60405180910390fd5b6124fe33612729565b3373ffffffffffffffffffffffffffffffffffffffff167f15c3f3d70c66be29f1cdb5a70b586b44bf739c6d14d6f775755594d89920c6548585604051612546929190613d50565b60405180910390a250505050565b6000600a60008373ffffffffffffffffffffffffffffffffffffffff1673ffffffffffffffffffffffffffffffffffffffff16815260200190815260200160002060000160009054906101000a900473ffffffffffffffffffffffffffffffffffffffff1690506000600a60008473ffffffffffffffffffffffffffffffffffffffff1673ffffffffffffffffffffffffffffffffffffffff16815260200190815260200160002060010160009054906101000a900473ffffffffffffffffffffffffffffffffffffffff16905080600a60008473ffffffffffffffffffffffffffffffffffffffff1673ffffffffffffffffffffffffffffffffffffffff16815260200190815260200160002060010160006101000a81548173ffffffffffffffffffffffffffffffffffffffff021916908373ffffffffffffffffffffffffffffffffffffffff16021790555081600a60008373ffffffffffffffffffffffffffffffffffffffff1673ffffffffffffffffffffffffffffffffffffffff16815260200190815260200160002060000160006101000a81548173ffffffffffffffffffffffffffffffffffffffff021916908373ffffffffffffffffffffffffffffffffffffffff160217905550505050565b6000600a60008373ffffffffffffffffffffffffffffffffffffffff1673ffffffffffffffffffffffffffffffffffffffff16815260200190815260200160002060030154600a60008473ffffffffffffffffffffffffffffffffffffffff1673ffffffffffffffffffffffffffffffffffffffff168152602001908152602001600020600201546127bb9190613f45565b90506000600a60008073ffffffffffffffffffffffffffffffffffffffff1673ffffffffffffffffffffffffffffffffffffffff16815260200190815260200160002060010160009054906101000a900473ffffffffffffffffffffffffffffffffffffffff1690505b600073ffffffffffffffffffffffffffffffffffffffff168173ffffffffffffffffffffffffffffffffffffffff1614612bcc57600a60008273ffffffffffffffffffffffffffffffffffffffff1673ffffffffffffffffffffffffffffffffffffffff16815260200190815260200160002060030154600a60008373ffffffffffffffffffffffffffffffffffffffff1673ffffffffffffffffffffffffffffffffffffffff168152602001908152602001600020600201546128e99190613f45565b8210612b62576000600a60008373ffffffffffffffffffffffffffffffffffffffff1673ffffffffffffffffffffffffffffffffffffffff16815260200190815260200160002060000160009054906101000a900473ffffffffffffffffffffffffffffffffffffffff16905081600a60008473ffffffffffffffffffffffffffffffffffffffff1673ffffffffffffffffffffffffffffffffffffffff16815260200190815260200160002060000160006101000a81548173ffffffffffffffffffffffffffffffffffffffff021916908373ffffffffffffffffffffffffffffffffffffffff16021790555081600a60008673ffffffffffffffffffffffffffffffffffffffff1673ffffffffffffffffffffffffffffffffffffffff16815260200190815260200160002060010160006101000a81548173ffffffffffffffffffffffffffffffffffffffff021916908373ffffffffffffffffffffffffffffffffffffffff16021790555080600a60008673ffffffffffffffffffffffffffffffffffffffff1673ffffffffffffffffffffffffffffffffffffffff16815260200190815260200160002060000160006101000a81548173ffffffffffffffffffffffffffffffffffffffff021916908373ffffffffffffffffffffffffffffffffffffffff16021790555083600a60008373ffffffffffffffffffffffffffffffffffffffff1673ffffffffffffffffffffffffffffffffffffffff16815260200190815260200160002060010160006101000a81548173ffffffffffffffffffffffffffffffffffffffff021916908373ffffffffffffffffffffffffffffffffffffffff160217905550505050612cd1565b600a60008273ffffffffffffffffffffffffffffffffffffffff1673ffffffffffffffffffffffffffffffffffffffff16815260200190815260200160002060010160009054906101000a900473ffffffffffffffffffffffffffffffffffffffff169050612825565b82600a60008373ffffffffffffffffffffffffffffffffffffffff1673ffffffffffffffffffffffffffffffffffffffff16815260200190815260200160002060010160006101000a81548173ffffffffffffffffffffffffffffffffffffffff021916908373ffffffffffffffffffffffffffffffffffffffff16021790555080600a60008573ffffffffffffffffffffffffffffffffffffffff1673ffffffffffffffffffffffffffffffffffffffff16815260200190815260200160002060000160006101000a81548173ffffffffffffffffffffffffffffffffffffffff021916908373ffffffffffffffffffffffffffffffffffffffff16021790555050505b50565b6000600760009054906101000a900473ffffffffffffffffffffffffffffffffffffffff1690506000600660009054906101000a900473ffffffffffffffffffffffffffffffffffffffff1690506000612d2d8461076b565b90508373ffffffffffffffffffffffffffffffffffffffff167fcf0c4ead5a9f029e3b4c5c037d5537ec1d69505cdebe379c5b2259da2068efe5600a60008773ffffffffffffffffffffffffffffffffffffffff1673ffffffffffffffffffffffffffffffffffffffff16815260200190815260200160002060020154600a60008873ffffffffffffffffffffffffffffffffffffffff1673ffffffffffffffffffffffffffffffffffffffff1681526020019081526020016000206003015484604051612dfd93929190613dd3565b60405180910390a28273ffffffffffffffffffffffffffffffffffffffff166323b872dd333084600a60008a73ffffffffffffffffffffffffffffffffffffffff1673ffffffffffffffffffffffffffffffffffffffff16815260200190815260200160002060020154612e719190613eef565b6040518463ffffffff1660e01b8152600401612e8f93929190613a52565b602060405180830381600087803b158015612ea957600080fd5b505af1158015612ebd573d6000803e3d6000fd5b505050506040513d601f19601f82011682018060405250810190612ee191906133b0565b612f20576040517f08c379a0000000000000000000000000000000000000000000000000000000008152600401612f1790613b35565b60405180910390fd5b8173ffffffffffffffffffffffffffffffffffffffff1663a9059cbb33600a60008873ffffffffffffffffffffffffffffffffffffffff1673ffffffffffffffffffffffffffffffffffffffff168152602001908152602001600020600301546040518363ffffffff1660e01b8152600401612f9d929190613aea565b602060405180830381600087803b158015612fb757600080fd5b505af1158015612fcb573d6000803e3d6000fd5b505050506040513d601f19601f82011682018060405250810190612fef91906133b0565b61302e576040517f08c379a000000000000000000000000000000000000000000000000000000000815260040161302590613b55565b60405180910390fd5b61303784612554565b6040518060c00160405280600073ffffffffffffffffffffffffffffffffffffffff168152602001600073ffffffffffffffffffffffffffffffffffffffff1681526020016000815260200160008152602001600081526020016000815250600a60008673ffffffffffffffffffffffffffffffffffffffff1673ffffffffffffffffffffffffffffffffffffffff16815260200190815260200160002060008201518160000160006101000a81548173ffffffffffffffffffffffffffffffffffffffff021916908373ffffffffffffffffffffffffffffffffffffffff16021790555060208201518160010160006101000a81548173ffffffffffffffffffffffffffffffffffffffff021916908373ffffffffffffffffffffffffffffffffffffffff16021790555060408201518160020155606082015181600301556080820151816004015560a0820151816005015590505050505050565b6040518060c00160405280600073ffffffffffffffffffffffffffffffffffffffff168152602001600073ffffffffffffffffffffffffffffffffffffffff168152602001600081526020016000815260200160008152602001600081525090565b600061320961320484613e3b565b613e0a565b9050808382526020820190508285602086028201111561322857600080fd5b60005b85811015613258578161323e88826132e0565b84526020840193506020830192505060018101905061322b565b5050509392505050565b600081359050613271816141a6565b92915050565b600082601f83011261328857600080fd5b81516132988482602086016131f6565b91505092915050565b6000815190506132b0816141bd565b92915050565b6000815190506132c5816141d4565b92915050565b6000813590506132da816141eb565b92915050565b6000815190506132ef816141eb565b92915050565b60008151905061330481614202565b92915050565b60006020828403121561331c57600080fd5b600061332a84828501613262565b91505092915050565b6000806040838503121561334657600080fd5b600061335485828601613262565b9250506020613365858286016132cb565b9150509250929050565b60006020828403121561338157600080fd5b600082015167ffffffffffffffff81111561339b57600080fd5b6133a784828501613277565b91505092915050565b6000602082840312156133c257600080fd5b60006133d0848285016132a1565b91505092915050565b6000806000606084860312156133ee57600080fd5b60006133fc868287016132b6565b935050602061340d868287016132b6565b925050604061341e868287016132f5565b9150509250925092565b60006020828403121561343a57600080fd5b6000613448848285016132cb565b91505092915050565b6000806040838503121561346457600080fd5b6000613472858286016132cb565b9250506020613483858286016132cb565b9150509250929050565b600061349983836134bd565b60208301905092915050565b60006134b1838361399e565b60c08301905092915050565b6134c681614024565b82525050565b6134d581614024565b82525050565b60006134e682613e8c565b6134f08185613ebc565b93506134fb83613e67565b8060005b838110156135335761351082614186565b61351a888261348d565b975061352583613ea2565b9250506001810190506134ff565b5085935050505092915050565b600061354b82613e97565b6135558185613ecd565b935061356083613e7c565b8060005b8381101561359157815161357888826134a5565b975061358383613eaf565b925050600181019050613564565b5085935050505092915050565b60006135ab601483613ede565b91507f6c6f7762207472616e73666572206661696c65640000000000000000000000006000830152602082019050919050565b60006135eb601483613ede565b91507f75736474207472616e73666572206661696c65640000000000000000000000006000830152602082019050919050565b600061362b601483613ede565b91507f696e7661696c64207573657220616464726573730000000000000000000000006000830152602082019050919050565b600061366b601183613ede565b91507f596f7520617265206e6f742061646d696e0000000000000000000000000000006000830152602082019050919050565b60006136ab601083613ede565b91507f4e6f7420656e6f756768207573647421000000000000000000000000000000006000830152602082019050919050565b60006136eb601983613ede565b91507f63616e6e6f74206c6f636b207573647420666f72206e6f7721000000000000006000830152602082019050919050565b600061372b600b83613ede565b91507f46656520746f20686967680000000000000000000000000000000000000000006000830152602082019050919050565b600061376b601e83613ede565b91507f616d6f756e74206c6172676572207468616e207468652062616c616e636500006000830152602082019050919050565b60006137ab601483613ede565b91507f626f72726f7720746f206d756368206c6f7762210000000000000000000000006000830152602082019050919050565b60006137eb601383613ede565b91507f596f752072657475726e206e6f7468696e6721000000000000000000000000006000830152602082019050919050565b600061382b601483613ede565b91507f4c6f7762207472616e73666572206661696c65640000000000000000000000006000830152602082019050919050565b600061386b601583613ede565b91507f496e76616c6964207265636f7264206e756d62657200000000000000000000006000830152602082019050919050565b60006138ab601083613ede565b91507f596f7520616464206e6f7468696e6721000000000000000000000000000000006000830152602082019050919050565b60006138eb601483613ede565b91507f596f75206465706f736974206e6f7468696e67210000000000000000000000006000830152602082019050919050565b600061392b601383613ede565b91507f596f7520626f72726f77206e6f7468696e6721000000000000000000000000006000830152602082019050919050565b600061396b601c83613ede565b91507f63616e6e6f7420666f7263652072657475726e20666f72206e6f7721000000006000830152602082019050919050565b60c0820160008201516139b460008501826134bd565b5060208201516139c760208501826134bd565b5060408201516139da6040850182613a19565b5060608201516139ed6060850182613a19565b506080820151613a006080850182613a19565b5060a0820151613a1360a0850182613a19565b50505050565b613a228161407c565b82525050565b613a318161407c565b82525050565b6000602082019050613a4c60008301846134cc565b92915050565b6000606082019050613a6760008301866134cc565b613a7460208301856134cc565b613a816040830184613a28565b949350505050565b600060c082019050613a9e60008301896134cc565b613aab60208301886134cc565b613ab86040830187613a28565b613ac56060830186613a28565b613ad26080830185613a28565b613adf60a0830184613a28565b979650505050505050565b6000604082019050613aff60008301856134cc565b613b0c6020830184613a28565b9392505050565b60006020820190508181036000830152613b2d8184613540565b905092915050565b60006020820190508181036000830152613b4e8161359e565b9050919050565b60006020820190508181036000830152613b6e816135de565b9050919050565b60006020820190508181036000830152613b8e8161361e565b9050919050565b60006020820190508181036000830152613bae8161365e565b9050919050565b60006020820190508181036000830152613bce8161369e565b9050919050565b60006020820190508181036000830152613bee816136de565b9050919050565b60006020820190508181036000830152613c0e8161371e565b9050919050565b60006020820190508181036000830152613c2e8161375e565b9050919050565b60006020820190508181036000830152613c4e8161379e565b9050919050565b60006020820190508181036000830152613c6e816137de565b9050919050565b60006020820190508181036000830152613c8e8161381e565b9050919050565b60006020820190508181036000830152613cae8161385e565b9050919050565b60006020820190508181036000830152613cce8161389e565b9050919050565b60006020820190508181036000830152613cee816138de565b9050919050565b60006020820190508181036000830152613d0e8161391e565b9050919050565b60006020820190508181036000830152613d2e8161395e565b9050919050565b6000602082019050613d4a6000830184613a28565b92915050565b6000604082019050613d656000830185613a28565b613d726020830184613a28565b9392505050565b600060a082019050613d8e6000830188613a28565b613d9b6020830187613a28565b8181036040830152613dad81866134db565b9050613dbc60608301856134cc565b613dc96080830184613a28565b9695505050505050565b6000606082019050613de86000830186613a28565b613df56020830185613a28565b613e026040830184613a28565b949350505050565b6000604051905081810181811067ffffffffffffffff82111715613e3157613e30614157565b5b8060405250919050565b600067ffffffffffffffff821115613e5657613e55614157565b5b602082029050602081019050919050565b60008190508160005260206000209050919050565b6000819050602082019050919050565b600081549050919050565b600081519050919050565b6000600182019050919050565b6000602082019050919050565b600082825260208201905092915050565b600082825260208201905092915050565b600082825260208201905092915050565b6000613efa8261407c565b9150613f058361407c565b9250827fffffffffffffffffffffffffffffffffffffffffffffffffffffffffffffffff03821115613f3a57613f396140f9565b5b828201905092915050565b6000613f508261407c565b9150613f5b8361407c565b925082613f6b57613f6a614128565b5b828204905092915050565b6000613f818261407c565b9150613f8c8361407c565b9250817fffffffffffffffffffffffffffffffffffffffffffffffffffffffffffffffff0483118215151615613fc557613fc46140f9565b5b828202905092915050565b6000613fdb8261407c565b9150613fe68361407c565b925082821015613ff957613ff86140f9565b5b828203905092915050565b600073ffffffffffffffffffffffffffffffffffffffff82169050919050565b600061402f8261405c565b9050919050565b60008115159050919050565b60006dffffffffffffffffffffffffffff82169050919050565b600073ffffffffffffffffffffffffffffffffffffffff82169050919050565b6000819050919050565b600063ffffffff82169050919050565b60006140a96140a483614199565b614004565b9050919050565b60006140bb8261407c565b91507fffffffffffffffffffffffffffffffffffffffffffffffffffffffffffffffff8214156140ee576140ed6140f9565b5b600182019050919050565b7f4e487b7100000000000000000000000000000000000000000000000000000000600052601160045260246000fd5b7f4e487b7100000000000000000000000000000000000000000000000000000000600052601260045260246000fd5b7f4e487b7100000000000000000000000000000000000000000000000000000000600052604160045260246000fd5b60006141928254614096565b9050919050565b60008160001c9050919050565b6141af81614024565b81146141ba57600080fd5b50565b6141c681614036565b81146141d157600080fd5b50565b6141dd81614042565b81146141e857600080fd5b50565b6141f48161407c565b81146141ff57600080fd5b50565b61420b81614086565b811461421657600080fd5b5056fea2646970667358221220e1f806037f3039e2263c0b10c7aa59705675c8195669dee6ba98c5eca43c761564736f6c63430008000033",
  "immutableReferences": {},
  "source": "// contracts/LowbVoucher.sol\r\n// SPDX-License-Identifier: MIT\r\npragma solidity ^0.8.0;\r\n \r\nimport \"./IPancakePair.sol\";\r\nimport \"./IPancakeRouter.sol\";\r\nimport \"@openzeppelin/contracts/token/ERC20/IERC20.sol\";\r\n\r\ncontract BorrowLowb {\r\n    \r\n    /* Inverse basis point. */\r\n    uint public constant INVERSE_BASIS_POINT = 100000000000;\r\n    uint public constant MAXIMUM_FEE = 100000;\r\n    uint public commission = 2e18;\r\n    uint public feePerBlock;\r\n    uint totalDeposit;\r\n    \r\n    struct Record {\r\n        address prevUser;\r\n        address nextUser;\r\n        uint lowbAmount;\r\n        uint usdtAmount;\r\n        uint startBlock;\r\n        uint feePerBlock;\r\n    }\r\n    \r\n    address public owner;\r\n    address public routerAddress;\r\n    address public lpAddress;\r\n    address public usdtAddress;\r\n    address public lowbAddress;\r\n    address[] public usdtToLowbPath;\r\n    \r\n    mapping (address => uint) public balanceOf;\r\n    mapping (address => Record) public recordOf;\r\n\r\n    // Emitted events\r\n    event Deposit(address indexed user, uint amount);\r\n    event Withdraw(address indexed user, uint amount);\r\n    event LowbBorrowed(address indexed user, uint lowbAmount, uint usdtAmount);\r\n    event ReturnAllLowb(address indexed user, uint lowbAmount, uint usdtAmount, uint interestAmount);\r\n    event AddUsdt(address indexed user, uint amount);\r\n    event MoreLowbBorrowed(address indexed user, uint amount);\r\n    event UsdtLocked(address indexed user, address indexed borrower, uint usdtAmount, uint risk);\r\n    event BuyBackLowb(address indexed user, uint usdtAmount, uint lowbAmount, uint commission);\r\n\r\n    constructor(address lpAddress_, address routerAddress_) {\r\n        lpAddress = lpAddress_;\r\n        routerAddress = routerAddress_;\r\n        owner = msg.sender;\r\n        IPancakePair pair = IPancakePair(lpAddress_);\r\n        usdtAddress = pair.token0();\r\n        lowbAddress = pair.token1();\r\n        usdtToLowbPath.push(usdtAddress);\r\n        usdtToLowbPath.push(lowbAddress);\r\n    }\r\n\r\n    function getInterestOf(address user) public view returns (uint) {\r\n        return recordOf[user].lowbAmount * recordOf[user].feePerBlock * (block.number - recordOf[user].startBlock) / INVERSE_BASIS_POINT;\r\n    }\r\n\r\n    function getRiskNumberOf(address user) public view returns (uint) {\r\n        uint lowbAmount = recordOf[user].lowbAmount + getInterestOf(user);\r\n        uint usdtAmount = recordOf[user].usdtAmount;\r\n        IPancakePair pair = IPancakePair(lpAddress);\r\n        uint112 reserve0;\r\n        uint112 reserve1;\r\n        (reserve0, reserve1, ) = pair.getReserves();\r\n        return reserve0 * lowbAmount / reserve1 * INVERSE_BASIS_POINT / usdtAmount;\r\n    }\r\n\r\n    function setFee(uint fee_) public {\r\n        require(msg.sender == owner, \"You are not admin\");\r\n        require(fee_ < MAXIMUM_FEE, \"Fee to high\");\r\n        feePerBlock = fee_;\r\n    }\r\n    \r\n    function deposit(uint amount) public {\r\n        require(amount > 0, \"You deposit nothing!\");\r\n        IERC20 token = IERC20(lowbAddress);\r\n        require(token.transferFrom(msg.sender, address(this), amount), \"Lowb transfer failed\");\r\n        balanceOf[msg.sender] +=  amount;\r\n        totalDeposit += amount;\r\n        emit Deposit(msg.sender, amount);\r\n    }\r\n\r\n    function withdraw(uint amount) public {\r\n        require(amount <= balanceOf[msg.sender], \"amount larger than the balance\");  \r\n        balanceOf[msg.sender] -= amount;\r\n        IERC20 token = IERC20(lowbAddress);\r\n        require(token.transfer(msg.sender, amount), \"Lowb transfer failed\");\r\n        totalDeposit -= amount;\r\n        emit Withdraw(msg.sender, amount);\r\n    }\r\n\r\n    function borrowLowb(uint lowbAmount, uint usdtAmount) public {\r\n        require(lowbAmount > 0, \"You borrow nothing!\");\r\n        require(usdtAmount >= 50e18, \"Not enough usdt!\");\r\n        recordOf[msg.sender] = Record(address(0), address(0), lowbAmount, usdtAmount, block.number, feePerBlock);\r\n        require(getRiskNumberOf(msg.sender) < INVERSE_BASIS_POINT * 90/100, \"borrow to much lowb!\");\r\n        IERC20 lowb = IERC20(lowbAddress);\r\n        IERC20 usdt = IERC20(usdtAddress);\r\n        require(usdt.transferFrom(msg.sender, address(this), usdtAmount), \"usdt transfer failed\");\r\n        require(lowb.transfer(msg.sender, lowbAmount), \"lowb transfer failed\");\r\n        _addRecords(msg.sender);\r\n        emit LowbBorrowed(msg.sender, lowbAmount, usdtAmount);\r\n    }\r\n\r\n    function addMoreUsdt(uint amount) public {\r\n        require(amount > 0, \"You add nothing!\");\r\n        IERC20 token = IERC20(usdtAddress);\r\n        require(token.transferFrom(msg.sender, address(this), amount), \"usdt transfer failed\");\r\n        recordOf[msg.sender].usdtAmount += amount;\r\n        emit AddUsdt(msg.sender, amount);\r\n    }\r\n\r\n    function borrowMoreLowb(uint amount) public {\r\n        require(amount > 0, \"You borrow nothing!\");\r\n        uint interest = getInterestOf(msg.sender);\r\n        _removeRecords(msg.sender);\r\n        recordOf[msg.sender].lowbAmount += (amount + interest);\r\n        require(getRiskNumberOf(msg.sender) < INVERSE_BASIS_POINT * 90/100, \"borrow to much lowb!\");\r\n        _addRecords(msg.sender);\r\n        IERC20 token = IERC20(lowbAddress);\r\n        require(token.transfer(msg.sender, amount), \"lowb transfer failed\");\r\n        recordOf[msg.sender].startBlock = block.number;\r\n        emit MoreLowbBorrowed(msg.sender, amount);\r\n    }\r\n\r\n    function _addRecords(address newUser) private {\r\n        uint price = recordOf[newUser].lowbAmount / recordOf[newUser].usdtAmount;\r\n        address user = recordOf[address(0)].nextUser;\r\n        while (user != address(0)) {\r\n            if (price >= recordOf[user].lowbAmount / recordOf[user].usdtAmount) {\r\n                address prevUser = recordOf[user].prevUser;\r\n                recordOf[user].prevUser = user;\r\n                recordOf[newUser].nextUser = user;\r\n                recordOf[newUser].prevUser = prevUser;\r\n                recordOf[prevUser].nextUser = newUser;\r\n                return;\r\n            }\r\n            user = recordOf[user].nextUser;\r\n        }\r\n        recordOf[user].nextUser = newUser;\r\n        recordOf[newUser].prevUser = user;\r\n    }\r\n\r\n    function _removeRecords(address user) private {\r\n        address prevUser = recordOf[user].prevUser;\r\n        address nextUser = recordOf[user].nextUser;\r\n        recordOf[prevUser].nextUser = nextUser;\r\n        recordOf[nextUser].prevUser = prevUser;\r\n    }\r\n\r\n    function _returnAllLowb(address user) private {\r\n        IERC20 lowb = IERC20(lowbAddress);\r\n        IERC20 usdt = IERC20(usdtAddress);\r\n        uint interest = getInterestOf(user);\r\n        emit ReturnAllLowb(user, recordOf[user].lowbAmount, recordOf[user].usdtAmount, interest);\r\n        require(lowb.transferFrom(msg.sender, address(this), recordOf[user].lowbAmount + interest), \"lowb transfer failed\");\r\n        require(usdt.transfer(msg.sender, recordOf[user].usdtAmount), \"usdt transfer failed\");\r\n        _removeRecords(user);\r\n        recordOf[user] = Record(address(0), address(0), 0, 0, 0, 0);\r\n    }\r\n\r\n    function returnAllLowb() public {\r\n        require(recordOf[msg.sender].lowbAmount > 0, \"You return nothing!\");\r\n        _returnAllLowb(msg.sender);\r\n    }\r\n\r\n    function forceReturnAllLowb(address user) public {\r\n        require(getRiskNumberOf(user) > INVERSE_BASIS_POINT * 95/100, \"cannot force return for now!\");\r\n        _returnAllLowb(user);\r\n    }\r\n\r\n    function lockUsdt(address user) public {\r\n        require(user != address(0), \"invaild user address\");\r\n        require(getRiskNumberOf(user) > INVERSE_BASIS_POINT * 95/100, \"cannot lock usdt for now!\");\r\n        recordOf[address(0)].lowbAmount += (recordOf[user].lowbAmount + getInterestOf(user));\r\n        recordOf[address(0)].usdtAmount += (recordOf[user].usdtAmount - commission);\r\n        emit UsdtLocked(msg.sender, user, recordOf[user].usdtAmount, getRiskNumberOf(user));\r\n        _removeRecords(user);\r\n        recordOf[user] = Record(address(0), address(0), 0, 0, 0, 0);\r\n        IERC20 usdt = IERC20(usdtAddress);\r\n        require(usdt.transfer(msg.sender, commission), \"usdt transfer failed\");\r\n    }\r\n\r\n    function buyBackLowb(uint amount) public {\r\n        require(amount > 0 && amount <= recordOf[address(0)].usdtAmount, \"invaild user address\");\r\n        uint minLowbAmount = amount * recordOf[address(0)].lowbAmount / recordOf[address(0)].usdtAmount;\r\n        uint lowbCommission = minLowbAmount / 100;\r\n        IPancakeRouter01 router = IPancakeRouter01(routerAddress);\r\n        router.swapExactTokensForTokens(amount, minLowbAmount+lowbCommission, usdtToLowbPath, address(this), block.number+100);\r\n        recordOf[address(0)].usdtAmount -= amount;\r\n        recordOf[address(0)].lowbAmount -= minLowbAmount;\r\n        IERC20 lowb = IERC20(lowbAddress);\r\n        require(lowb.transfer(msg.sender, lowbCommission), \"lowb transfer failed\");\r\n        emit BuyBackLowb(msg.sender, amount, minLowbAmount, lowbCommission);\r\n    }\r\n\r\n    function getRecords(address user, uint n) public view returns (Record[] memory) {\r\n        require(n > 0, \"Invalid record number\");\r\n        Record[] memory records = new Record[](n);\r\n        Record memory record = recordOf[user];\r\n        for (uint i=0; i<n; i++) {\r\n            records[i] = record;\r\n            if (record.nextUser == address(0)) {\r\n                break;\r\n            }\r\n            else {\r\n                record = recordOf[record.nextUser];\r\n            }\r\n        }\r\n        return records;\r\n    }\r\n\r\n}",
  "sourcePath": "C:/Users/Weixuan/Documents/github/BorrowLowb/contracts/BorrowLowb.sol",
  "compiler": {
    "name": "solc",
    "version": "0.8.0+commit.c7dfd78e.Emscripten.clang"
  },
  "schemaVersion": "3.4.0",
  "updatedAt": "2021-10-01T07:59:43.865Z",
  "networkType": "ethereum",
  "devdoc": {
    "kind": "dev",
    "methods": {},
    "version": 1
  },
  "userdoc": {
    "kind": "user",
    "methods": {},
    "version": 1
  }
}