{
  "contractName": "GameEnrollment",
  "abi": [
    {
      "inputs": [
        {
          "internalType": "address",
          "name": "game_",
          "type": "address"
        },
        {
          "internalType": "address",
          "name": "nft_",
          "type": "address"
        }
      ],
      "stateMutability": "nonpayable",
      "type": "constructor"
    },
    {
      "anonymous": false,
      "inputs": [
        {
          "indexed": true,
          "internalType": "address",
          "name": "user",
          "type": "address"
        },
        {
          "indexed": false,
          "internalType": "uint256",
          "name": "amount",
          "type": "uint256"
        }
      ],
      "name": "Deposit",
      "type": "event"
    },
    {
      "anonymous": false,
      "inputs": [
        {
          "indexed": true,
          "internalType": "uint256",
          "name": "id",
          "type": "uint256"
        },
        {
          "indexed": true,
          "internalType": "address",
          "name": "player",
          "type": "address"
        },
        {
          "indexed": true,
          "internalType": "uint256",
          "name": "punkId",
          "type": "uint256"
        },
        {
          "indexed": false,
          "internalType": "string",
          "name": "name",
          "type": "string"
        },
        {
          "indexed": false,
          "internalType": "string",
          "name": "uri",
          "type": "string"
        }
      ],
      "name": "EnrollmentGame",
      "type": "event"
    },
    {
      "anonymous": false,
      "inputs": [
        {
          "indexed": true,
          "internalType": "address",
          "name": "user",
          "type": "address"
        },
        {
          "indexed": false,
          "internalType": "uint256",
          "name": "amount",
          "type": "uint256"
        }
      ],
      "name": "Withdraw",
      "type": "event"
    },
    {
      "inputs": [],
      "name": "enrollmentId",
      "outputs": [
        {
          "internalType": "uint256",
          "name": "",
          "type": "uint256"
        }
      ],
      "stateMutability": "view",
      "type": "function",
      "constant": true
    },
    {
      "inputs": [],
      "name": "gameAddress",
      "outputs": [
        {
          "internalType": "address",
          "name": "",
          "type": "address"
        }
      ],
      "stateMutability": "view",
      "type": "function",
      "constant": true
    },
    {
      "inputs": [
        {
          "internalType": "uint256",
          "name": "",
          "type": "uint256"
        }
      ],
      "name": "holderOf",
      "outputs": [
        {
          "internalType": "address",
          "name": "",
          "type": "address"
        }
      ],
      "stateMutability": "view",
      "type": "function",
      "constant": true
    },
    {
      "inputs": [],
      "name": "isGameOver",
      "outputs": [
        {
          "internalType": "bool",
          "name": "",
          "type": "bool"
        }
      ],
      "stateMutability": "view",
      "type": "function",
      "constant": true
    },
    {
      "inputs": [
        {
          "internalType": "uint256",
          "name": "",
          "type": "uint256"
        }
      ],
      "name": "isRegister",
      "outputs": [
        {
          "internalType": "bool",
          "name": "",
          "type": "bool"
        }
      ],
      "stateMutability": "view",
      "type": "function",
      "constant": true
    },
    {
      "inputs": [],
      "name": "nftAddress",
      "outputs": [
        {
          "internalType": "address",
          "name": "",
          "type": "address"
        }
      ],
      "stateMutability": "view",
      "type": "function",
      "constant": true
    },
    {
      "inputs": [],
      "name": "owner",
      "outputs": [
        {
          "internalType": "address",
          "name": "",
          "type": "address"
        }
      ],
      "stateMutability": "view",
      "type": "function",
      "constant": true
    },
    {
      "inputs": [],
      "name": "rentAmount",
      "outputs": [
        {
          "internalType": "uint256",
          "name": "",
          "type": "uint256"
        }
      ],
      "stateMutability": "view",
      "type": "function",
      "constant": true
    },
    {
      "inputs": [],
      "name": "rentBegin",
      "outputs": [
        {
          "internalType": "bool",
          "name": "",
          "type": "bool"
        }
      ],
      "stateMutability": "view",
      "type": "function",
      "constant": true
    },
    {
      "inputs": [
        {
          "internalType": "address",
          "name": "",
          "type": "address"
        }
      ],
      "name": "stakingBalanceOf",
      "outputs": [
        {
          "internalType": "uint256",
          "name": "",
          "type": "uint256"
        }
      ],
      "stateMutability": "view",
      "type": "function",
      "constant": true
    },
    {
      "inputs": [],
      "name": "validPunkId",
      "outputs": [
        {
          "internalType": "uint256",
          "name": "",
          "type": "uint256"
        }
      ],
      "stateMutability": "view",
      "type": "function",
      "constant": true
    },
    {
      "inputs": [
        {
          "internalType": "address",
          "name": "user",
          "type": "address"
        }
      ],
      "name": "rentPunksOf",
      "outputs": [
        {
          "internalType": "uint256[]",
          "name": "",
          "type": "uint256[]"
        }
      ],
      "stateMutability": "view",
      "type": "function",
      "constant": true
    },
    {
      "inputs": [
        {
          "internalType": "address",
          "name": "user",
          "type": "address"
        }
      ],
      "name": "registerPunksOf",
      "outputs": [
        {
          "internalType": "uint256[]",
          "name": "",
          "type": "uint256[]"
        }
      ],
      "stateMutability": "view",
      "type": "function",
      "constant": true
    },
    {
      "inputs": [
        {
          "internalType": "bool",
          "name": "b",
          "type": "bool"
        }
      ],
      "name": "setGameOver",
      "outputs": [],
      "stateMutability": "nonpayable",
      "type": "function"
    },
    {
      "inputs": [
        {
          "internalType": "bool",
          "name": "b",
          "type": "bool"
        }
      ],
      "name": "setRentBegin",
      "outputs": [],
      "stateMutability": "nonpayable",
      "type": "function"
    },
    {
      "inputs": [],
      "name": "rentPunk",
      "outputs": [],
      "stateMutability": "nonpayable",
      "type": "function"
    },
    {
      "inputs": [
        {
          "internalType": "address",
          "name": "player_",
          "type": "address"
        },
        {
          "internalType": "uint256",
          "name": "id_",
          "type": "uint256"
        },
        {
          "internalType": "string",
          "name": "name_",
          "type": "string"
        }
      ],
      "name": "enrollmentGame",
      "outputs": [],
      "stateMutability": "nonpayable",
      "type": "function"
    },
    {
      "inputs": [],
      "name": "withdrawGame",
      "outputs": [],
      "stateMutability": "nonpayable",
      "type": "function"
    }
  ],
  "bytecode": "0x60806040523480156200001157600080fd5b5060405162001bb738038062001bb7833981810160405281019062000037919062000130565b81600360006101000a81548173ffffffffffffffffffffffffffffffffffffffff021916908373ffffffffffffffffffffffffffffffffffffffff16021790555080600460006101000a81548173ffffffffffffffffffffffffffffffffffffffff021916908373ffffffffffffffffffffffffffffffffffffffff160217905550670de0b6b3a7640000600181905550600160008190555033600560006101000a81548173ffffffffffffffffffffffffffffffffffffffff021916908373ffffffffffffffffffffffffffffffffffffffff1602179055505050620001bf565b6000815190506200012a81620001a5565b92915050565b600080604083850312156200014457600080fd5b6000620001548582860162000119565b9250506020620001678582860162000119565b9150509250929050565b60006200017e8262000185565b9050919050565b600073ffffffffffffffffffffffffffffffffffffffff82169050919050565b620001b08162000171565b8114620001bc57600080fd5b50565b6119e880620001cf6000396000f3fe608060405234801561001057600080fd5b50600436106101165760003560e01c806362e3efdd116100a2578063cccc793d11610071578063cccc793d146102bd578063dbacc237146102db578063e1b0513b1461030b578063ea396cc914610315578063f8ef1e131461034557610116565b806362e3efdd146102335780636c4ff18d146102635780638da5cb5b14610281578063a168d8731461029f57610116565b80633c1a7fa5116100e95780633c1a7fa5146101a157806358298563146101ab57806359fcbdcb146101c95780635abb003d146101f95780635bf8633a1461021557610116565b80630e04a7d81461011b5780632b1c889e146101395780632c1fe329146101555780632f4667e614610171575b600080fd5b610123610363565b60405161013091906115f2565b60405180910390f35b610153600480360381019061014e9190611208565b610376565b005b61016f600480360381019061016a9190611208565b610423565b005b61018b6004803603810190610186919061114f565b6104d0565b60405161019891906115d0565b60405180910390f35b6101a9610567565b005b6101b36108df565b6040516101c09190611704565b60405180910390f35b6101e360048036038101906101de919061129b565b6108e5565b6040516101f091906115f2565b60405180910390f35b610213600480360381019061020e91906111a1565b610905565b005b61021d610c86565b60405161022a9190611555565b60405180910390f35b61024d6004803603810190610248919061114f565b610cac565b60405161025a9190611704565b60405180910390f35b61026b610cc4565b6040516102789190611704565b60405180910390f35b610289610cca565b6040516102969190611555565b60405180910390f35b6102a7610cf0565b6040516102b49190611555565b60405180910390f35b6102c5610d16565b6040516102d291906115f2565b60405180910390f35b6102f560048036038101906102f0919061129b565b610d29565b6040516103029190611555565b60405180910390f35b610313610d5c565b005b61032f600480360381019061032a919061114f565b610f79565b60405161033c91906115d0565b60405180910390f35b61034d611010565b60405161035a9190611704565b60405180910390f35b600560159054906101000a900460ff1681565b600560009054906101000a900473ffffffffffffffffffffffffffffffffffffffff1673ffffffffffffffffffffffffffffffffffffffff163373ffffffffffffffffffffffffffffffffffffffff1614610406576040517f08c379a00000000000000000000000000000000000000000000000000000000081526004016103fd90611644565b60405180910390fd5b80600560146101000a81548160ff02191690831515021790555050565b600560009054906101000a900473ffffffffffffffffffffffffffffffffffffffff1673ffffffffffffffffffffffffffffffffffffffff163373ffffffffffffffffffffffffffffffffffffffff16146104b3576040517f08c379a00000000000000000000000000000000000000000000000000000000081526004016104aa90611644565b60405180910390fd5b80600560156101000a81548160ff02191690831515021790555050565b6060600960008373ffffffffffffffffffffffffffffffffffffffff1673ffffffffffffffffffffffffffffffffffffffff16815260200190815260200160002080548060200260200160405190810160405280929190818152602001828054801561055b57602002820191906000526020600020905b815481526020019060010190808311610547575b50505050509050919050565b600560149054906101000a900460ff166105b6576040517f08c379a00000000000000000000000000000000000000000000000000000000081526004016105ad906116a4565b60405180910390fd5b5b600073ffffffffffffffffffffffffffffffffffffffff16600760008054815260200190815260200160002060009054906101000a900473ffffffffffffffffffffffffffffffffffffffff1673ffffffffffffffffffffffffffffffffffffffff161461063b57600080815480929190610631906118b5565b91905055506105b7565b61029b6000541115610682576040517f08c379a000000000000000000000000000000000000000000000000000000000815260040161067990611664565b60405180910390fd5b6000600360009054906101000a900473ffffffffffffffffffffffffffffffffffffffff1690508073ffffffffffffffffffffffffffffffffffffffff166323b872dd33306001546040518463ffffffff1660e01b81526004016106e893929190611570565b602060405180830381600087803b15801561070257600080fd5b505af1158015610716573d6000803e3d6000fd5b505050506040513d601f19601f8201168201806040525081019061073a9190611231565b610779576040517f08c379a0000000000000000000000000000000000000000000000000000000008152600401610770906116c4565b60405180910390fd5b600154600660003373ffffffffffffffffffffffffffffffffffffffff1673ffffffffffffffffffffffffffffffffffffffff16815260200190815260200160002060008282546107ca91906117d5565b9250508190555033600760008054815260200190815260200160002060006101000a81548173ffffffffffffffffffffffffffffffffffffffff021916908373ffffffffffffffffffffffffffffffffffffffff160217905550600860003373ffffffffffffffffffffffffffffffffffffffff1673ffffffffffffffffffffffffffffffffffffffff16815260200190815260200160002060005490806001815401808255809150506001900390600052602060002001600090919091909150553373ffffffffffffffffffffffffffffffffffffffff167fe1fffcc4923d04b559f4d29a8bfc6cda04eb5b0d3c460751c2402c5c5cc9109c6001546040516108d49190611704565b60405180910390a250565b60005481565b600a6020528060005260406000206000915054906101000a900460ff1681565b6000600460009054906101000a900473ffffffffffffffffffffffffffffffffffffffff169050600560149054906101000a900460ff161580156109fc57508073ffffffffffffffffffffffffffffffffffffffff16636352211e846040518263ffffffff1660e01b815260040161097d9190611704565b60206040518083038186803b15801561099557600080fd5b505afa1580156109a9573d6000803e3d6000fd5b505050506040513d601f19601f820116820180604052508101906109cd9190611178565b73ffffffffffffffffffffffffffffffffffffffff163373ffffffffffffffffffffffffffffffffffffffff16145b15610a5457336007600085815260200190815260200160002060006101000a81548173ffffffffffffffffffffffffffffffffffffffff021916908373ffffffffffffffffffffffffffffffffffffffff1602179055505b3373ffffffffffffffffffffffffffffffffffffffff166007600085815260200190815260200160002060009054906101000a900473ffffffffffffffffffffffffffffffffffffffff1673ffffffffffffffffffffffffffffffffffffffff1614610af5576040517f08c379a0000000000000000000000000000000000000000000000000000000008152600401610aec90611684565b60405180910390fd5b60026000815480929190610b08906118b5565b91905055506001600a600085815260200190815260200160002060006101000a81548160ff021916908315150217905550600960003373ffffffffffffffffffffffffffffffffffffffff1673ffffffffffffffffffffffffffffffffffffffff168152602001908152602001600020839080600181540180825580915050600190039060005260206000200160009091909190915055828473ffffffffffffffffffffffffffffffffffffffff166002547f47a905e8e8e945cf534fca3439cd65a61e352fa54f25d6ee11cff5cef3c92bc7858573ffffffffffffffffffffffffffffffffffffffff1663c87b56dd896040518263ffffffff1660e01b8152600401610c159190611704565b60006040518083038186803b158015610c2d57600080fd5b505afa158015610c41573d6000803e3d6000fd5b505050506040513d6000823e3d601f19601f82011682018060405250810190610c6a919061125a565b604051610c7892919061160d565b60405180910390a450505050565b600460009054906101000a900473ffffffffffffffffffffffffffffffffffffffff1681565b60066020528060005260406000206000915090505481565b60025481565b600560009054906101000a900473ffffffffffffffffffffffffffffffffffffffff1681565b600360009054906101000a900473ffffffffffffffffffffffffffffffffffffffff1681565b600560149054906101000a900460ff1681565b60076020528060005260406000206000915054906101000a900473ffffffffffffffffffffffffffffffffffffffff1681565b600560159054906101000a900460ff16610dab576040517f08c379a0000000000000000000000000000000000000000000000000000000008152600401610da2906116e4565b60405180910390fd5b6000600660003373ffffffffffffffffffffffffffffffffffffffff1673ffffffffffffffffffffffffffffffffffffffff1681526020019081526020016000205490506000600660003373ffffffffffffffffffffffffffffffffffffffff1673ffffffffffffffffffffffffffffffffffffffff168152602001908152602001600020819055506000600360009054906101000a900473ffffffffffffffffffffffffffffffffffffffff1690508073ffffffffffffffffffffffffffffffffffffffff1663a9059cbb33846040518363ffffffff1660e01b8152600401610e969291906115a7565b602060405180830381600087803b158015610eb057600080fd5b505af1158015610ec4573d6000803e3d6000fd5b505050506040513d601f19601f82011682018060405250810190610ee89190611231565b610f27576040517f08c379a0000000000000000000000000000000000000000000000000000000008152600401610f1e906116c4565b60405180910390fd5b3373ffffffffffffffffffffffffffffffffffffffff167f884edad9ce6fa2440d8a54cc123490eb96d2768479d49ff9c7366125a942436483604051610f6d9190611704565b60405180910390a25050565b6060600860008373ffffffffffffffffffffffffffffffffffffffff1673ffffffffffffffffffffffffffffffffffffffff16815260200190815260200160002080548060200260200160405190810160405280929190818152602001828054801561100457602002820191906000526020600020905b815481526020019060010190808311610ff0575b50505050509050919050565b60015481565b600061102961102484611750565b61171f565b90508281526020810184848401111561104157600080fd5b61104c848285611873565b509392505050565b600061106761106284611750565b61171f565b90508281526020810184848401111561107f57600080fd5b61108a848285611882565b509392505050565b6000813590506110a18161196d565b92915050565b6000815190506110b68161196d565b92915050565b6000813590506110cb81611984565b92915050565b6000815190506110e081611984565b92915050565b600082601f8301126110f757600080fd5b8135611107848260208601611016565b91505092915050565b600082601f83011261112157600080fd5b8151611131848260208601611054565b91505092915050565b6000813590506111498161199b565b92915050565b60006020828403121561116157600080fd5b600061116f84828501611092565b91505092915050565b60006020828403121561118a57600080fd5b6000611198848285016110a7565b91505092915050565b6000806000606084860312156111b657600080fd5b60006111c486828701611092565b93505060206111d58682870161113a565b925050604084013567ffffffffffffffff8111156111f257600080fd5b6111fe868287016110e6565b9150509250925092565b60006020828403121561121a57600080fd5b6000611228848285016110bc565b91505092915050565b60006020828403121561124357600080fd5b6000611251848285016110d1565b91505092915050565b60006020828403121561126c57600080fd5b600082015167ffffffffffffffff81111561128657600080fd5b61129284828501611110565b91505092915050565b6000602082840312156112ad57600080fd5b60006112bb8482850161113a565b91505092915050565b60006112d08383611537565b60208301905092915050565b6112e58161182b565b82525050565b60006112f682611790565b61130081856117b3565b935061130b83611780565b8060005b8381101561133c57815161132388826112c4565b975061132e836117a6565b92505060018101905061130f565b5085935050505092915050565b6113528161183d565b82525050565b60006113638261179b565b61136d81856117c4565b935061137d818560208601611882565b6113868161195c565b840191505092915050565b600061139e6011836117c4565b91507f596f7520617265206e6f742061646d696e0000000000000000000000000000006000830152602082019050919050565b60006113de6015836117c4565b91507f416c6c2070756e6b206172652072656e74206e6f7700000000000000000000006000830152602082019050919050565b600061141e6023836117c4565b91507f4f6e6c7920686f6c6465722063616e20617574686f72697a652068697320707560008301527f6e6b2100000000000000000000000000000000000000000000000000000000006020830152604082019050919050565b6000611484600e836117c4565b91507f72656e74206e6f7420626567696e0000000000000000000000000000000000006000830152602082019050919050565b60006114c46014836117c4565b91507f47616d65207472616e73666572206661696c65640000000000000000000000006000830152602082019050919050565b60006115046017836117c4565b91507f5761697420756e74696c2067616d65206973206f7665720000000000000000006000830152602082019050919050565b61154081611869565b82525050565b61154f81611869565b82525050565b600060208201905061156a60008301846112dc565b92915050565b600060608201905061158560008301866112dc565b61159260208301856112dc565b61159f6040830184611546565b949350505050565b60006040820190506115bc60008301856112dc565b6115c96020830184611546565b9392505050565b600060208201905081810360008301526115ea81846112eb565b905092915050565b60006020820190506116076000830184611349565b92915050565b600060408201905081810360008301526116278185611358565b9050818103602083015261163b8184611358565b90509392505050565b6000602082019050818103600083015261165d81611391565b9050919050565b6000602082019050818103600083015261167d816113d1565b9050919050565b6000602082019050818103600083015261169d81611411565b9050919050565b600060208201905081810360008301526116bd81611477565b9050919050565b600060208201905081810360008301526116dd816114b7565b9050919050565b600060208201905081810360008301526116fd816114f7565b9050919050565b60006020820190506117196000830184611546565b92915050565b6000604051905081810181811067ffffffffffffffff821117156117465761174561192d565b5b8060405250919050565b600067ffffffffffffffff82111561176b5761176a61192d565b5b601f19601f8301169050602081019050919050565b6000819050602082019050919050565b600081519050919050565b600081519050919050565b6000602082019050919050565b600082825260208201905092915050565b600082825260208201905092915050565b60006117e082611869565b91506117eb83611869565b9250827fffffffffffffffffffffffffffffffffffffffffffffffffffffffffffffffff038211156118205761181f6118fe565b5b828201905092915050565b600061183682611849565b9050919050565b60008115159050919050565b600073ffffffffffffffffffffffffffffffffffffffff82169050919050565b6000819050919050565b82818337600083830152505050565b60005b838110156118a0578082015181840152602081019050611885565b838111156118af576000848401525b50505050565b60006118c082611869565b91507fffffffffffffffffffffffffffffffffffffffffffffffffffffffffffffffff8214156118f3576118f26118fe565b5b600182019050919050565b7f4e487b7100000000000000000000000000000000000000000000000000000000600052601160045260246000fd5b7f4e487b7100000000000000000000000000000000000000000000000000000000600052604160045260246000fd5b6000601f19601f8301169050919050565b6119768161182b565b811461198157600080fd5b50565b61198d8161183d565b811461199857600080fd5b50565b6119a481611869565b81146119af57600080fd5b5056fea26469706673582212202aa5dea4ff7fa7c0a63db9e62b1ce38fbc1f67ba1cedbe060087824d6e314e0a64736f6c63430008000033",
  "immutableReferences": {},
  "source": "// SPDX-License-Identifier: MIT\r\npragma solidity ^0.8.0;\r\n\r\nimport \"@openzeppelin/contracts/token/ERC721/ERC721.sol\";\r\nimport \"@openzeppelin/contracts/token/ERC20/ERC20.sol\";\r\n\r\ncontract GameEnrollment {\r\n  \r\n  uint public validPunkId;\r\n  uint public rentAmount;\r\n  uint public enrollmentId;\r\n  address public gameAddress;\r\n  address public nftAddress;\r\n  address public owner;\r\n  bool public rentBegin;\r\n  bool public isGameOver;\r\n\r\n  mapping (address => uint) public stakingBalanceOf;\r\n  mapping (uint => address) public holderOf;\r\n  mapping (address => uint[]) private _rentPunksOf;\r\n  mapping (address => uint[]) private _registerPunksOf;\r\n  mapping (uint => bool) public isRegister;\r\n\r\n  event Deposit(address indexed user, uint amount);\r\n  event Withdraw(address indexed user, uint amount);\r\n  event EnrollmentGame(uint indexed id, address indexed player, uint indexed punkId, string name, string uri);\r\n  \r\n  constructor(address game_, address nft_) {\r\n    gameAddress = game_;\r\n    nftAddress = nft_;\r\n    rentAmount = 1e18;\r\n    validPunkId = 1;\r\n    owner = msg.sender;\r\n  }\r\n\r\n  function rentPunksOf(address user) public view returns (uint[] memory) {\r\n    return _rentPunksOf[user];\r\n  }\r\n\r\n  function registerPunksOf(address user) public view returns (uint[] memory) {\r\n    return _registerPunksOf[user];\r\n  }\r\n  \r\n  function setGameOver(bool b) public {\r\n    require(msg.sender == owner, \"You are not admin\");\r\n    isGameOver = b;\r\n  }\r\n\r\n  function setRentBegin(bool b) public {\r\n    require(msg.sender == owner, \"You are not admin\");\r\n    rentBegin = b;\r\n  }\r\n  \r\n  function rentPunk() public {\r\n    require(rentBegin, \"rent not begin\");\r\n    while (holderOf[validPunkId] != address(0)) {\r\n      validPunkId ++;\r\n    }\r\n    require(validPunkId <= 667, \"All punk are rent now\");\r\n    IERC20 token = IERC20(gameAddress);\r\n    require(token.transferFrom(msg.sender, address(this), rentAmount), \"Game transfer failed\");\r\n    stakingBalanceOf[msg.sender] += rentAmount;\r\n    holderOf[validPunkId] = msg.sender;\r\n    _rentPunksOf[msg.sender].push(validPunkId);\r\n    emit Deposit(msg.sender, rentAmount);\r\n  }\r\n  \r\n  function enrollmentGame(address player_, uint id_, string memory name_) public {\r\n    IERC721Metadata nft = IERC721Metadata(nftAddress);\r\n    if (!rentBegin && msg.sender == nft.ownerOf(id_)) {\r\n      holderOf[id_] = msg.sender;\r\n    }\r\n    require(holderOf[id_] == msg.sender, \"Only holder can authorize his punk!\");\r\n    enrollmentId ++;\r\n    isRegister[id_] = true;\r\n    _registerPunksOf[msg.sender].push(id_);\r\n    emit EnrollmentGame(enrollmentId, player_, id_, name_, nft.tokenURI(id_));\r\n  }\r\n\r\n  function withdrawGame() public {\r\n    require(isGameOver, \"Wait until game is over\");  \r\n    uint amount = stakingBalanceOf[msg.sender];\r\n    stakingBalanceOf[msg.sender] = 0;\r\n    IERC20 token = IERC20(gameAddress);\r\n    require(token.transfer(msg.sender, amount), \"Game transfer failed\");\r\n    emit Withdraw(msg.sender, amount);\r\n  }\r\n  \r\n}\r\n",
  "sourcePath": "C:/Users/Weixuan/Documents/github/GameEnrollment/contracts/GameEnrollment.sol",
  "compiler": {
    "name": "solc",
    "version": "0.8.0+commit.c7dfd78e.Emscripten.clang"
  },
  "schemaVersion": "3.4.0",
  "updatedAt": "2021-09-05T05:55:33.928Z",
  "networkType": "ethereum",
  "devdoc": {
    "kind": "dev",
    "methods": {},
    "version": 1
  },
  "userdoc": {
    "kind": "user",
    "methods": {},
    "version": 1
  }
}