{
  "contractName": "MyCollectible",
  "abi": [
    {
      "anonymous": false,
      "inputs": [
        {
          "indexed": true,
          "internalType": "address",
          "name": "owner",
          "type": "address"
        },
        {
          "indexed": true,
          "internalType": "address",
          "name": "approved",
          "type": "address"
        },
        {
          "indexed": true,
          "internalType": "uint256",
          "name": "tokenId",
          "type": "uint256"
        }
      ],
      "name": "Approval",
      "type": "event"
    },
    {
      "anonymous": false,
      "inputs": [
        {
          "indexed": true,
          "internalType": "address",
          "name": "owner",
          "type": "address"
        },
        {
          "indexed": true,
          "internalType": "address",
          "name": "operator",
          "type": "address"
        },
        {
          "indexed": false,
          "internalType": "bool",
          "name": "approved",
          "type": "bool"
        }
      ],
      "name": "ApprovalForAll",
      "type": "event"
    },
    {
      "anonymous": false,
      "inputs": [
        {
          "indexed": true,
          "internalType": "uint256",
          "name": "groupId",
          "type": "uint256"
        },
        {
          "indexed": true,
          "internalType": "uint256",
          "name": "serialId",
          "type": "uint256"
        },
        {
          "indexed": false,
          "internalType": "uint256",
          "name": "maxSupply",
          "type": "uint256"
        }
      ],
      "name": "GroupPublished",
      "type": "event"
    },
    {
      "anonymous": false,
      "inputs": [
        {
          "indexed": true,
          "internalType": "uint256",
          "name": "itemId",
          "type": "uint256"
        },
        {
          "indexed": true,
          "internalType": "uint256",
          "name": "groupId",
          "type": "uint256"
        },
        {
          "indexed": true,
          "internalType": "address",
          "name": "toAddress",
          "type": "address"
        }
      ],
      "name": "NewItemClaimed",
      "type": "event"
    },
    {
      "anonymous": false,
      "inputs": [
        {
          "indexed": true,
          "internalType": "address",
          "name": "previousOwner",
          "type": "address"
        },
        {
          "indexed": true,
          "internalType": "address",
          "name": "newOwner",
          "type": "address"
        }
      ],
      "name": "OwnershipTransferred",
      "type": "event"
    },
    {
      "anonymous": false,
      "inputs": [
        {
          "indexed": true,
          "internalType": "uint256",
          "name": "serialId",
          "type": "uint256"
        },
        {
          "indexed": false,
          "internalType": "uint256",
          "name": "maxGroup",
          "type": "uint256"
        },
        {
          "indexed": false,
          "internalType": "uint256",
          "name": "maxSupply",
          "type": "uint256"
        }
      ],
      "name": "SerialAdded",
      "type": "event"
    },
    {
      "anonymous": false,
      "inputs": [
        {
          "indexed": true,
          "internalType": "address",
          "name": "from",
          "type": "address"
        },
        {
          "indexed": true,
          "internalType": "address",
          "name": "to",
          "type": "address"
        },
        {
          "indexed": true,
          "internalType": "uint256",
          "name": "tokenId",
          "type": "uint256"
        }
      ],
      "name": "Transfer",
      "type": "event"
    },
    {
      "inputs": [],
      "name": "INVERSE_BASIS_POINT",
      "outputs": [
        {
          "internalType": "uint256",
          "name": "",
          "type": "uint256"
        }
      ],
      "stateMutability": "view",
      "type": "function",
      "constant": true
    },
    {
      "inputs": [
        {
          "internalType": "address",
          "name": "to",
          "type": "address"
        },
        {
          "internalType": "uint256",
          "name": "tokenId",
          "type": "uint256"
        }
      ],
      "name": "approve",
      "outputs": [],
      "stateMutability": "nonpayable",
      "type": "function"
    },
    {
      "inputs": [
        {
          "internalType": "address",
          "name": "owner",
          "type": "address"
        }
      ],
      "name": "balanceOf",
      "outputs": [
        {
          "internalType": "uint256",
          "name": "",
          "type": "uint256"
        }
      ],
      "stateMutability": "view",
      "type": "function",
      "constant": true
    },
    {
      "inputs": [
        {
          "internalType": "uint256",
          "name": "",
          "type": "uint256"
        }
      ],
      "name": "creatorOf",
      "outputs": [
        {
          "internalType": "address",
          "name": "",
          "type": "address"
        }
      ],
      "stateMutability": "view",
      "type": "function",
      "constant": true
    },
    {
      "inputs": [
        {
          "internalType": "uint256",
          "name": "tokenId",
          "type": "uint256"
        }
      ],
      "name": "getApproved",
      "outputs": [
        {
          "internalType": "address",
          "name": "",
          "type": "address"
        }
      ],
      "stateMutability": "view",
      "type": "function",
      "constant": true
    },
    {
      "inputs": [
        {
          "internalType": "uint256",
          "name": "",
          "type": "uint256"
        }
      ],
      "name": "groupCurrentSupply",
      "outputs": [
        {
          "internalType": "uint256",
          "name": "",
          "type": "uint256"
        }
      ],
      "stateMutability": "view",
      "type": "function",
      "constant": true
    },
    {
      "inputs": [
        {
          "internalType": "uint256",
          "name": "",
          "type": "uint256"
        }
      ],
      "name": "groupMaxSupply",
      "outputs": [
        {
          "internalType": "uint256",
          "name": "",
          "type": "uint256"
        }
      ],
      "stateMutability": "view",
      "type": "function",
      "constant": true
    },
    {
      "inputs": [
        {
          "internalType": "uint256",
          "name": "",
          "type": "uint256"
        }
      ],
      "name": "groupOf",
      "outputs": [
        {
          "internalType": "uint256",
          "name": "",
          "type": "uint256"
        }
      ],
      "stateMutability": "view",
      "type": "function",
      "constant": true
    },
    {
      "inputs": [
        {
          "internalType": "uint256",
          "name": "",
          "type": "uint256"
        }
      ],
      "name": "groupStart",
      "outputs": [
        {
          "internalType": "uint256",
          "name": "",
          "type": "uint256"
        }
      ],
      "stateMutability": "view",
      "type": "function",
      "constant": true
    },
    {
      "inputs": [
        {
          "internalType": "address",
          "name": "owner",
          "type": "address"
        },
        {
          "internalType": "address",
          "name": "operator",
          "type": "address"
        }
      ],
      "name": "isApprovedForAll",
      "outputs": [
        {
          "internalType": "bool",
          "name": "",
          "type": "bool"
        }
      ],
      "stateMutability": "view",
      "type": "function",
      "constant": true
    },
    {
      "inputs": [],
      "name": "name",
      "outputs": [
        {
          "internalType": "string",
          "name": "",
          "type": "string"
        }
      ],
      "stateMutability": "view",
      "type": "function",
      "constant": true
    },
    {
      "inputs": [],
      "name": "owner",
      "outputs": [
        {
          "internalType": "address",
          "name": "",
          "type": "address"
        }
      ],
      "stateMutability": "view",
      "type": "function",
      "constant": true
    },
    {
      "inputs": [
        {
          "internalType": "uint256",
          "name": "tokenId",
          "type": "uint256"
        }
      ],
      "name": "ownerOf",
      "outputs": [
        {
          "internalType": "address",
          "name": "",
          "type": "address"
        }
      ],
      "stateMutability": "view",
      "type": "function",
      "constant": true
    },
    {
      "inputs": [],
      "name": "renounceOwnership",
      "outputs": [],
      "stateMutability": "nonpayable",
      "type": "function"
    },
    {
      "inputs": [
        {
          "internalType": "uint256",
          "name": "",
          "type": "uint256"
        }
      ],
      "name": "royaltyOf",
      "outputs": [
        {
          "internalType": "uint256",
          "name": "",
          "type": "uint256"
        }
      ],
      "stateMutability": "view",
      "type": "function",
      "constant": true
    },
    {
      "inputs": [
        {
          "internalType": "address",
          "name": "from",
          "type": "address"
        },
        {
          "internalType": "address",
          "name": "to",
          "type": "address"
        },
        {
          "internalType": "uint256",
          "name": "tokenId",
          "type": "uint256"
        }
      ],
      "name": "safeTransferFrom",
      "outputs": [],
      "stateMutability": "nonpayable",
      "type": "function"
    },
    {
      "inputs": [
        {
          "internalType": "address",
          "name": "from",
          "type": "address"
        },
        {
          "internalType": "address",
          "name": "to",
          "type": "address"
        },
        {
          "internalType": "uint256",
          "name": "tokenId",
          "type": "uint256"
        },
        {
          "internalType": "bytes",
          "name": "_data",
          "type": "bytes"
        }
      ],
      "name": "safeTransferFrom",
      "outputs": [],
      "stateMutability": "nonpayable",
      "type": "function"
    },
    {
      "inputs": [
        {
          "internalType": "uint256",
          "name": "",
          "type": "uint256"
        }
      ],
      "name": "serialCurrentGroup",
      "outputs": [
        {
          "internalType": "uint256",
          "name": "",
          "type": "uint256"
        }
      ],
      "stateMutability": "view",
      "type": "function",
      "constant": true
    },
    {
      "inputs": [
        {
          "internalType": "uint256",
          "name": "",
          "type": "uint256"
        }
      ],
      "name": "serialCurrentSupply",
      "outputs": [
        {
          "internalType": "uint256",
          "name": "",
          "type": "uint256"
        }
      ],
      "stateMutability": "view",
      "type": "function",
      "constant": true
    },
    {
      "inputs": [
        {
          "internalType": "uint256",
          "name": "",
          "type": "uint256"
        }
      ],
      "name": "serialGroupStart",
      "outputs": [
        {
          "internalType": "uint256",
          "name": "",
          "type": "uint256"
        }
      ],
      "stateMutability": "view",
      "type": "function",
      "constant": true
    },
    {
      "inputs": [],
      "name": "serialIds",
      "outputs": [
        {
          "internalType": "uint256",
          "name": "_value",
          "type": "uint256"
        }
      ],
      "stateMutability": "view",
      "type": "function",
      "constant": true
    },
    {
      "inputs": [
        {
          "internalType": "uint256",
          "name": "",
          "type": "uint256"
        }
      ],
      "name": "serialMaxGroup",
      "outputs": [
        {
          "internalType": "uint256",
          "name": "",
          "type": "uint256"
        }
      ],
      "stateMutability": "view",
      "type": "function",
      "constant": true
    },
    {
      "inputs": [
        {
          "internalType": "uint256",
          "name": "",
          "type": "uint256"
        }
      ],
      "name": "serialMaxSupply",
      "outputs": [
        {
          "internalType": "uint256",
          "name": "",
          "type": "uint256"
        }
      ],
      "stateMutability": "view",
      "type": "function",
      "constant": true
    },
    {
      "inputs": [
        {
          "internalType": "uint256",
          "name": "",
          "type": "uint256"
        }
      ],
      "name": "serialOf",
      "outputs": [
        {
          "internalType": "uint256",
          "name": "",
          "type": "uint256"
        }
      ],
      "stateMutability": "view",
      "type": "function",
      "constant": true
    },
    {
      "inputs": [
        {
          "internalType": "uint256",
          "name": "",
          "type": "uint256"
        }
      ],
      "name": "serialTokenStart",
      "outputs": [
        {
          "internalType": "uint256",
          "name": "",
          "type": "uint256"
        }
      ],
      "stateMutability": "view",
      "type": "function",
      "constant": true
    },
    {
      "inputs": [
        {
          "internalType": "address",
          "name": "operator",
          "type": "address"
        },
        {
          "internalType": "bool",
          "name": "approved",
          "type": "bool"
        }
      ],
      "name": "setApprovalForAll",
      "outputs": [],
      "stateMutability": "nonpayable",
      "type": "function"
    },
    {
      "inputs": [
        {
          "internalType": "bytes4",
          "name": "interfaceId",
          "type": "bytes4"
        }
      ],
      "name": "supportsInterface",
      "outputs": [
        {
          "internalType": "bool",
          "name": "",
          "type": "bool"
        }
      ],
      "stateMutability": "view",
      "type": "function",
      "constant": true
    },
    {
      "inputs": [],
      "name": "symbol",
      "outputs": [
        {
          "internalType": "string",
          "name": "",
          "type": "string"
        }
      ],
      "stateMutability": "view",
      "type": "function",
      "constant": true
    },
    {
      "inputs": [
        {
          "internalType": "uint256",
          "name": "index",
          "type": "uint256"
        }
      ],
      "name": "tokenByIndex",
      "outputs": [
        {
          "internalType": "uint256",
          "name": "",
          "type": "uint256"
        }
      ],
      "stateMutability": "view",
      "type": "function",
      "constant": true
    },
    {
      "inputs": [
        {
          "internalType": "address",
          "name": "owner",
          "type": "address"
        },
        {
          "internalType": "uint256",
          "name": "index",
          "type": "uint256"
        }
      ],
      "name": "tokenOfOwnerByIndex",
      "outputs": [
        {
          "internalType": "uint256",
          "name": "",
          "type": "uint256"
        }
      ],
      "stateMutability": "view",
      "type": "function",
      "constant": true
    },
    {
      "inputs": [],
      "name": "totalSupply",
      "outputs": [
        {
          "internalType": "uint256",
          "name": "",
          "type": "uint256"
        }
      ],
      "stateMutability": "view",
      "type": "function",
      "constant": true
    },
    {
      "inputs": [
        {
          "internalType": "address",
          "name": "from",
          "type": "address"
        },
        {
          "internalType": "address",
          "name": "to",
          "type": "address"
        },
        {
          "internalType": "uint256",
          "name": "tokenId",
          "type": "uint256"
        }
      ],
      "name": "transferFrom",
      "outputs": [],
      "stateMutability": "nonpayable",
      "type": "function"
    },
    {
      "inputs": [
        {
          "internalType": "address",
          "name": "newOwner",
          "type": "address"
        }
      ],
      "name": "transferOwnership",
      "outputs": [],
      "stateMutability": "nonpayable",
      "type": "function"
    },
    {
      "inputs": [],
      "name": "initialize",
      "outputs": [],
      "stateMutability": "nonpayable",
      "type": "function"
    },
    {
      "inputs": [
        {
          "internalType": "uint256",
          "name": "maxGroup",
          "type": "uint256"
        },
        {
          "internalType": "uint256",
          "name": "maxSupply",
          "type": "uint256"
        }
      ],
      "name": "addSerial",
      "outputs": [
        {
          "internalType": "uint256",
          "name": "",
          "type": "uint256"
        }
      ],
      "stateMutability": "nonpayable",
      "type": "function"
    },
    {
      "inputs": [
        {
          "internalType": "address",
          "name": "to",
          "type": "address"
        },
        {
          "internalType": "uint256",
          "name": "serial",
          "type": "uint256"
        },
        {
          "internalType": "uint256",
          "name": "maxSupply",
          "type": "uint256"
        },
        {
          "internalType": "string",
          "name": "_tokenURI",
          "type": "string"
        },
        {
          "internalType": "uint256",
          "name": "royalty",
          "type": "uint256"
        }
      ],
      "name": "publish",
      "outputs": [
        {
          "internalType": "uint256",
          "name": "",
          "type": "uint256"
        }
      ],
      "stateMutability": "nonpayable",
      "type": "function"
    },
    {
      "inputs": [
        {
          "internalType": "address",
          "name": "to",
          "type": "address"
        },
        {
          "internalType": "uint256",
          "name": "groupId",
          "type": "uint256"
        }
      ],
      "name": "claim",
      "outputs": [
        {
          "internalType": "uint256",
          "name": "",
          "type": "uint256"
        }
      ],
      "stateMutability": "nonpayable",
      "type": "function"
    },
    {
      "inputs": [
        {
          "internalType": "uint256",
          "name": "tokenId",
          "type": "uint256"
        }
      ],
      "name": "tokenURI",
      "outputs": [
        {
          "internalType": "string",
          "name": "",
          "type": "string"
        }
      ],
      "stateMutability": "view",
      "type": "function",
      "constant": true
    }
  ],
  "bytecode": "0x608060405234801561001057600080fd5b50614955806100206000396000f3fe608060405234801561001057600080fd5b50600436106102325760003560e01c80637c1b718811610130578063b88d4fde116100b8578063e985e9c51161007c578063e985e9c51461075d578063ecc6346f1461078d578063ed8e037b146107ab578063f2fde38b146107db578063fc33ea1d146107f757610232565b8063b88d4fde14610693578063c15e6335146106af578063c87b56dd146106df578063cae6047f1461070f578063d26509b11461072d57610232565b80638da5cb5b116100ff5780638da5cb5b146105db57806395d89b41146105f9578063a22cb46514610617578063a97e51a614610633578063aad3ec961461066357610232565b80637c1b7188146105415780637ec8b110146105715780638129fc1c146105a15780638524d9fb146105ab57610232565b80632f745c59116101be578063589a174311610182578063589a1743146104775780636352211e146104a75780636d780e6b146104d757806370a0823114610507578063715018a61461053757610232565b80632f745c591461039b57806342842e0e146103cb57806343340fcf146103e75780634f6ccce714610417578063503ae1871461044757610232565b806318160ddd1161020557806318160ddd146102d157806323b872dd146102ef578063270f417b1461030b57806329a54a5c1461033b5780632d6a8da91461036b57610232565b806301ffc9a71461023757806306fdde0314610267578063081812fc14610285578063095ea7b3146102b5575b600080fd5b610251600480360381019061024c9190613791565b610827565b60405161025e9190614220565b60405180910390f35b61026f6108a1565b60405161027c919061423b565b60405180910390f35b61029f600480360381019061029a91906137e3565b610933565b6040516102ac91906141b9565b60405180910390f35b6102cf60048036038101906102ca91906136c6565b6109b8565b005b6102d9610ad0565b6040516102e6919061455d565b60405180910390f35b610309600480360381019061030491906135c0565b610add565b005b6103256004803603810190610320919061380c565b610b3d565b604051610332919061455d565b60405180910390f35b610355600480360381019061035091906137e3565b610cc7565b604051610362919061455d565b60405180910390f35b610385600480360381019061038091906137e3565b610ce0565b604051610392919061455d565b60405180910390f35b6103b560048036038101906103b091906136c6565b610cf9565b6040516103c2919061455d565b60405180910390f35b6103e560048036038101906103e091906135c0565b610d9e565b005b61040160048036038101906103fc91906137e3565b610dbe565b60405161040e919061455d565b60405180910390f35b610431600480360381019061042c91906137e3565b610dd6565b60405161043e919061455d565b60405180910390f35b610461600480360381019061045c91906137e3565b610e6d565b60405161046e919061455d565b60405180910390f35b610491600480360381019061048c91906137e3565b610e86565b60405161049e91906141b9565b60405180910390f35b6104c160048036038101906104bc91906137e3565b610eba565b6040516104ce91906141b9565b60405180910390f35b6104f160048036038101906104ec91906137e3565b610f6c565b6040516104fe919061455d565b60405180910390f35b610521600480360381019061051c919061355b565b610f85565b60405161052e919061455d565b60405180910390f35b61053f61103d565b005b61055b600480360381019061055691906137e3565b61117a565b604051610568919061455d565b60405180910390f35b61058b600480360381019061058691906137e3565b611193565b604051610598919061455d565b60405180910390f35b6105a96111ac565b005b6105c560048036038101906105c091906137e3565b611301565b6040516105d2919061455d565b60405180910390f35b6105e361131a565b6040516105f091906141b9565b60405180910390f35b610601611344565b60405161060e919061423b565b60405180910390f35b610631600480360381019061062c919061368a565b6113d6565b005b61064d600480360381019061064891906137e3565b611557565b60405161065a919061455d565b60405180910390f35b61067d600480360381019061067891906136c6565b611570565b60405161068a919061455d565b60405180910390f35b6106ad60048036038101906106a8919061360f565b61176c565b005b6106c960048036038101906106c49190613702565b6117ce565b6040516106d6919061455d565b60405180910390f35b6106f960048036038101906106f491906137e3565b611bcc565b604051610706919061423b565b60405180910390f35b610717611c8c565b604051610724919061455d565b60405180910390f35b610747600480360381019061074291906137e3565b611c92565b604051610754919061455d565b60405180910390f35b61077760048036038101906107729190613584565b611cab565b6040516107849190614220565b60405180910390f35b610795611d3f565b6040516107a2919061455d565b60405180910390f35b6107c560048036038101906107c091906137e3565b611d4b565b6040516107d2919061455d565b60405180910390f35b6107f560048036038101906107f0919061355b565b611d63565b005b610811600480360381019061080c91906137e3565b611f0f565b60405161081e919061455d565b60405180910390f35b60007f780e9d63000000000000000000000000000000000000000000000000000000007bffffffffffffffffffffffffffffffffffffffffffffffffffffffff1916827bffffffffffffffffffffffffffffffffffffffffffffffffffffffff1916148061089a575061089982611f28565b5b9050919050565b6060606580546108b0906147aa565b80601f01602080910402602001604051908101604052809291908181526020018280546108dc906147aa565b80156109295780601f106108fe57610100808354040283529160200191610929565b820191906000526020600020905b81548152906001019060200180831161090c57829003601f168201915b5050505050905090565b600061093e8261200a565b61097d576040517f08c379a00000000000000000000000000000000000000000000000000000000081526004016109749061445d565b60405180910390fd5b6069600083815260200190815260200160002060009054906101000a900473ffffffffffffffffffffffffffffffffffffffff169050919050565b60006109c382610eba565b90508073ffffffffffffffffffffffffffffffffffffffff168373ffffffffffffffffffffffffffffffffffffffff161415610a34576040517f08c379a0000000000000000000000000000000000000000000000000000000008152600401610a2b906144dd565b60405180910390fd5b8073ffffffffffffffffffffffffffffffffffffffff16610a53612076565b73ffffffffffffffffffffffffffffffffffffffff161480610a825750610a8181610a7c612076565b611cab565b5b610ac1576040517f08c379a0000000000000000000000000000000000000000000000000000000008152600401610ab8906143bd565b60405180910390fd5b610acb838361207e565b505050565b6000609980549050905090565b610aee610ae8612076565b82612137565b610b2d576040517f08c379a0000000000000000000000000000000000000000000000000000000008152600401610b24906144fd565b60405180910390fd5b610b38838383612215565b505050565b6000610b47612076565b73ffffffffffffffffffffffffffffffffffffffff16610b6561131a565b73ffffffffffffffffffffffffffffffffffffffff1614610bbb576040517f08c379a0000000000000000000000000000000000000000000000000000000008152600401610bb29061447d565b60405180910390fd5b610bc560fb612471565b6000610bd160fb612487565b9050600160fc54610be2919061466a565b60fe600083815260200190815260200160002081905550600160fd54610c08919061466a565b60ff60008381526020019081526020016000208190555082610101600083815260200190815260200160002081905550836101006000838152602001908152602001600020819055508260fc6000828254610c63919061466a565b925050819055508360fd6000828254610c7c919061466a565b92505081905550807f53f5b2871a004d244781f89242df264b0744d347b26753a3cb547fcdc8af616d8585604051610cb5929190614578565b60405180910390a28091505092915050565b6101006020528060005260406000206000915090505481565b6101036020528060005260406000206000915090505481565b6000610d0483610f85565b8210610d45576040517f08c379a0000000000000000000000000000000000000000000000000000000008152600401610d3c9061425d565b60405180910390fd5b609760008473ffffffffffffffffffffffffffffffffffffffff1673ffffffffffffffffffffffffffffffffffffffff168152602001908152602001600020600083815260200190815260200160002054905092915050565b610db98383836040518060200160405280600081525061176c565b505050565b60fe6020528060005260406000206000915090505481565b6000610de0610ad0565b8210610e21576040517f08c379a0000000000000000000000000000000000000000000000000000000008152600401610e189061451d565b60405180910390fd5b60998281548110610e5b577f4e487b7100000000000000000000000000000000000000000000000000000000600052603260045260246000fd5b90600052602060002001549050919050565b61010b6020528060005260406000206000915090505481565b6101046020528060005260406000206000915054906101000a900473ffffffffffffffffffffffffffffffffffffffff1681565b6000806067600084815260200190815260200160002060009054906101000a900473ffffffffffffffffffffffffffffffffffffffff169050600073ffffffffffffffffffffffffffffffffffffffff168173ffffffffffffffffffffffffffffffffffffffff161415610f63576040517f08c379a0000000000000000000000000000000000000000000000000000000008152600401610f5a906143fd565b60405180910390fd5b80915050919050565b6101086020528060005260406000206000915090505481565b60008073ffffffffffffffffffffffffffffffffffffffff168273ffffffffffffffffffffffffffffffffffffffff161415610ff6576040517f08c379a0000000000000000000000000000000000000000000000000000000008152600401610fed906143dd565b60405180910390fd5b606860008373ffffffffffffffffffffffffffffffffffffffff1673ffffffffffffffffffffffffffffffffffffffff168152602001908152602001600020549050919050565b611045612076565b73ffffffffffffffffffffffffffffffffffffffff1661106361131a565b73ffffffffffffffffffffffffffffffffffffffff16146110b9576040517f08c379a00000000000000000000000000000000000000000000000000000000081526004016110b09061447d565b60405180910390fd5b600073ffffffffffffffffffffffffffffffffffffffff1660c960009054906101000a900473ffffffffffffffffffffffffffffffffffffffff1673ffffffffffffffffffffffffffffffffffffffff167f8be0079c531659141344cd1fd0a4f28419497f9722a3daafe3b4186f6b6457e060405160405180910390a3600060c960006101000a81548173ffffffffffffffffffffffffffffffffffffffff021916908373ffffffffffffffffffffffffffffffffffffffff160217905550565b61010a6020528060005260406000206000915090505481565b6101026020528060005260406000206000915090505481565b600060019054906101000a900460ff16806111d2575060008054906101000a900460ff16155b611211576040517f08c379a00000000000000000000000000000000000000000000000000000000081526004016112089061441d565b60405180910390fd5b60008060019054906101000a900460ff161590508015611261576001600060016101000a81548160ff02191690831515021790555060016000806101000a81548160ff0219169083151502179055505b6112d56040518060400160405280600981526020017f4c6f736572204e465400000000000000000000000000000000000000000000008152506040518060400160405280600481526020017f4c4f575800000000000000000000000000000000000000000000000000000000815250612495565b6112dd61258a565b80156112fe5760008060016101000a81548160ff0219169083151502179055505b50565b6101096020528060005260406000206000915090505481565b600060c960009054906101000a900473ffffffffffffffffffffffffffffffffffffffff16905090565b606060668054611353906147aa565b80601f016020809104026020016040519081016040528092919081815260200182805461137f906147aa565b80156113cc5780601f106113a1576101008083540402835291602001916113cc565b820191906000526020600020905b8154815290600101906020018083116113af57829003601f168201915b5050505050905090565b6113de612076565b73ffffffffffffffffffffffffffffffffffffffff168273ffffffffffffffffffffffffffffffffffffffff16141561144c576040517f08c379a00000000000000000000000000000000000000000000000000000000081526004016114439061435d565b60405180910390fd5b80606a6000611459612076565b73ffffffffffffffffffffffffffffffffffffffff1673ffffffffffffffffffffffffffffffffffffffff16815260200190815260200160002060008473ffffffffffffffffffffffffffffffffffffffff1673ffffffffffffffffffffffffffffffffffffffff16815260200190815260200160002060006101000a81548160ff0219169083151502179055508173ffffffffffffffffffffffffffffffffffffffff16611506612076565b73ffffffffffffffffffffffffffffffffffffffff167f17307eab39ab6107e8899845ad3d59bd9653f200f220920489ca2b5937696c318360405161154b9190614220565b60405180910390a35050565b6101066020528060005260406000206000915090505481565b600061010a600083815260200190815260200160002054610109600084815260200190815260200160002054106115dc576040517f08c379a00000000000000000000000000000000000000000000000000000000081526004016115d3906144bd565b60405180910390fd5b600061010860008481526020019081526020016000205490503373ffffffffffffffffffffffffffffffffffffffff1661161582610eba565b73ffffffffffffffffffffffffffffffffffffffff16148061166a57503373ffffffffffffffffffffffffffffffffffffffff1661165282610933565b73ffffffffffffffffffffffffffffffffffffffff16145b6116a9576040517f08c379a00000000000000000000000000000000000000000000000000000000081526004016116a0906142fd565b60405180910390fd5b6000610109600085815260200190815260200160002054826116cb919061466a565b90506116d78582612673565b8361010b600083815260200190815260200160002081905550600161010960008681526020019081526020016000206000828254611715919061466a565b925050819055508473ffffffffffffffffffffffffffffffffffffffff1684827f36a93433b448906198d3db3984c15127c7b02a505a467b5e194977253f44cc1260405160405180910390a4809250505092915050565b61177d611777612076565b83612137565b6117bc576040517f08c379a00000000000000000000000000000000000000000000000000000000081526004016117b3906144fd565b60405180910390fd5b6117c884848484612841565b50505050565b60006117d8612076565b73ffffffffffffffffffffffffffffffffffffffff166117f661131a565b73ffffffffffffffffffffffffffffffffffffffff161461184c576040517f08c379a00000000000000000000000000000000000000000000000000000000081526004016118439061447d565b60405180910390fd5b61185660fb612487565b851115611898576040517f08c379a000000000000000000000000000000000000000000000000000000000815260040161188f906142bd565b60405180910390fd5b600082101580156118ab57506127108211155b6118ea576040517f08c379a00000000000000000000000000000000000000000000000000000000081526004016118e19061433d565b60405180910390fd5b61010060008681526020019081526020016000205461010260008781526020019081526020016000205410611954576040517f08c379a000000000000000000000000000000000000000000000000000000000815260040161194b9061437d565b60405180910390fd5b610101600086815260200190815260200160002054610103600087815260200190815260200160002054106119be576040517f08c379a00000000000000000000000000000000000000000000000000000000081526004016119b59061453d565b60405180910390fd5b600061010260008781526020019081526020016000205460ff6000888152602001908152602001600020546119f3919061466a565b905061010260008781526020019081526020016000206000815480929190611a1a906147dc565b9190505550600061010360008881526020019081526020016000205460fe600089815260200190815260200160002054611a54919061466a565b90508561010360008981526020019081526020016000206000828254611a7a919061466a565b92505081905550806101086000848152602001908152602001600020819055508561010a6000848152602001908152602001600020819055508461010760008481526020019081526020016000209080519060200190611adb92919061337f565b5087610104600084815260200190815260200160002060006101000a81548173ffffffffffffffffffffffffffffffffffffffff021916908373ffffffffffffffffffffffffffffffffffffffff16021790555083610105600084815260200190815260200160002081905550611b528882612673565b8161010b600083815260200190815260200160002081905550600161010960008481526020019081526020016000208190555086827f4c5fd817f8fc8ca41f71bf889df0e14dc6987b3716f25861004c1ff8ffa7927088604051611bb6919061455d565b60405180910390a3819250505095945050505050565b6060600061010b600084815260200190815260200160002054905061010760008281526020019081526020016000208054611c06906147aa565b80601f0160208091040260200160405190810160405280929190818152602001828054611c32906147aa565b8015611c7f5780601f10611c5457610100808354040283529160200191611c7f565b820191906000526020600020905b815481529060010190602001808311611c6257829003601f168201915b5050505050915050919050565b61271081565b6101056020528060005260406000206000915090505481565b6000606a60008473ffffffffffffffffffffffffffffffffffffffff1673ffffffffffffffffffffffffffffffffffffffff16815260200190815260200160002060008373ffffffffffffffffffffffffffffffffffffffff1673ffffffffffffffffffffffffffffffffffffffff16815260200190815260200160002060009054906101000a900460ff16905092915050565b60fb8060000154905081565b60ff6020528060005260406000206000915090505481565b611d6b612076565b73ffffffffffffffffffffffffffffffffffffffff16611d8961131a565b73ffffffffffffffffffffffffffffffffffffffff1614611ddf576040517f08c379a0000000000000000000000000000000000000000000000000000000008152600401611dd69061447d565b60405180910390fd5b600073ffffffffffffffffffffffffffffffffffffffff168173ffffffffffffffffffffffffffffffffffffffff161415611e4f576040517f08c379a0000000000000000000000000000000000000000000000000000000008152600401611e469061429d565b60405180910390fd5b8073ffffffffffffffffffffffffffffffffffffffff1660c960009054906101000a900473ffffffffffffffffffffffffffffffffffffffff1673ffffffffffffffffffffffffffffffffffffffff167f8be0079c531659141344cd1fd0a4f28419497f9722a3daafe3b4186f6b6457e060405160405180910390a38060c960006101000a81548173ffffffffffffffffffffffffffffffffffffffff021916908373ffffffffffffffffffffffffffffffffffffffff16021790555050565b6101016020528060005260406000206000915090505481565b60007f80ac58cd000000000000000000000000000000000000000000000000000000007bffffffffffffffffffffffffffffffffffffffffffffffffffffffff1916827bffffffffffffffffffffffffffffffffffffffffffffffffffffffff19161480611ff357507f5b5e139f000000000000000000000000000000000000000000000000000000007bffffffffffffffffffffffffffffffffffffffffffffffffffffffff1916827bffffffffffffffffffffffffffffffffffffffffffffffffffffffff1916145b8061200357506120028261289d565b5b9050919050565b60008073ffffffffffffffffffffffffffffffffffffffff166067600084815260200190815260200160002060009054906101000a900473ffffffffffffffffffffffffffffffffffffffff1673ffffffffffffffffffffffffffffffffffffffff1614159050919050565b600033905090565b816069600083815260200190815260200160002060006101000a81548173ffffffffffffffffffffffffffffffffffffffff021916908373ffffffffffffffffffffffffffffffffffffffff160217905550808273ffffffffffffffffffffffffffffffffffffffff166120f183610eba565b73ffffffffffffffffffffffffffffffffffffffff167f8c5be1e5ebec7d5bd14f71427d1e84f3dd0314c0f7b2291e5b200ac8c7c3b92560405160405180910390a45050565b60006121428261200a565b612181576040517f08c379a00000000000000000000000000000000000000000000000000000000081526004016121789061439d565b60405180910390fd5b600061218c83610eba565b90508073ffffffffffffffffffffffffffffffffffffffff168473ffffffffffffffffffffffffffffffffffffffff1614806121fb57508373ffffffffffffffffffffffffffffffffffffffff166121e384610933565b73ffffffffffffffffffffffffffffffffffffffff16145b8061220c575061220b8185611cab565b5b91505092915050565b8273ffffffffffffffffffffffffffffffffffffffff1661223582610eba565b73ffffffffffffffffffffffffffffffffffffffff161461228b576040517f08c379a00000000000000000000000000000000000000000000000000000000081526004016122829061449d565b60405180910390fd5b600073ffffffffffffffffffffffffffffffffffffffff168273ffffffffffffffffffffffffffffffffffffffff1614156122fb576040517f08c379a00000000000000000000000000000000000000000000000000000000081526004016122f29061431d565b60405180910390fd5b612306838383612907565b61231160008261207e565b6001606860008573ffffffffffffffffffffffffffffffffffffffff1673ffffffffffffffffffffffffffffffffffffffff168152602001908152602001600020600082825461236191906146c0565b925050819055506001606860008473ffffffffffffffffffffffffffffffffffffffff1673ffffffffffffffffffffffffffffffffffffffff16815260200190815260200160002060008282546123b8919061466a565b92505081905550816067600083815260200190815260200160002060006101000a81548173ffffffffffffffffffffffffffffffffffffffff021916908373ffffffffffffffffffffffffffffffffffffffff160217905550808273ffffffffffffffffffffffffffffffffffffffff168473ffffffffffffffffffffffffffffffffffffffff167fddf252ad1be2c89b69c2b068fc378daa952ba7f163c4a11628f55a4df523b3ef60405160405180910390a4505050565b6001816000016000828254019250508190555050565b600081600001549050919050565b600060019054906101000a900460ff16806124bb575060008054906101000a900460ff16155b6124fa576040517f08c379a00000000000000000000000000000000000000000000000000000000081526004016124f19061441d565b60405180910390fd5b60008060019054906101000a900460ff16159050801561254a576001600060016101000a81548160ff02191690831515021790555060016000806101000a81548160ff0219169083151502179055505b612552612a1b565b61255a612af4565b6125648383612bcd565b80156125855760008060016101000a81548160ff0219169083151502179055505b505050565b600060019054906101000a900460ff16806125b0575060008054906101000a900460ff16155b6125ef576040517f08c379a00000000000000000000000000000000000000000000000000000000081526004016125e69061441d565b60405180910390fd5b60008060019054906101000a900460ff16159050801561263f576001600060016101000a81548160ff02191690831515021790555060016000806101000a81548160ff0219169083151502179055505b612647612a1b565b61264f612cd6565b80156126705760008060016101000a81548160ff0219169083151502179055505b50565b600073ffffffffffffffffffffffffffffffffffffffff168273ffffffffffffffffffffffffffffffffffffffff1614156126e3576040517f08c379a00000000000000000000000000000000000000000000000000000000081526004016126da9061443d565b60405180910390fd5b6126ec8161200a565b1561272c576040517f08c379a0000000000000000000000000000000000000000000000000000000008152600401612723906142dd565b60405180910390fd5b61273860008383612907565b6001606860008473ffffffffffffffffffffffffffffffffffffffff1673ffffffffffffffffffffffffffffffffffffffff1681526020019081526020016000206000828254612788919061466a565b92505081905550816067600083815260200190815260200160002060006101000a81548173ffffffffffffffffffffffffffffffffffffffff021916908373ffffffffffffffffffffffffffffffffffffffff160217905550808273ffffffffffffffffffffffffffffffffffffffff16600073ffffffffffffffffffffffffffffffffffffffff167fddf252ad1be2c89b69c2b068fc378daa952ba7f163c4a11628f55a4df523b3ef60405160405180910390a45050565b61284c848484612215565b61285884848484612e58565b612897576040517f08c379a000000000000000000000000000000000000000000000000000000000815260040161288e9061427d565b60405180910390fd5b50505050565b60007f01ffc9a7000000000000000000000000000000000000000000000000000000007bffffffffffffffffffffffffffffffffffffffffffffffffffffffff1916827bffffffffffffffffffffffffffffffffffffffffffffffffffffffff1916149050919050565b612912838383612fef565b600073ffffffffffffffffffffffffffffffffffffffff168373ffffffffffffffffffffffffffffffffffffffff1614156129555761295081612ff4565b612994565b8173ffffffffffffffffffffffffffffffffffffffff168373ffffffffffffffffffffffffffffffffffffffff161461299357612992838261303d565b5b5b600073ffffffffffffffffffffffffffffffffffffffff168273ffffffffffffffffffffffffffffffffffffffff1614156129d7576129d2816131aa565b612a16565b8273ffffffffffffffffffffffffffffffffffffffff168273ffffffffffffffffffffffffffffffffffffffff1614612a1557612a1482826132ed565b5b5b505050565b600060019054906101000a900460ff1680612a41575060008054906101000a900460ff16155b612a80576040517f08c379a0000000000000000000000000000000000000000000000000000000008152600401612a779061441d565b60405180910390fd5b60008060019054906101000a900460ff161590508015612ad0576001600060016101000a81548160ff02191690831515021790555060016000806101000a81548160ff0219169083151502179055505b8015612af15760008060016101000a81548160ff0219169083151502179055505b50565b600060019054906101000a900460ff1680612b1a575060008054906101000a900460ff16155b612b59576040517f08c379a0000000000000000000000000000000000000000000000000000000008152600401612b509061441d565b60405180910390fd5b60008060019054906101000a900460ff161590508015612ba9576001600060016101000a81548160ff02191690831515021790555060016000806101000a81548160ff0219169083151502179055505b8015612bca5760008060016101000a81548160ff0219169083151502179055505b50565b600060019054906101000a900460ff1680612bf3575060008054906101000a900460ff16155b612c32576040517f08c379a0000000000000000000000000000000000000000000000000000000008152600401612c299061441d565b60405180910390fd5b60008060019054906101000a900460ff161590508015612c82576001600060016101000a81548160ff02191690831515021790555060016000806101000a81548160ff0219169083151502179055505b8260659080519060200190612c9892919061337f565b508160669080519060200190612caf92919061337f565b508015612cd15760008060016101000a81548160ff0219169083151502179055505b505050565b600060019054906101000a900460ff1680612cfc575060008054906101000a900460ff16155b612d3b576040517f08c379a0000000000000000000000000000000000000000000000000000000008152600401612d329061441d565b60405180910390fd5b60008060019054906101000a900460ff161590508015612d8b576001600060016101000a81548160ff02191690831515021790555060016000806101000a81548160ff0219169083151502179055505b6000612d95612076565b90508060c960006101000a81548173ffffffffffffffffffffffffffffffffffffffff021916908373ffffffffffffffffffffffffffffffffffffffff1602179055508073ffffffffffffffffffffffffffffffffffffffff16600073ffffffffffffffffffffffffffffffffffffffff167f8be0079c531659141344cd1fd0a4f28419497f9722a3daafe3b4186f6b6457e060405160405180910390a3508015612e555760008060016101000a81548160ff0219169083151502179055505b50565b6000612e798473ffffffffffffffffffffffffffffffffffffffff1661336c565b15612fe2578373ffffffffffffffffffffffffffffffffffffffff1663150b7a02612ea2612076565b8786866040518563ffffffff1660e01b8152600401612ec494939291906141d4565b602060405180830381600087803b158015612ede57600080fd5b505af1925050508015612f0f57506040513d601f19601f82011682018060405250810190612f0c91906137ba565b60015b612f92573d8060008114612f3f576040519150601f19603f3d011682016040523d82523d6000602084013e612f44565b606091505b50600081511415612f8a576040517f08c379a0000000000000000000000000000000000000000000000000000000008152600401612f819061427d565b60405180910390fd5b805181602001fd5b63150b7a0260e01b7bffffffffffffffffffffffffffffffffffffffffffffffffffffffff1916817bffffffffffffffffffffffffffffffffffffffffffffffffffffffff191614915050612fe7565b600190505b949350505050565b505050565b609980549050609a600083815260200190815260200160002081905550609981908060018154018082558091505060019003906000526020600020016000909190919091505550565b6000600161304a84610f85565b61305491906146c0565b9050600060986000848152602001908152602001600020549050818114613139576000609760008673ffffffffffffffffffffffffffffffffffffffff1673ffffffffffffffffffffffffffffffffffffffff168152602001908152602001600020600084815260200190815260200160002054905080609760008773ffffffffffffffffffffffffffffffffffffffff1673ffffffffffffffffffffffffffffffffffffffff168152602001908152602001600020600084815260200190815260200160002081905550816098600083815260200190815260200160002081905550505b6098600084815260200190815260200160002060009055609760008573ffffffffffffffffffffffffffffffffffffffff1673ffffffffffffffffffffffffffffffffffffffff16815260200190815260200160002060008381526020019081526020016000206000905550505050565b600060016099805490506131be91906146c0565b90506000609a6000848152602001908152602001600020549050600060998381548110613214577f4e487b7100000000000000000000000000000000000000000000000000000000600052603260045260246000fd5b90600052602060002001549050806099838154811061325c577f4e487b7100000000000000000000000000000000000000000000000000000000600052603260045260246000fd5b906000526020600020018190555081609a600083815260200190815260200160002081905550609a60008581526020019081526020016000206000905560998054806132d1577f4e487b7100000000000000000000000000000000000000000000000000000000600052603160045260246000fd5b6001900381819060005260206000200160009055905550505050565b60006132f883610f85565b905081609760008573ffffffffffffffffffffffffffffffffffffffff1673ffffffffffffffffffffffffffffffffffffffff168152602001908152602001600020600083815260200190815260200160002081905550806098600084815260200190815260200160002081905550505050565b600080823b905060008111915050919050565b82805461338b906147aa565b90600052602060002090601f0160209004810192826133ad57600085556133f4565b82601f106133c657805160ff19168380011785556133f4565b828001600101855582156133f4579182015b828111156133f35782518255916020019190600101906133d8565b5b5090506134019190613405565b5090565b5b8082111561341e576000816000905550600101613406565b5090565b6000613435613430846145d2565b6145a1565b90508281526020810184848401111561344d57600080fd5b613458848285614768565b509392505050565b600061347361346e84614602565b6145a1565b90508281526020810184848401111561348b57600080fd5b613496848285614768565b509392505050565b6000813590506134ad816148c3565b92915050565b6000813590506134c2816148da565b92915050565b6000813590506134d7816148f1565b92915050565b6000815190506134ec816148f1565b92915050565b600082601f83011261350357600080fd5b8135613513848260208601613422565b91505092915050565b600082601f83011261352d57600080fd5b813561353d848260208601613460565b91505092915050565b60008135905061355581614908565b92915050565b60006020828403121561356d57600080fd5b600061357b8482850161349e565b91505092915050565b6000806040838503121561359757600080fd5b60006135a58582860161349e565b92505060206135b68582860161349e565b9150509250929050565b6000806000606084860312156135d557600080fd5b60006135e38682870161349e565b93505060206135f48682870161349e565b925050604061360586828701613546565b9150509250925092565b6000806000806080858703121561362557600080fd5b60006136338782880161349e565b94505060206136448782880161349e565b935050604061365587828801613546565b925050606085013567ffffffffffffffff81111561367257600080fd5b61367e878288016134f2565b91505092959194509250565b6000806040838503121561369d57600080fd5b60006136ab8582860161349e565b92505060206136bc858286016134b3565b9150509250929050565b600080604083850312156136d957600080fd5b60006136e78582860161349e565b92505060206136f885828601613546565b9150509250929050565b600080600080600060a0868803121561371a57600080fd5b60006137288882890161349e565b955050602061373988828901613546565b945050604061374a88828901613546565b935050606086013567ffffffffffffffff81111561376757600080fd5b6137738882890161351c565b925050608061378488828901613546565b9150509295509295909350565b6000602082840312156137a357600080fd5b60006137b1848285016134c8565b91505092915050565b6000602082840312156137cc57600080fd5b60006137da848285016134dd565b91505092915050565b6000602082840312156137f557600080fd5b600061380384828501613546565b91505092915050565b6000806040838503121561381f57600080fd5b600061382d85828601613546565b925050602061383e85828601613546565b9150509250929050565b613851816146f4565b82525050565b61386081614706565b82525050565b600061387182614632565b61387b8185614648565b935061388b818560208601614777565b613894816148b2565b840191505092915050565b60006138aa8261463d565b6138b48185614659565b93506138c4818560208601614777565b6138cd816148b2565b840191505092915050565b60006138e5602b83614659565b91507f455243373231456e756d657261626c653a206f776e657220696e646578206f7560008301527f74206f6620626f756e64730000000000000000000000000000000000000000006020830152604082019050919050565b600061394b603283614659565b91507f4552433732313a207472616e7366657220746f206e6f6e20455243373231526560008301527f63656976657220696d706c656d656e74657200000000000000000000000000006020830152604082019050919050565b60006139b1602683614659565b91507f4f776e61626c653a206e6577206f776e657220697320746865207a65726f206160008301527f64647265737300000000000000000000000000000000000000000000000000006020830152604082019050919050565b6000613a17600f83614659565b91507f556e6b6e6f776e2073657269616c2e00000000000000000000000000000000006000830152602082019050919050565b6000613a57601c83614659565b91507f4552433732313a20746f6b656e20616c7265616479206d696e746564000000006000830152602082019050919050565b6000613a97602d83614659565b91507f596f7520646f6e27742068617665207468652061636365737320746f206d696e60008301527f74207468697320746f6b656e2e000000000000000000000000000000000000006020830152604082019050919050565b6000613afd602483614659565b91507f4552433732313a207472616e7366657220746f20746865207a65726f2061646460008301527f72657373000000000000000000000000000000000000000000000000000000006020830152604082019050919050565b6000613b63602383614659565b91507f526f79616c74792073686f756c64206265206265747765656e2030202d20313060008301527f30252e00000000000000000000000000000000000000000000000000000000006020830152604082019050919050565b6000613bc9601983614659565b91507f4552433732313a20617070726f766520746f2063616c6c6572000000000000006000830152602082019050919050565b6000613c09602e83614659565b91507f416c6c2067726f757073206f6620746869732073657269616c2068617665206260008301527f65656e207075626c69736865642e0000000000000000000000000000000000006020830152604082019050919050565b6000613c6f602c83614659565b91507f4552433732313a206f70657261746f7220717565727920666f72206e6f6e657860008301527f697374656e7420746f6b656e00000000000000000000000000000000000000006020830152604082019050919050565b6000613cd5603883614659565b91507f4552433732313a20617070726f76652063616c6c6572206973206e6f74206f7760008301527f6e6572206e6f7220617070726f76656420666f7220616c6c00000000000000006020830152604082019050919050565b6000613d3b602a83614659565b91507f4552433732313a2062616c616e636520717565727920666f7220746865207a6560008301527f726f2061646472657373000000000000000000000000000000000000000000006020830152604082019050919050565b6000613da1602983614659565b91507f4552433732313a206f776e657220717565727920666f72206e6f6e657869737460008301527f656e7420746f6b656e00000000000000000000000000000000000000000000006020830152604082019050919050565b6000613e07602e83614659565b91507f496e697469616c697a61626c653a20636f6e747261637420697320616c72656160008301527f647920696e697469616c697a65640000000000000000000000000000000000006020830152604082019050919050565b6000613e6d602083614659565b91507f4552433732313a206d696e7420746f20746865207a65726f20616464726573736000830152602082019050919050565b6000613ead602c83614659565b91507f4552433732313a20617070726f76656420717565727920666f72206e6f6e657860008301527f697374656e7420746f6b656e00000000000000000000000000000000000000006020830152604082019050919050565b6000613f13602083614659565b91507f4f776e61626c653a2063616c6c6572206973206e6f7420746865206f776e65726000830152602082019050919050565b6000613f53602983614659565b91507f4552433732313a207472616e73666572206f6620746f6b656e2074686174206960008301527f73206e6f74206f776e00000000000000000000000000000000000000000000006020830152604082019050919050565b6000613fb9602983614659565b91507f416c6c20746f6b656e73206f6620746869732067726f7570206861732062656560008301527f6e206d696e7465642e00000000000000000000000000000000000000000000006020830152604082019050919050565b600061401f602183614659565b91507f4552433732313a20617070726f76616c20746f2063757272656e74206f776e6560008301527f72000000000000000000000000000000000000000000000000000000000000006020830152604082019050919050565b6000614085603183614659565b91507f4552433732313a207472616e736665722063616c6c6572206973206e6f74206f60008301527f776e6572206e6f7220617070726f7665640000000000000000000000000000006020830152604082019050919050565b60006140eb602c83614659565b91507f455243373231456e756d657261626c653a20676c6f62616c20696e646578206f60008301527f7574206f6620626f756e647300000000000000000000000000000000000000006020830152604082019050919050565b6000614151602e83614659565b91507f416c6c20746f6b656e73206f6620746869732073657269616c2068617665206260008301527f65656e207075626c69736865642e0000000000000000000000000000000000006020830152604082019050919050565b6141b38161475e565b82525050565b60006020820190506141ce6000830184613848565b92915050565b60006080820190506141e96000830187613848565b6141f66020830186613848565b61420360408301856141aa565b81810360608301526142158184613866565b905095945050505050565b60006020820190506142356000830184613857565b92915050565b60006020820190508181036000830152614255818461389f565b905092915050565b60006020820190508181036000830152614276816138d8565b9050919050565b600060208201905081810360008301526142968161393e565b9050919050565b600060208201905081810360008301526142b6816139a4565b9050919050565b600060208201905081810360008301526142d681613a0a565b9050919050565b600060208201905081810360008301526142f681613a4a565b9050919050565b6000602082019050818103600083015261431681613a8a565b9050919050565b6000602082019050818103600083015261433681613af0565b9050919050565b6000602082019050818103600083015261435681613b56565b9050919050565b6000602082019050818103600083015261437681613bbc565b9050919050565b6000602082019050818103600083015261439681613bfc565b9050919050565b600060208201905081810360008301526143b681613c62565b9050919050565b600060208201905081810360008301526143d681613cc8565b9050919050565b600060208201905081810360008301526143f681613d2e565b9050919050565b6000602082019050818103600083015261441681613d94565b9050919050565b6000602082019050818103600083015261443681613dfa565b9050919050565b6000602082019050818103600083015261445681613e60565b9050919050565b6000602082019050818103600083015261447681613ea0565b9050919050565b6000602082019050818103600083015261449681613f06565b9050919050565b600060208201905081810360008301526144b681613f46565b9050919050565b600060208201905081810360008301526144d681613fac565b9050919050565b600060208201905081810360008301526144f681614012565b9050919050565b6000602082019050818103600083015261451681614078565b9050919050565b60006020820190508181036000830152614536816140de565b9050919050565b6000602082019050818103600083015261455681614144565b9050919050565b600060208201905061457260008301846141aa565b92915050565b600060408201905061458d60008301856141aa565b61459a60208301846141aa565b9392505050565b6000604051905081810181811067ffffffffffffffff821117156145c8576145c7614883565b5b8060405250919050565b600067ffffffffffffffff8211156145ed576145ec614883565b5b601f19601f8301169050602081019050919050565b600067ffffffffffffffff82111561461d5761461c614883565b5b601f19601f8301169050602081019050919050565b600081519050919050565b600081519050919050565b600082825260208201905092915050565b600082825260208201905092915050565b60006146758261475e565b91506146808361475e565b9250827fffffffffffffffffffffffffffffffffffffffffffffffffffffffffffffffff038211156146b5576146b4614825565b5b828201905092915050565b60006146cb8261475e565b91506146d68361475e565b9250828210156146e9576146e8614825565b5b828203905092915050565b60006146ff8261473e565b9050919050565b60008115159050919050565b60007fffffffff0000000000000000000000000000000000000000000000000000000082169050919050565b600073ffffffffffffffffffffffffffffffffffffffff82169050919050565b6000819050919050565b82818337600083830152505050565b60005b8381101561479557808201518184015260208101905061477a565b838111156147a4576000848401525b50505050565b600060028204905060018216806147c257607f821691505b602082108114156147d6576147d5614854565b5b50919050565b60006147e78261475e565b91507fffffffffffffffffffffffffffffffffffffffffffffffffffffffffffffffff82141561481a57614819614825565b5b600182019050919050565b7f4e487b7100000000000000000000000000000000000000000000000000000000600052601160045260246000fd5b7f4e487b7100000000000000000000000000000000000000000000000000000000600052602260045260246000fd5b7f4e487b7100000000000000000000000000000000000000000000000000000000600052604160045260246000fd5b6000601f19601f8301169050919050565b6148cc816146f4565b81146148d757600080fd5b50565b6148e381614706565b81146148ee57600080fd5b50565b6148fa81614712565b811461490557600080fd5b50565b6149118161475e565b811461491c57600080fd5b5056fea2646970667358221220b2f833fcff3a32e97e4f28086903cd05ed53395435b0496ea949a28df162c20a64736f6c63430008000033",
  "immutableReferences": {},
  "source": "// contracts/GameItem.sol\r\n// SPDX-License-Identifier: MIT\r\npragma solidity ^0.8.0;\r\n\r\nimport \"@openzeppelin/contracts-upgradeable/token/ERC721/ERC721Upgradeable.sol\";\r\nimport \"@openzeppelin/contracts-upgradeable/token/ERC721/extensions/ERC721EnumerableUpgradeable.sol\";\r\nimport \"@openzeppelin/contracts-upgradeable/utils/CountersUpgradeable.sol\";\r\nimport \"@openzeppelin/contracts-upgradeable/access/OwnableUpgradeable.sol\";\r\n\r\ncontract MyCollectible is ERC721EnumerableUpgradeable, OwnableUpgradeable {\r\n    using CountersUpgradeable for CountersUpgradeable.Counter;\r\n    CountersUpgradeable.Counter public serialIds;\r\n\r\n    uint private _serialTokenStart;\r\n    uint private _serialGroupStart;\r\n    mapping (uint => uint) public serialTokenStart;\r\n    mapping (uint => uint) public serialGroupStart;\r\n    mapping (uint => uint) public serialMaxGroup;\r\n    mapping (uint => uint) public serialMaxSupply;\r\n    mapping (uint => uint) public serialCurrentGroup;\r\n    mapping (uint => uint) public serialCurrentSupply;\r\n\r\n    mapping (uint => address) public creatorOf;\r\n    mapping (uint => uint) public royaltyOf;\r\n    mapping (uint => uint) public serialOf;\r\n    mapping (uint => string) private _groupURI;\r\n    mapping (uint => uint) public groupStart;\r\n    mapping (uint => uint) public groupCurrentSupply;\r\n    mapping (uint => uint) public groupMaxSupply;\r\n\r\n    mapping (uint => uint) public groupOf;\r\n\r\n    /* Inverse basis point. */\r\n    uint public constant INVERSE_BASIS_POINT = 10000;\r\n\r\n    event SerialAdded(uint indexed serialId, uint maxGroup, uint maxSupply);\r\n    event GroupPublished(uint indexed groupId, uint indexed serialId, uint maxSupply);\r\n    event NewItemClaimed(uint indexed itemId, uint indexed groupId, address indexed toAddress);\r\n\r\n    function initialize() initializer public {\r\n        __ERC721_init(\"Loser NFT\", \"LOWX\");\r\n        OwnableUpgradeable.__Ownable_init();\r\n    }\r\n\r\n    function addSerial(uint256 maxGroup, uint256 maxSupply)\r\n        public onlyOwner\r\n        returns (uint256)\r\n    {\r\n        serialIds.increment();\r\n        uint256 newSerialId = serialIds.current();\r\n        serialTokenStart[newSerialId] = _serialTokenStart + 1; // start token id of this serial\r\n        serialGroupStart[newSerialId] = _serialGroupStart + 1; // start group id of this serial\r\n        serialMaxSupply[newSerialId] = maxSupply;\r\n        serialMaxGroup[newSerialId] = maxGroup;\r\n        _serialTokenStart += maxSupply;\r\n        _serialGroupStart += maxGroup;\r\n\r\n        emit SerialAdded(newSerialId, maxGroup, maxSupply);\r\n\r\n        return newSerialId;\r\n    }\r\n\r\n    function publish(address to, uint256 serial, uint256 maxSupply, string memory _tokenURI, uint256 royalty)\r\n        public onlyOwner\r\n        returns (uint256)\r\n    {\r\n        require(serial <= serialIds.current(), \"Unknown serial.\");\r\n        require(royalty >= 0 && royalty <= INVERSE_BASIS_POINT, \"Royalty should be between 0 - 100%.\");\r\n        require(serialCurrentGroup[serial] < serialMaxGroup[serial], \"All groups of this serial have been published.\");\r\n        require(serialCurrentSupply[serial] < serialMaxSupply[serial], \"All tokens of this serial have been published.\");\r\n        \r\n        uint256 groupId = serialGroupStart[serial] + serialCurrentGroup[serial];\r\n        serialCurrentGroup[serial] ++;\r\n\r\n        uint256 tokenId = serialTokenStart[serial] + serialCurrentSupply[serial];\r\n        serialCurrentSupply[serial] += maxSupply;\r\n\r\n        groupStart[groupId] = tokenId;\r\n        groupMaxSupply[groupId] = maxSupply;\r\n        _groupURI[groupId] = _tokenURI;\r\n        creatorOf[groupId] = to;\r\n        royaltyOf[groupId] = royalty;\r\n\r\n        _mint(to, tokenId);\r\n        groupOf[tokenId] = groupId;\r\n        groupCurrentSupply[groupId] = 1;\r\n\r\n        emit GroupPublished(groupId, serial, maxSupply);\r\n\r\n        return groupId;\r\n    }\r\n\r\n    function claim(address to, uint256 groupId)\r\n        public \r\n        returns (uint256)\r\n    {\r\n        require(groupCurrentSupply[groupId] < groupMaxSupply[groupId], \"All tokens of this group has been minted.\");\r\n        uint256 startId = groupStart[groupId];\r\n        require(ownerOf(startId) == msg.sender || getApproved(startId) == msg.sender, \"You don't have the access to mint this token.\");\r\n        uint256 newtokenId = startId + groupCurrentSupply[groupId];\r\n\r\n        _mint(to, newtokenId);\r\n        groupOf[newtokenId] = groupId;\r\n        groupCurrentSupply[groupId] += 1;\r\n\r\n        emit NewItemClaimed(newtokenId, groupId, to);\r\n\r\n        return newtokenId;\r\n    }\r\n\r\n    function tokenURI(uint256 tokenId)\r\n        public view override\r\n        returns (string memory)\r\n    {\r\n        uint256 groupId = groupOf[tokenId];\r\n        return _groupURI[groupId];\r\n    }\r\n}",
  "sourcePath": "C:/Users/Weixuan/Documents/github/nft-upgradeable/contracts/MyCollectible.sol",
  "compiler": {
    "name": "solc",
    "version": "0.8.0+commit.c7dfd78e.Emscripten.clang"
  },
  "schemaVersion": "3.4.0",
  "updatedAt": "2021-06-13T09:30:49.419Z",
  "networkType": "ethereum",
  "devdoc": {
    "kind": "dev",
    "methods": {
      "approve(address,uint256)": {
        "details": "See {IERC721-approve}."
      },
      "balanceOf(address)": {
        "details": "See {IERC721-balanceOf}."
      },
      "getApproved(uint256)": {
        "details": "See {IERC721-getApproved}."
      },
      "isApprovedForAll(address,address)": {
        "details": "See {IERC721-isApprovedForAll}."
      },
      "name()": {
        "details": "See {IERC721Metadata-name}."
      },
      "owner()": {
        "details": "Returns the address of the current owner."
      },
      "ownerOf(uint256)": {
        "details": "See {IERC721-ownerOf}."
      },
      "renounceOwnership()": {
        "details": "Leaves the contract without owner. It will not be possible to call `onlyOwner` functions anymore. Can only be called by the current owner. NOTE: Renouncing ownership will leave the contract without an owner, thereby removing any functionality that is only available to the owner."
      },
      "safeTransferFrom(address,address,uint256)": {
        "details": "See {IERC721-safeTransferFrom}."
      },
      "safeTransferFrom(address,address,uint256,bytes)": {
        "details": "See {IERC721-safeTransferFrom}."
      },
      "setApprovalForAll(address,bool)": {
        "details": "See {IERC721-setApprovalForAll}."
      },
      "supportsInterface(bytes4)": {
        "details": "See {IERC165-supportsInterface}."
      },
      "symbol()": {
        "details": "See {IERC721Metadata-symbol}."
      },
      "tokenByIndex(uint256)": {
        "details": "See {IERC721Enumerable-tokenByIndex}."
      },
      "tokenOfOwnerByIndex(address,uint256)": {
        "details": "See {IERC721Enumerable-tokenOfOwnerByIndex}."
      },
      "tokenURI(uint256)": {
        "details": "See {IERC721Metadata-tokenURI}."
      },
      "totalSupply()": {
        "details": "See {IERC721Enumerable-totalSupply}."
      },
      "transferFrom(address,address,uint256)": {
        "details": "See {IERC721-transferFrom}."
      },
      "transferOwnership(address)": {
        "details": "Transfers ownership of the contract to a new account (`newOwner`). Can only be called by the current owner."
      }
    },
    "version": 1
  },
  "userdoc": {
    "kind": "user",
    "methods": {},
    "version": 1
  }
}