{
  "contractName": "RogueLand",
  "abi": [
    {
      "inputs": [],
      "stateMutability": "nonpayable",
      "type": "constructor"
    },
    {
      "anonymous": false,
      "inputs": [
        {
          "indexed": true,
          "internalType": "uint256",
          "name": "punkId",
          "type": "uint256"
        },
        {
          "indexed": true,
          "internalType": "uint256",
          "name": "time",
          "type": "uint256"
        },
        {
          "indexed": false,
          "internalType": "enum RogueLand.ActionChoices",
          "name": "action",
          "type": "uint8"
        }
      ],
      "name": "ActionCommitted",
      "type": "event"
    },
    {
      "anonymous": false,
      "inputs": [
        {
          "indexed": true,
          "internalType": "uint256",
          "name": "punkId",
          "type": "uint256"
        },
        {
          "indexed": true,
          "internalType": "uint256",
          "name": "time",
          "type": "uint256"
        },
        {
          "indexed": false,
          "internalType": "int256",
          "name": "x",
          "type": "int256"
        },
        {
          "indexed": false,
          "internalType": "int256",
          "name": "y",
          "type": "int256"
        },
        {
          "indexed": false,
          "internalType": "uint256",
          "name": "amount",
          "type": "uint256"
        }
      ],
      "name": "GoldPicked",
      "type": "event"
    },
    {
      "anonymous": false,
      "inputs": [
        {
          "indexed": true,
          "internalType": "uint256",
          "name": "punkId",
          "type": "uint256"
        },
        {
          "indexed": false,
          "internalType": "int256",
          "name": "x",
          "type": "int256"
        },
        {
          "indexed": false,
          "internalType": "int256",
          "name": "y",
          "type": "int256"
        },
        {
          "indexed": false,
          "internalType": "uint256",
          "name": "amount",
          "type": "uint256"
        },
        {
          "indexed": false,
          "internalType": "bool",
          "name": "isPut",
          "type": "bool"
        }
      ],
      "name": "GoldPut",
      "type": "event"
    },
    {
      "stateMutability": "payable",
      "type": "fallback",
      "payable": true
    },
    {
      "inputs": [],
      "name": "activeRound",
      "outputs": [
        {
          "internalType": "uint256",
          "name": "",
          "type": "uint256"
        }
      ],
      "stateMutability": "view",
      "type": "function",
      "constant": true
    },
    {
      "inputs": [],
      "name": "blockPerRound",
      "outputs": [
        {
          "internalType": "uint256",
          "name": "",
          "type": "uint256"
        }
      ],
      "stateMutability": "view",
      "type": "function",
      "constant": true
    },
    {
      "inputs": [
        {
          "internalType": "uint256",
          "name": "",
          "type": "uint256"
        },
        {
          "internalType": "int256",
          "name": "",
          "type": "int256"
        },
        {
          "internalType": "int256",
          "name": "",
          "type": "int256"
        }
      ],
      "name": "events",
      "outputs": [
        {
          "internalType": "uint256",
          "name": "movingPunk",
          "type": "uint256"
        },
        {
          "internalType": "uint256",
          "name": "monster",
          "type": "uint256"
        }
      ],
      "stateMutability": "view",
      "type": "function",
      "constant": true
    },
    {
      "inputs": [],
      "name": "goldAmount",
      "outputs": [
        {
          "internalType": "uint256",
          "name": "",
          "type": "uint256"
        }
      ],
      "stateMutability": "view",
      "type": "function",
      "constant": true
    },
    {
      "inputs": [],
      "name": "goldInterval",
      "outputs": [
        {
          "internalType": "uint256",
          "name": "",
          "type": "uint256"
        }
      ],
      "stateMutability": "view",
      "type": "function",
      "constant": true
    },
    {
      "inputs": [
        {
          "internalType": "int256",
          "name": "",
          "type": "int256"
        },
        {
          "internalType": "int256",
          "name": "",
          "type": "int256"
        }
      ],
      "name": "goldOn",
      "outputs": [
        {
          "internalType": "uint256",
          "name": "amount",
          "type": "uint256"
        },
        {
          "internalType": "uint256",
          "name": "vaildTime",
          "type": "uint256"
        },
        {
          "internalType": "uint256",
          "name": "punkNumber",
          "type": "uint256"
        }
      ],
      "stateMutability": "view",
      "type": "function",
      "constant": true
    },
    {
      "inputs": [
        {
          "internalType": "uint256",
          "name": "",
          "type": "uint256"
        }
      ],
      "name": "lastScheduleOf",
      "outputs": [
        {
          "internalType": "uint256",
          "name": "",
          "type": "uint256"
        }
      ],
      "stateMutability": "view",
      "type": "function",
      "constant": true
    },
    {
      "inputs": [],
      "name": "mapSize",
      "outputs": [
        {
          "internalType": "uint256",
          "name": "",
          "type": "uint256"
        }
      ],
      "stateMutability": "view",
      "type": "function",
      "constant": true
    },
    {
      "inputs": [
        {
          "internalType": "uint256",
          "name": "",
          "type": "uint256"
        },
        {
          "internalType": "uint256",
          "name": "",
          "type": "uint256"
        }
      ],
      "name": "movingPunks",
      "outputs": [
        {
          "internalType": "uint256",
          "name": "newNeighbor",
          "type": "uint256"
        },
        {
          "internalType": "enum RogueLand.ActionChoices",
          "name": "action",
          "type": "uint8"
        },
        {
          "internalType": "int256",
          "name": "x",
          "type": "int256"
        },
        {
          "internalType": "int256",
          "name": "y",
          "type": "int256"
        }
      ],
      "stateMutability": "view",
      "type": "function",
      "constant": true
    },
    {
      "inputs": [],
      "name": "owner",
      "outputs": [
        {
          "internalType": "address",
          "name": "",
          "type": "address"
        }
      ],
      "stateMutability": "view",
      "type": "function",
      "constant": true
    },
    {
      "inputs": [
        {
          "internalType": "address",
          "name": "",
          "type": "address"
        }
      ],
      "name": "playerInfo",
      "outputs": [
        {
          "internalType": "uint256",
          "name": "id",
          "type": "uint256"
        },
        {
          "internalType": "string",
          "name": "name",
          "type": "string"
        },
        {
          "internalType": "string",
          "name": "uri",
          "type": "string"
        }
      ],
      "stateMutability": "view",
      "type": "function",
      "constant": true
    },
    {
      "inputs": [
        {
          "internalType": "int256",
          "name": "",
          "type": "int256"
        },
        {
          "internalType": "int256",
          "name": "",
          "type": "int256"
        }
      ],
      "name": "stillPunkOn",
      "outputs": [
        {
          "internalType": "uint256",
          "name": "",
          "type": "uint256"
        }
      ],
      "stateMutability": "view",
      "type": "function",
      "constant": true
    },
    {
      "inputs": [
        {
          "internalType": "uint256",
          "name": "",
          "type": "uint256"
        }
      ],
      "name": "stillPunks",
      "outputs": [
        {
          "internalType": "uint256",
          "name": "oldNeighbor",
          "type": "uint256"
        },
        {
          "internalType": "uint256",
          "name": "newNeighbor",
          "type": "uint256"
        },
        {
          "internalType": "int256",
          "name": "x",
          "type": "int256"
        },
        {
          "internalType": "int256",
          "name": "y",
          "type": "int256"
        },
        {
          "internalType": "uint256",
          "name": "showtime",
          "type": "uint256"
        },
        {
          "internalType": "uint256",
          "name": "gold",
          "type": "uint256"
        }
      ],
      "stateMutability": "view",
      "type": "function",
      "constant": true
    },
    {
      "inputs": [],
      "name": "validBlockToPutGold",
      "outputs": [
        {
          "internalType": "uint256",
          "name": "",
          "type": "uint256"
        }
      ],
      "stateMutability": "view",
      "type": "function",
      "constant": true
    },
    {
      "stateMutability": "payable",
      "type": "receive",
      "payable": true
    },
    {
      "inputs": [
        {
          "internalType": "int256",
          "name": "x1",
          "type": "int256"
        },
        {
          "internalType": "int256",
          "name": "y1",
          "type": "int256"
        },
        {
          "internalType": "int256",
          "name": "x2",
          "type": "int256"
        },
        {
          "internalType": "int256",
          "name": "y2",
          "type": "int256"
        },
        {
          "internalType": "uint256",
          "name": "t",
          "type": "uint256"
        }
      ],
      "name": "getEvents",
      "outputs": [
        {
          "components": [
            {
              "internalType": "uint256",
              "name": "movingPunk",
              "type": "uint256"
            },
            {
              "internalType": "uint256",
              "name": "monster",
              "type": "uint256"
            }
          ],
          "internalType": "struct RogueLand.Event[]",
          "name": "",
          "type": "tuple[]"
        }
      ],
      "stateMutability": "view",
      "type": "function",
      "constant": true
    },
    {
      "inputs": [
        {
          "internalType": "address payable",
          "name": "player_",
          "type": "address"
        },
        {
          "internalType": "uint256",
          "name": "id_",
          "type": "uint256"
        },
        {
          "internalType": "string",
          "name": "name_",
          "type": "string"
        },
        {
          "internalType": "string",
          "name": "uri_",
          "type": "string"
        }
      ],
      "name": "authorize",
      "outputs": [],
      "stateMutability": "nonpayable",
      "type": "function"
    },
    {
      "inputs": [
        {
          "internalType": "int256",
          "name": "x",
          "type": "int256"
        },
        {
          "internalType": "int256",
          "name": "y",
          "type": "int256"
        }
      ],
      "name": "isValidToPutGold",
      "outputs": [
        {
          "internalType": "bool",
          "name": "",
          "type": "bool"
        }
      ],
      "stateMutability": "view",
      "type": "function",
      "constant": true
    },
    {
      "inputs": [
        {
          "internalType": "address payable",
          "name": "player_",
          "type": "address"
        }
      ],
      "name": "swapGold",
      "outputs": [],
      "stateMutability": "nonpayable",
      "type": "function"
    },
    {
      "inputs": [
        {
          "internalType": "uint256",
          "name": "goldInterval_",
          "type": "uint256"
        },
        {
          "internalType": "uint256",
          "name": "goldAmount_",
          "type": "uint256"
        }
      ],
      "name": "setGold",
      "outputs": [],
      "stateMutability": "nonpayable",
      "type": "function"
    },
    {
      "inputs": [],
      "name": "putGold",
      "outputs": [],
      "stateMutability": "nonpayable",
      "type": "function"
    },
    {
      "inputs": [
        {
          "internalType": "int256",
          "name": "x",
          "type": "int256"
        },
        {
          "internalType": "int256",
          "name": "y",
          "type": "int256"
        }
      ],
      "name": "getGold",
      "outputs": [],
      "stateMutability": "nonpayable",
      "type": "function"
    },
    {
      "inputs": [
        {
          "internalType": "uint256",
          "name": "id",
          "type": "uint256"
        }
      ],
      "name": "getEvent",
      "outputs": [
        {
          "components": [
            {
              "internalType": "uint256",
              "name": "t",
              "type": "uint256"
            },
            {
              "internalType": "int256",
              "name": "x",
              "type": "int256"
            },
            {
              "internalType": "int256",
              "name": "y",
              "type": "int256"
            }
          ],
          "internalType": "struct RogueLand.StatusInfo",
          "name": "",
          "type": "tuple"
        }
      ],
      "stateMutability": "view",
      "type": "function",
      "constant": true
    },
    {
      "inputs": [
        {
          "internalType": "uint256",
          "name": "id",
          "type": "uint256"
        },
        {
          "internalType": "enum RogueLand.ActionChoices",
          "name": "action",
          "type": "uint8"
        }
      ],
      "name": "scheduleAction",
      "outputs": [],
      "stateMutability": "nonpayable",
      "type": "function"
    },
    {
      "inputs": [],
      "name": "getCurrentTime",
      "outputs": [
        {
          "internalType": "uint256",
          "name": "",
          "type": "uint256"
        }
      ],
      "stateMutability": "view",
      "type": "function",
      "constant": true
    },
    {
      "inputs": [
        {
          "internalType": "uint256",
          "name": "id",
          "type": "uint256"
        }
      ],
      "name": "getCurrentStatus",
      "outputs": [
        {
          "components": [
            {
              "internalType": "uint256",
              "name": "t",
              "type": "uint256"
            },
            {
              "internalType": "int256",
              "name": "x",
              "type": "int256"
            },
            {
              "internalType": "int256",
              "name": "y",
              "type": "int256"
            }
          ],
          "internalType": "struct RogueLand.StatusInfo",
          "name": "",
          "type": "tuple"
        }
      ],
      "stateMutability": "view",
      "type": "function",
      "constant": true
    },
    {
      "inputs": [
        {
          "internalType": "uint256",
          "name": "id",
          "type": "uint256"
        }
      ],
      "name": "getScheduleInfo",
      "outputs": [
        {
          "components": [
            {
              "internalType": "uint256",
              "name": "t",
              "type": "uint256"
            },
            {
              "internalType": "int256",
              "name": "x",
              "type": "int256"
            },
            {
              "internalType": "int256",
              "name": "y",
              "type": "int256"
            }
          ],
          "internalType": "struct RogueLand.StatusInfo",
          "name": "",
          "type": "tuple"
        }
      ],
      "stateMutability": "view",
      "type": "function",
      "constant": true
    },
    {
      "inputs": [
        {
          "internalType": "address",
          "name": "player_",
          "type": "address"
        }
      ],
      "name": "getPlayerInfo",
      "outputs": [
        {
          "components": [
            {
              "internalType": "uint256",
              "name": "id",
              "type": "uint256"
            },
            {
              "internalType": "string",
              "name": "name",
              "type": "string"
            },
            {
              "internalType": "string",
              "name": "uri",
              "type": "string"
            }
          ],
          "internalType": "struct RogueLand.PlayerInfo",
          "name": "",
          "type": "tuple"
        }
      ],
      "stateMutability": "view",
      "type": "function",
      "constant": true
    },
    {
      "inputs": [],
      "name": "getGoldsofAllPunk",
      "outputs": [
        {
          "internalType": "uint256[667]",
          "name": "",
          "type": "uint256[667]"
        }
      ],
      "stateMutability": "view",
      "type": "function",
      "constant": true
    }
  ],
  "bytecode": "0x6080604052600560035560966004556101f46005556101f460065561271060075534801561002c57600080fd5b50336000806101000a81548173ffffffffffffffffffffffffffffffffffffffff021916908373ffffffffffffffffffffffffffffffffffffffff16021790555043600181905550436008819055506141e98061008a6000396000f3fe6080604052600436106101bb5760003560e01c80635288a86c116100ec57806386ea92931161008a578063de4f8f1f11610064578063de4f8f1f146106a4578063ea5acccb146106e6578063f673743714610711578063f7aecf6914610728576101c2565b806386ea9293146106135780638da5cb5b1461063c578063a0aa13c614610667576101c2565b80636358eaa3116100c65780636358eaa314610533578063671a8b1a1461055c5780636d1884e0146105995780637336ffac146105d6576101c2565b80635288a86c1461047b57806359328401146104b957806359d103f8146104f6576101c2565b80632a166de31161015957806340d68c111161013357806340d68c11146103aa57806348f9f586146103d35780634b114691146103fc5780634d71e7251461043b576101c2565b80632a166de3146103035780633730d98e146103405780633c9aaf3f1461036b576101c2565b8063123404731161019557806312340473146102575780631a32ebb6146102825780631fda9cb4146102ad57806329cb924d146102d8576101c2565b8063033d5e4d146101c457806308b1b5331461020157806311f0281e1461022c576101c2565b366101c257005b005b3480156101d057600080fd5b506101eb60048036038101906101e69190612f3e565b610751565b6040516101f89190613852565b60405180910390f35b34801561020d57600080fd5b506102166107e6565b604051610223919061386d565b60405180910390f35b34801561023857600080fd5b506102416107ec565b60405161024e919061386d565b60405180910390f35b34801561026357600080fd5b5061026c6107f2565b604051610279919061386d565b60405180910390f35b34801561028e57600080fd5b506102976107f8565b6040516102a4919061386d565b60405180910390f35b3480156102b957600080fd5b506102c26107fe565b6040516102cf91906135dd565b60405180910390f35b3480156102e457600080fd5b506102ed61089c565b6040516102fa919061386d565b60405180910390f35b34801561030f57600080fd5b5061032a60048036038101906103259190612e8b565b6108c3565b604051610337919061386d565b60405180910390f35b34801561034c57600080fd5b506103556108e8565b604051610362919061386d565b60405180910390f35b34801561037757600080fd5b50610392600480360381019061038d9190612e8b565b6108ee565b6040516103a1939291906139d3565b60405180910390f35b3480156103b657600080fd5b506103d160048036038101906103cc9190612f67565b610925565b005b3480156103df57600080fd5b506103fa60048036038101906103f59190612dcf565b610feb565b005b34801561040857600080fd5b50610423600480360381019061041e9190612da6565b6111e5565b60405161043293929190613904565b60405180910390f35b34801561044757600080fd5b50610462600480360381019061045d9190612ff2565b61131f565b60405161047294939291906138bf565b60405180910390f35b34801561048757600080fd5b506104a2600480360381019061049d9190612fa3565b611369565b6040516104b0929190613949565b60405180910390f35b3480156104c557600080fd5b506104e060048036038101906104db9190612da6565b6113a7565b6040516104ed9190613830565b60405180910390f35b34801561050257600080fd5b5061051d60048036038101906105189190612e8b565b61152e565b60405161052a91906135f9565b60405180910390f35b34801561053f57600080fd5b5061055a60048036038101906105559190612ff2565b611621565b005b34801561056857600080fd5b50610583600480360381019061057e9190612f3e565b6116c1565b604051610590919061386d565b60405180910390f35b3480156105a557600080fd5b506105c060048036038101906105bb9190612f3e565b6116d9565b6040516105cd9190613852565b60405180910390f35b3480156105e257600080fd5b506105fd60048036038101906105f89190612ec7565b61196a565b60405161060a91906135bb565b60405180910390f35b34801561061f57600080fd5b5061063a60048036038101906106359190612e8b565b611d33565b005b34801561064857600080fd5b50610651612096565b60405161065e91906135a0565b60405180910390f35b34801561067357600080fd5b5061068e60048036038101906106899190612f3e565b6120ba565b60405161069b9190613852565b60405180910390f35b3480156106b057600080fd5b506106cb60048036038101906106c69190612f3e565b6121aa565b6040516106dd96959493929190613972565b60405180910390f35b3480156106f257600080fd5b506106fb6121e6565b604051610708919061386d565b60405180910390f35b34801561071d57600080fd5b506107266121ec565b005b34801561073457600080fd5b5061074f600480360381019061074a9190612df8565b612522565b005b610759612bb2565b600061076361089c565b905080600b600085815260200190815260200160002054111561079757600b60008481526020019081526020016000205490505b6040518060600160405280828152602001600c6000868152602001908152602001600020600201548152602001600c600086815260200190815260200160002060030154815250915050919050565b60075481565b60045481565b60055481565b60035481565b610806612bd3565b61080e612bd3565b60005b61029b81101561089457600c600060018361082c9190613b93565b815260200190815260200160002060050154828261029b8110610878577f4e487b7100000000000000000000000000000000000000000000000000000000600052603260045260246000fd5b602002018181525050808061088c90613fbd565b915050610811565b508091505090565b600080600554600154436108b09190613e1f565b6108ba9190613be9565b90508091505090565b600d602052816000526040600020602052806000526040600020600091509150505481565b60085481565b600e602052816000526040600020602052806000526040600020600091509150508060000154908060010154908060020154905083565b81600960003373ffffffffffffffffffffffffffffffffffffffff1673ffffffffffffffffffffffffffffffffffffffff16815260200190815260200160002060000154146109a9576040517f08c379a00000000000000000000000000000000000000000000000000000000081526004016109a0906137b0565b60405180910390fd5b60006109b361089c565b905080600b60008581526020019081526020016000205410156109e95780600b6000858152602001908152602001600020819055505b6000600b60008581526020019081526020016000205490506000600c60008681526020019081526020016000206002015490506000600c6000878152602001908152602001600020600301549050610a42868383612721565b610a4f86848484896127d6565b60016008811115610a89577f4e487b7100000000000000000000000000000000000000000000000000000000600052602160045260246000fd5b856008811115610ac2577f4e487b7100000000000000000000000000000000000000000000000000000000600052602160045260246000fd5b1415610aed57610aec86600184610ad99190613d8b565b83600187610ae79190613b93565b61294b565b5b60026008811115610b27577f4e487b7100000000000000000000000000000000000000000000000000000000600052602160045260246000fd5b856008811115610b60577f4e487b7100000000000000000000000000000000000000000000000000000000600052602160045260246000fd5b1415610b8b57610b8a86600184610b779190613aff565b83600187610b859190613b93565b61294b565b5b60036008811115610bc5577f4e487b7100000000000000000000000000000000000000000000000000000000600052602160045260246000fd5b856008811115610bfe577f4e487b7100000000000000000000000000000000000000000000000000000000600052602160045260246000fd5b1415610c2957610c288683600184610c169190613aff565b600187610c239190613b93565b61294b565b5b60046008811115610c63577f4e487b7100000000000000000000000000000000000000000000000000000000600052602160045260246000fd5b856008811115610c9c577f4e487b7100000000000000000000000000000000000000000000000000000000600052602160045260246000fd5b1415610cc757610cc68683600184610cb49190613d8b565b600187610cc19190613b93565b61294b565b5b60056008811115610d01577f4e487b7100000000000000000000000000000000000000000000000000000000600052602160045260246000fd5b856008811115610d3a577f4e487b7100000000000000000000000000000000000000000000000000000000600052602160045260246000fd5b1415610d7157610d7086600184610d519190613d8b565b600184610d5e9190613aff565b600187610d6b9190613b93565b61294b565b5b60066008811115610dab577f4e487b7100000000000000000000000000000000000000000000000000000000600052602160045260246000fd5b856008811115610de4577f4e487b7100000000000000000000000000000000000000000000000000000000600052602160045260246000fd5b1415610e1b57610e1a86600184610dfb9190613d8b565b600184610e089190613d8b565b600187610e159190613b93565b61294b565b5b60076008811115610e55577f4e487b7100000000000000000000000000000000000000000000000000000000600052602160045260246000fd5b856008811115610e8e577f4e487b7100000000000000000000000000000000000000000000000000000000600052602160045260246000fd5b1415610ec557610ec486600184610ea59190613aff565b600184610eb29190613aff565b600187610ebf9190613b93565b61294b565b5b600880811115610efe577f4e487b7100000000000000000000000000000000000000000000000000000000600052602160045260246000fd5b856008811115610f37577f4e487b7100000000000000000000000000000000000000000000000000000000600052602160045260246000fd5b1415610f6e57610f6d86600184610f4e9190613aff565b600184610f5b9190613d8b565b600187610f689190613b93565b61294b565b5b600b60008781526020019081526020016000206000815480929190610f9290613fbd565b9190505550600b600087815260200190815260200160002054867f6a2d17d8c21b88f2e1a453533160575a5702bd8b1f6492daff557c2ae2a34a5687604051610fdb9190613614565b60405180910390a3505050505050565b3373ffffffffffffffffffffffffffffffffffffffff168173ffffffffffffffffffffffffffffffffffffffff1614611059576040517f08c379a000000000000000000000000000000000000000000000000000000000815260040161105090613750565b60405180910390fd5b6103e8600c6000600960008573ffffffffffffffffffffffffffffffffffffffff1673ffffffffffffffffffffffffffffffffffffffff1681526020019081526020016000206000015481526020019081526020016000206005015410156110f6576040517f08c379a00000000000000000000000000000000000000000000000000000000081526004016110ed90613810565b60405180910390fd5b6103e8600c6000600960008573ffffffffffffffffffffffffffffffffffffffff1673ffffffffffffffffffffffffffffffffffffffff16815260200190815260200160002060000154815260200190815260200160002060050160008282546111609190613e1f565b925050819055508073ffffffffffffffffffffffffffffffffffffffff166108fc662386f26fc100009081150290604051600060405180830381858888f193505050506111e2576040517f08c379a00000000000000000000000000000000000000000000000000000000081526004016111d990613710565b60405180910390fd5b50565b600960205280600052604060002060009150905080600001549080600101805461120e90613f42565b80601f016020809104026020016040519081016040528092919081815260200182805461123a90613f42565b80156112875780601f1061125c57610100808354040283529160200191611287565b820191906000526020600020905b81548152906001019060200180831161126a57829003601f168201915b50505050509080600201805461129c90613f42565b80601f01602080910402602001604051908101604052809291908181526020018280546112c890613f42565b80156113155780601f106112ea57610100808354040283529160200191611315565b820191906000526020600020905b8154815290600101906020018083116112f857829003601f168201915b5050505050905083565b600a602052816000526040600020602052806000526040600020600091509150508060000154908060010160009054906101000a900460ff16908060020154908060030154905084565b600f60205282600052604060002060205281600052604060002060205280600052604060002060009250925050508060000154908060010154905082565b6113af612bf7565b600960008373ffffffffffffffffffffffffffffffffffffffff1673ffffffffffffffffffffffffffffffffffffffff1681526020019081526020016000206040518060600160405290816000820154815260200160018201805461141390613f42565b80601f016020809104026020016040519081016040528092919081815260200182805461143f90613f42565b801561148c5780601f106114615761010080835404028352916020019161148c565b820191906000526020600020905b81548152906001019060200180831161146f57829003601f168201915b505050505081526020016002820180546114a590613f42565b80601f01602080910402602001604051908101604052809291908181526020018280546114d190613f42565b801561151e5780601f106114f35761010080835404028352916020019161151e565b820191906000526020600020905b81548152906001019060200180831161150157829003601f168201915b5050505050815250509050919050565b60008061153961089c565b90506000600d60008681526020019081526020016000206000858152602001908152602001600020541480156115a757506000600f60008381526020019081526020016000206000868152602001908152602001600020600085815260200190815260200160002060000154145b801561161857506000600e600086815260200190815260200160002060008581526020019081526020016000206001015414806116175750600454600e60008681526020019081526020016000206000858152602001908152602001600020600101546116149190613b93565b81115b5b91505092915050565b60008054906101000a900473ffffffffffffffffffffffffffffffffffffffff1673ffffffffffffffffffffffffffffffffffffffff163373ffffffffffffffffffffffffffffffffffffffff16146116af576040517f08c379a00000000000000000000000000000000000000000000000000000000081526004016116a6906137d0565b60405180910390fd5b81600681905550806007819055505050565b600b6020528060005260406000206000915090505481565b6116e1612bb2565b6000600b6000848152602001908152602001600020541415611722576040518060600160405280600081526020016000815260200160008152509050611965565b600061172c61089c565b905060006096821161173f57600161174d565b60968261174c9190613e1f565b5b905060006001600b6000878152602001908152602001600020546117719190613e1f565b831061179c576001600b6000878152602001908152602001600020546117979190613e1f565b61179e565b825b905060008290505b818111611871576000600a600088815260200190815260200160002060008381526020019081526020016000206002015490506000600a6000898152602001908152602001600020600084815260200190815260200160002060030154905082600e6000848152602001908152602001600020600083815260200190815260200160002060010154141561185c576040518060600160405280848152602001838152602001828152509650505050505050611965565b5050808061186990613fbd565b9150506117a6565b5082600b60008781526020019081526020016000205411611941576000600c60008781526020019081526020016000206002015490506000600c6000888152602001908152602001600020600301549050600b600088815260200190815260200160002054600e6000848152602001908152602001600020600083815260200190815260200160002060010154141561193e576040518060600160405280600b60008a81526020019081526020016000205481526020018381526020018281525095505050505050611965565b50505b60405180606001604052806000815260200160008152602001600081525093505050505b919050565b606085841215801561197c5750848312155b6119bb576040517f08c379a00000000000000000000000000000000000000000000000000000000081526004016119b290613730565b60405180910390fd5b6000600186856119cb9190613d8b565b6119d59190613aff565b600188876119e39190613d8b565b6119ed9190613aff565b6119f79190613c1a565b67ffffffffffffffff811115611a36577f4e487b7100000000000000000000000000000000000000000000000000000000600052604160045260246000fd5b604051908082528060200260200182016040528015611a6f57816020015b611a5c612c18565b815260200190600190039081611a545790505b5090506000808890505b868113611d245760008890505b868113611d1057600f60008781526020019081526020016000206000838152602001908152602001600020600082815260200190815260200160002060405180604001604052908160008201548152602001600182015481525050848481518110611b1a577f4e487b7100000000000000000000000000000000000000000000000000000000600052603260045260246000fd5b60200260200101819052506000600f60008881526020019081526020016000206000848152602001908152602001600020600083815260200190815260200160002060000154148015611ba7575085600c6000600d600086815260200190815260200160002060008581526020019081526020016000205481526020019081526020016000206004015411155b15611c1b57600d6000838152602001908152602001600020600082815260200190815260200160002054848481518110611c0a577f4e487b7100000000000000000000000000000000000000000000000000000000600052603260045260246000fd5b602002602001015160000181815250505b6000600e60008481526020019081526020016000206000838152602001908152602001600020600101541480611c78575085600e600084815260200190815260200160002060008381526020019081526020016000206001015410155b15611cef57600e6000838152602001908152602001600020600082815260200190815260200160002060000154848481518110611cde577f4e487b7100000000000000000000000000000000000000000000000000000000600052603260045260246000fd5b602002602001015160200181815250505b8280611cfa90613fbd565b9350508080611d0890613f74565b915050611a86565b508080611d1c90613f74565b915050611a79565b50819250505095945050505050565b6000600e600084815260200190815260200160002060008381526020019081526020016000206002015411611d9d576040517f08c379a0000000000000000000000000000000000000000000000000000000008152600401611d94906136f0565b60405180910390fd5b6000600e6000848152602001908152602001600020600083815260200190815260200160002060010154905080611dd261089c565b1015611e13576040517f08c379a0000000000000000000000000000000000000000000000000000000008152600401611e0a906137f0565b60405180910390fd5b6000600d600085815260200190815260200160002060008481526020019081526020016000205490506000600e6000868152602001908152602001600020600085815260200190815260200160002060020154600e6000878152602001908152602001600020600086815260200190815260200160002060000154611e989190613be9565b90505b60008214611f2b5780600c60008481526020019081526020016000206005016000828254611ec99190613b93565b92505081905550600c600083815260200190815260200160002060010154915082827f182360e966f6daf12e0babcf2e608bff76281ab5ef047743382204d335ad7509878785604051611f1e9392919061362f565b60405180910390a3611e9b565b600f6000848152602001908152602001600020600086815260200190815260200160002060008581526020019081526020016000206000015491505b600082146120085780600c60008481526020019081526020016000206005016000828254611f959190613b93565b92505081905550600a6000838152602001908152602001600020600084815260200190815260200160002060000154915082827f182360e966f6daf12e0babcf2e608bff76281ab5ef047743382204d335ad7509878785604051611ffb9392919061362f565b60405180910390a3611f67565b6000600e60008781526020019081526020016000206000868152602001908152602001600020600101819055506000600e60008781526020019081526020016000206000868152602001908152602001600020600201819055506000600e60008781526020019081526020016000206000868152602001908152602001600020600001819055505050505050565b60008054906101000a900473ffffffffffffffffffffffffffffffffffffffff1681565b6120c2612bb2565b60006120cc61089c565b905080600b600085815260200190815260200160002054111561215a576040518060600160405280828152602001600a60008681526020019081526020016000206000848152602001908152602001600020600201548152602001600a60008681526020019081526020016000206000848152602001908152602001600020600301548152509150506121a5565b6040518060600160405280828152602001600c6000868152602001908152602001600020600201548152602001600c6000868152602001908152602001600020600301548152509150505b919050565b600c6020528060005260406000206000915090508060000154908060010154908060020154908060030154908060040154908060050154905086565b60065481565b600854431015612231576040517f08c379a000000000000000000000000000000000000000000000000000000000815260040161222890613770565b60405180910390fd5b423360025460405160200161224893929190613888565b6040516020818303038152906040528051906020012060001c60028190555060006003546001600354600261227d9190613d31565b6122879190613b93565b6002546122949190614006565b61229e9190613d8b565b905042336002546040516020016122b793929190613888565b6040516020818303038152906040528051906020012060001c6002819055506000600354600160035460026122ec9190613d31565b6122f69190613b93565b6002546123039190614006565b61230d9190613d8b565b9050612319828261152e565b15612454576000600e60008481526020019081526020016000206000838152602001908152602001600020600101819055506000600e6000848152602001908152602001600020600083815260200190815260200160002060020181905550600754600e6000848152602001908152602001600020600083815260200190815260200160002060000160008282546123b19190613b93565b92505081905550600654436123c69190613b93565b600881905550600960003373ffffffffffffffffffffffffffffffffffffffff1673ffffffffffffffffffffffffffffffffffffffff168152602001908152602001600020600001547fa13a0cdff18b427b310b10c42757f7d9add3c9d7b22fcb50e98733fd0c9da7b9838360075460016040516124479493929190613666565b60405180910390a26124ae565b6003600081548092919061246790613fbd565b919050555060007fa13a0cdff18b427b310b10c42757f7d9add3c9d7b22fcb50e98733fd0c9da7b96000806000806040516124a594939291906136ab565b60405180910390a25b6064600c6000600960003373ffffffffffffffffffffffffffffffffffffffff1673ffffffffffffffffffffffffffffffffffffffff16815260200190815260200160002060000154815260200190815260200160002060050160008282546125179190613b93565b925050819055505050565b60008054906101000a900473ffffffffffffffffffffffffffffffffffffffff1673ffffffffffffffffffffffffffffffffffffffff163373ffffffffffffffffffffffffffffffffffffffff16146125b0576040517f08c379a00000000000000000000000000000000000000000000000000000000081526004016125a790613790565b60405180910390fd5b604051806060016040528084815260200183815260200182815250600960008673ffffffffffffffffffffffffffffffffffffffff1673ffffffffffffffffffffffffffffffffffffffff168152602001908152602001600020600082015181600001556020820151816001019080519060200190612630929190612c32565b50604082015181600201908051906020019061264d929190612c32565b509050506000600b600085815260200190815260200160002054141561271b57600061267761089c565b905080600b60008681526020019081526020016000208190555061269e846000808461294b565b8473ffffffffffffffffffffffffffffffffffffffff166108fc662386f26fc100009081150290604051600060405180830381858888f19350505050612719576040517f08c379a000000000000000000000000000000000000000000000000000000000815260040161271090613710565b60405180910390fd5b505b50505050565b6000600c60008581526020019081526020016000206000015490506000600c600086815260200190815260200160002060010154905060008211156127805780600c6000848152602001908152602001600020600101819055506127aa565b80600d60008681526020019081526020016000206000858152602001908152602001600020819055505b60008111156127cf5781600c6000838152602001908152602001600020600001819055505b5050505050565b600f60008581526020019081526020016000206000848152602001908152602001600020600083815260200190815260200160002060000154600a600087815260200190815260200160002060008681526020019081526020016000206000018190555084600f6000868152602001908152602001600020600085815260200190815260200160002060008481526020019081526020016000206000018190555080600a6000878152602001908152602001600020600086815260200190815260200160002060010160006101000a81548160ff021916908360088111156128e7577f4e487b7100000000000000000000000000000000000000000000000000000000600052602160045260246000fd5b021790555082600a600087815260200190815260200160002060008681526020019081526020016000206002018190555081600a60008781526020019081526020016000206000868152602001908152602001600020600301819055505050505050565b6000600d6000858152602001908152602001600020600084815260200190815260200160002054905084600d60008681526020019081526020016000206000858152602001908152602001600020819055506000600c60008781526020019081526020016000206000018190555080600c60008781526020019081526020016000206001018190555083600c60008781526020019081526020016000206002018190555082600c60008781526020019081526020016000206003018190555081600c6000878152602001908152602001600020600401819055506000811115612a4a5784600c6000838152602001908152602001600020600001819055505b6000600e6000868152602001908152602001600020600085815260200190815260200160002060000154118015612ada57506000600e60008681526020019081526020016000206000858152602001908152602001600020600101541480612ad9575081600e600086815260200190815260200160002060008581526020019081526020016000206001015410155b5b15612bab5781600e60008681526020019081526020016000206000858152602001908152602001600020600101541415612b5057600e600085815260200190815260200160002060008481526020019081526020016000206002016000815480929190612b4690613fbd565b9190505550612b7e565b6001600e60008681526020019081526020016000206000858152602001908152602001600020600201819055505b81600e60008681526020019081526020016000206000858152602001908152602001600020600101819055505b5050505050565b60405180606001604052806000815260200160008152602001600081525090565b60405180615360016040528061029b90602082028036833780820191505090505090565b60405180606001604052806000815260200160608152602001606081525090565b604051806040016040528060008152602001600081525090565b828054612c3e90613f42565b90600052602060002090601f016020900481019282612c605760008555612ca7565b82601f10612c7957805160ff1916838001178555612ca7565b82800160010185558215612ca7579182015b82811115612ca6578251825591602001919060010190612c8b565b5b509050612cb49190612cb8565b5090565b5b80821115612cd1576000816000905550600101612cb9565b5090565b6000612ce8612ce384613a3b565b613a0a565b905082815260208101848484011115612d0057600080fd5b612d0b848285613f00565b509392505050565b600081359050612d2281614147565b92915050565b600081359050612d378161415e565b92915050565b600081359050612d4c81614175565b92915050565b600081359050612d6181614185565b92915050565b600082601f830112612d7857600080fd5b8135612d88848260208601612cd5565b91505092915050565b600081359050612da08161419c565b92915050565b600060208284031215612db857600080fd5b6000612dc684828501612d13565b91505092915050565b600060208284031215612de157600080fd5b6000612def84828501612d28565b91505092915050565b60008060008060808587031215612e0e57600080fd5b6000612e1c87828801612d28565b9450506020612e2d87828801612d91565b935050604085013567ffffffffffffffff811115612e4a57600080fd5b612e5687828801612d67565b925050606085013567ffffffffffffffff811115612e7357600080fd5b612e7f87828801612d67565b91505092959194509250565b60008060408385031215612e9e57600080fd5b6000612eac85828601612d52565b9250506020612ebd85828601612d52565b9150509250929050565b600080600080600060a08688031215612edf57600080fd5b6000612eed88828901612d52565b9550506020612efe88828901612d52565b9450506040612f0f88828901612d52565b9350506060612f2088828901612d52565b9250506080612f3188828901612d91565b9150509295509295909350565b600060208284031215612f5057600080fd5b6000612f5e84828501612d91565b91505092915050565b60008060408385031215612f7a57600080fd5b6000612f8885828601612d91565b9250506020612f9985828601612d3d565b9150509250929050565b600080600060608486031215612fb857600080fd5b6000612fc686828701612d91565b9350506020612fd786828701612d52565b9250506040612fe886828701612d52565b9150509250925092565b6000806040838503121561300557600080fd5b600061301385828601612d91565b925050602061302485828601612d91565b9150509250929050565b600061303a83836134ba565b60408301905092915050565b60006130528383613582565b60208301905092915050565b61306781613e53565b82525050565b600061307882613a85565b6130828185613ac1565b935061308d83613a6b565b8060005b838110156130be5781516130a5888261302e565b97506130b083613aa7565b925050600181019050613091565b5085935050505092915050565b6130d481613a90565b6130de8184613ad2565b92506130e982613a7b565b8060005b8381101561311a5781516131018782613046565b965061310c83613ab4565b9250506001810190506130ed565b505050505050565b61312b81613e77565b82525050565b61313a81613eca565b82525050565b61314981613e96565b82525050565b61315881613e96565b82525050565b61316781613edc565b82525050565b61317681613eee565b82525050565b600061318782613a9c565b6131918185613add565b93506131a1818560208601613f0f565b6131aa81614122565b840191505092915050565b60006131c082613a9c565b6131ca8185613aee565b93506131da818560208601613f0f565b6131e381614122565b840191505092915050565b60006131fb600e83613aee565b91507f4e6f7468696e6720746f20646f2e0000000000000000000000000000000000006000830152602082019050919050565b600061323b601383613aee565b91507f6f6b74207472616e73666572206661696c6564000000000000000000000000006000830152602082019050919050565b600061327b600d83613aee565b91507f496e76616c696420696e646578000000000000000000000000000000000000006000830152602082019050919050565b60006132bb601583613aee565b91507f506c656173652075736520796f757220676f6c642e00000000000000000000006000830152602082019050919050565b60006132fb602883613aee565b91507f576169742c2074686520676f6c64206e65656420736f6d652074696d6520746f60008301527f206d696e742e2e2e0000000000000000000000000000000000000000000000006020830152604082019050919050565b6000613361602283613aee565b91507f4f6e6c792061646d696e2063616e20617574686f72697a65206869732070756e60008301527f6b210000000000000000000000000000000000000000000000000000000000006020830152604082019050919050565b60006133c7601583613aee565b91507f47657420617574686f72697a65642066697273742100000000000000000000006000830152602082019050919050565b6000613407601883613aee565b91507f4f6e6c792061646d696e2063616e2070757420676f6c642e00000000000000006000830152602082019050919050565b6000613447601983613aee565b91507f576169742c206974206973206e6f74207468652074696d652e000000000000006000830152602082019050919050565b6000613487600a83613aee565b91507f4c61636b20676f6c642e000000000000000000000000000000000000000000006000830152602082019050919050565b6040820160008201516134d06000850182613582565b5060208201516134e36020850182613582565b50505050565b60006060830160008301516135016000860182613582565b5060208301518482036020860152613519828261317c565b91505060408301518482036040860152613533828261317c565b9150508091505092915050565b6060820160008201516135566000850182613582565b5060208201516135696020850182613140565b50604082015161357c6040850182613140565b50505050565b61358b81613ec0565b82525050565b61359a81613ec0565b82525050565b60006020820190506135b5600083018461305e565b92915050565b600060208201905081810360008301526135d5818461306d565b905092915050565b6000615360820190506135f360008301846130cb565b92915050565b600060208201905061360e6000830184613122565b92915050565b60006020820190506136296000830184613131565b92915050565b6000606082019050613644600083018661314f565b613651602083018561314f565b61365e6040830184613591565b949350505050565b600060808201905061367b600083018761314f565b613688602083018661314f565b6136956040830185613591565b6136a26060830184613122565b95945050505050565b60006080820190506136c0600083018761315e565b6136cd602083018661315e565b6136da604083018561316d565b6136e76060830184613122565b95945050505050565b60006020820190508181036000830152613709816131ee565b9050919050565b600060208201905081810360008301526137298161322e565b9050919050565b600060208201905081810360008301526137498161326e565b9050919050565b60006020820190508181036000830152613769816132ae565b9050919050565b60006020820190508181036000830152613789816132ee565b9050919050565b600060208201905081810360008301526137a981613354565b9050919050565b600060208201905081810360008301526137c9816133ba565b9050919050565b600060208201905081810360008301526137e9816133fa565b9050919050565b600060208201905081810360008301526138098161343a565b9050919050565b600060208201905081810360008301526138298161347a565b9050919050565b6000602082019050818103600083015261384a81846134e9565b905092915050565b60006060820190506138676000830184613540565b92915050565b60006020820190506138826000830184613591565b92915050565b600060608201905061389d6000830186613591565b6138aa602083018561305e565b6138b76040830184613591565b949350505050565b60006080820190506138d46000830187613591565b6138e16020830186613131565b6138ee604083018561314f565b6138fb606083018461314f565b95945050505050565b60006060820190506139196000830186613591565b818103602083015261392b81856131b5565b9050818103604083015261393f81846131b5565b9050949350505050565b600060408201905061395e6000830185613591565b61396b6020830184613591565b9392505050565b600060c0820190506139876000830189613591565b6139946020830188613591565b6139a1604083018761314f565b6139ae606083018661314f565b6139bb6080830185613591565b6139c860a0830184613591565b979650505050505050565b60006060820190506139e86000830186613591565b6139f56020830185613591565b613a026040830184613591565b949350505050565b6000604051905081810181811067ffffffffffffffff82111715613a3157613a306140f3565b5b8060405250919050565b600067ffffffffffffffff821115613a5657613a556140f3565b5b601f19601f8301169050602081019050919050565b6000819050602082019050919050565b6000819050919050565b600081519050919050565b600061029b9050919050565b600081519050919050565b6000602082019050919050565b6000602082019050919050565b600082825260208201905092915050565b600081905092915050565b600082825260208201905092915050565b600082825260208201905092915050565b6000613b0a82613e96565b9150613b1583613e96565b9250817f7fffffffffffffffffffffffffffffffffffffffffffffffffffffffffffffff03831360008312151615613b5057613b4f614037565b5b817f8000000000000000000000000000000000000000000000000000000000000000038312600083121615613b8857613b87614037565b5b828201905092915050565b6000613b9e82613ec0565b9150613ba983613ec0565b9250827fffffffffffffffffffffffffffffffffffffffffffffffffffffffffffffffff03821115613bde57613bdd614037565b5b828201905092915050565b6000613bf482613ec0565b9150613bff83613ec0565b925082613c0f57613c0e614066565b5b828204905092915050565b6000613c2582613e96565b9150613c3083613e96565b9250827f7fffffffffffffffffffffffffffffffffffffffffffffffffffffffffffffff0482116000841360008413161615613c6f57613c6e614037565b5b817f80000000000000000000000000000000000000000000000000000000000000000583126000841260008413161615613cac57613cab614037565b5b827f80000000000000000000000000000000000000000000000000000000000000000582126000841360008412161615613ce957613ce8614037565b5b827f7fffffffffffffffffffffffffffffffffffffffffffffffffffffffffffffff0582126000841260008412161615613d2657613d25614037565b5b828202905092915050565b6000613d3c82613ec0565b9150613d4783613ec0565b9250817fffffffffffffffffffffffffffffffffffffffffffffffffffffffffffffffff0483118215151615613d8057613d7f614037565b5b828202905092915050565b6000613d9682613e96565b9150613da183613e96565b9250827f800000000000000000000000000000000000000000000000000000000000000001821260008412151615613ddc57613ddb614037565b5b827f7fffffffffffffffffffffffffffffffffffffffffffffffffffffffffffffff018213600084121615613e1457613e13614037565b5b828203905092915050565b6000613e2a82613ec0565b9150613e3583613ec0565b925082821015613e4857613e47614037565b5b828203905092915050565b6000613e5e82613ea0565b9050919050565b6000613e7082613ea0565b9050919050565b60008115159050919050565b6000819050613e9182614133565b919050565b6000819050919050565b600073ffffffffffffffffffffffffffffffffffffffff82169050919050565b6000819050919050565b6000613ed582613e83565b9050919050565b6000613ee782613e96565b9050919050565b6000613ef982613ec0565b9050919050565b82818337600083830152505050565b60005b83811015613f2d578082015181840152602081019050613f12565b83811115613f3c576000848401525b50505050565b60006002820490506001821680613f5a57607f821691505b60208210811415613f6e57613f6d6140c4565b5b50919050565b6000613f7f82613e96565b91507f7fffffffffffffffffffffffffffffffffffffffffffffffffffffffffffffff821415613fb257613fb1614037565b5b600182019050919050565b6000613fc882613ec0565b91507fffffffffffffffffffffffffffffffffffffffffffffffffffffffffffffffff821415613ffb57613ffa614037565b5b600182019050919050565b600061401182613ec0565b915061401c83613ec0565b92508261402c5761402b614066565b5b828206905092915050565b7f4e487b7100000000000000000000000000000000000000000000000000000000600052601160045260246000fd5b7f4e487b7100000000000000000000000000000000000000000000000000000000600052601260045260246000fd5b7f4e487b7100000000000000000000000000000000000000000000000000000000600052602160045260246000fd5b7f4e487b7100000000000000000000000000000000000000000000000000000000600052602260045260246000fd5b7f4e487b7100000000000000000000000000000000000000000000000000000000600052604160045260246000fd5b6000601f19601f8301169050919050565b6009811061414457614143614095565b5b50565b61415081613e53565b811461415b57600080fd5b50565b61416781613e65565b811461417257600080fd5b50565b6009811061418257600080fd5b50565b61418e81613e96565b811461419957600080fd5b50565b6141a581613ec0565b81146141b057600080fd5b5056fea2646970667358221220c8a273a283485606102b172e899b711d8724a1dd98c03d2b8dbc61c73fef31fb64736f6c63430008000033",
  "immutableReferences": {},
  "source": "// SPDX-License-Identifier: MIT\r\npragma solidity ^0.8.0;\r\n\r\ncontract RogueLand {\r\n    \r\n    enum ActionChoices { SitStill, GoLeft, GoRight, GoUp, GoDown, GoLeftUp, GoLeftDown, GoRightUp, GoRightDown }\r\n\t\r\n    struct Event {\r\n      uint movingPunk;\r\n      uint monster;\r\n    }\r\n\r\n    struct Gold {\r\n      uint amount;\r\n      uint vaildTime;\r\n      uint punkNumber;\r\n    }\r\n\r\n    struct PlayerInfo {\r\n      uint id;\r\n      string name;\r\n      string uri;\r\n    }\r\n\r\n    struct StatusInfo {\r\n      uint t;\r\n      int x;\r\n      int y;\r\n    }\r\n\r\n    struct MovingPunk {\r\n      uint newNeighbor;\r\n      ActionChoices action;\r\n      int x;\r\n      int y;\r\n    }\r\n\r\n    struct StillPunk {\r\n      uint oldNeighbor;\r\n      uint newNeighbor;\r\n      int x;\r\n      int y;\r\n      uint showtime;\r\n      uint gold;\r\n    }\r\n\r\n    address public owner;\r\n\r\n    uint private _startBlock; // \r\n    uint private _randNonce;\r\n    uint public mapSize = 5;\r\n    uint public activeRound = 150;\r\n    uint public blockPerRound = 500;\r\n    uint public goldInterval = 500;\r\n    uint public goldAmount = 10000;\r\n    uint public validBlockToPutGold;\r\n  \r\n    // \r\n    mapping (address => PlayerInfo) public playerInfo;\r\n\r\n    // punk\r\n    mapping (uint => mapping (uint => MovingPunk)) public movingPunks;\r\n\r\n    // punk\r\n    mapping (uint => uint) public lastScheduleOf;\r\n\r\n    // punk\r\n    mapping (uint => StillPunk) public stillPunks;\r\n\r\n    // punk\r\n    mapping (int => mapping (int => uint)) public stillPunkOn;\r\n\r\n    // \r\n    mapping (int => mapping (int => Gold)) public goldOn;\r\n  \r\n    // \r\n    mapping (uint => mapping (int => mapping (int => Event))) public events;\r\n\r\n    event ActionCommitted(uint indexed punkId, uint indexed time, ActionChoices action);\r\n    event GoldPicked(uint indexed punkId, uint indexed time, int x, int y, uint amount);\r\n    event GoldPut(uint indexed punkId, int x, int y, uint amount, bool isPut);\r\n  \r\n    constructor() {\r\n        owner = msg.sender;\r\n        _startBlock = block.number;\r\n        validBlockToPutGold = block.number;\r\n    }\r\n\r\n    // Function to receive Ether. msg.data must be empty\r\n    receive() external payable {}\r\n\r\n    // Fallback function is called when msg.data is not empty\r\n    fallback() external payable {}\r\n\r\n    function getEvents(int x1, int y1, int x2, int y2, uint t) public view returns (Event[] memory) {\r\n        require(x2 >= x1 && y2 >= y1, \"Invalid index\");\r\n        Event[] memory selectEvents = new Event[](uint((x2-x1+1)*(y2-y1+1)));\r\n        uint i = 0;\r\n        for (int x=x1; x<=x2; x++) {\r\n          for (int y=y1; y<=y2; y++) {\r\n            selectEvents[i] = events[t][x][y];\r\n            if (events[t][x][y].movingPunk == 0 && stillPunks[stillPunkOn[x][y]].showtime <= t) {\r\n              selectEvents[i].movingPunk = stillPunkOn[x][y];\r\n            }\r\n            if (goldOn[x][y].vaildTime == 0 || goldOn[x][y].vaildTime >= t) {\r\n              selectEvents[i].monster = goldOn[x][y].amount;\r\n            }\r\n            i ++;\r\n          }\r\n        }\r\n        return selectEvents;\r\n    }\r\n\r\n    // punk\r\n    function authorize(address payable player_, uint id_, string memory name_, string memory uri_) public {\r\n        require(msg.sender == owner, \"Only admin can authorize his punk!\");\r\n        playerInfo[player_] = PlayerInfo(id_, name_, uri_);\r\n        if (lastScheduleOf[id_] == 0) {\r\n          uint t = getCurrentTime();\r\n          lastScheduleOf[id_] = t;\r\n          _addStillPunk(id_, 0, 0, t);\r\n          require(player_.send(1e16), \"okt transfer failed\");\r\n        }\r\n    }\r\n\r\n    function isValidToPutGold(int x, int y) public view returns (bool) {\r\n      uint time = getCurrentTime();\r\n      return stillPunkOn[x][y] == 0 && events[time][x][y].movingPunk == 0 && (goldOn[x][y].vaildTime == 0 || time > goldOn[x][y].vaildTime + activeRound);\r\n    }\r\n\r\n    // OKT\r\n    function swapGold(address payable player_) public {\r\n        require(player_ == msg.sender, \"Please use your gold.\");\r\n        require(stillPunks[playerInfo[player_].id].gold >= 1000, \"Lack gold.\");\r\n        stillPunks[playerInfo[player_].id].gold -= 1000;\r\n        require(player_.send(1e16), \"okt transfer failed\");\r\n    }\r\n\r\n    // \r\n    function setGold(uint goldInterval_, uint goldAmount_) public {\r\n        require(msg.sender == owner, \"Only admin can put gold.\");\r\n        goldInterval = goldInterval_;\r\n        goldAmount = goldAmount_;\r\n    }\r\n\r\n    // \r\n    function putGold() public {\r\n        require(block.number >= validBlockToPutGold, \"Wait, the gold need some time to mint...\");\r\n        _randNonce = uint(keccak256(abi.encode(block.timestamp, msg.sender, _randNonce)));\r\n        int x = int(_randNonce % (2*mapSize+1)) - int(mapSize);\r\n        _randNonce = uint(keccak256(abi.encode(block.timestamp, msg.sender, _randNonce)));\r\n        int y = int(_randNonce % (2*mapSize+1)) - int(mapSize);\r\n        if (isValidToPutGold(x, y)) {\r\n          goldOn[x][y].vaildTime = 0;\r\n          goldOn[x][y].punkNumber = 0;\r\n          goldOn[x][y].amount += goldAmount;\r\n          validBlockToPutGold = block.number + goldInterval;\r\n          emit GoldPut(playerInfo[msg.sender].id, x, y, goldAmount, true);\r\n        }\r\n        else {\r\n          mapSize ++;\r\n          emit GoldPut(0, 0, 0, 0, false);\r\n        }\r\n        stillPunks[playerInfo[msg.sender].id].gold += 100;\r\n    }\r\n\r\n    // \r\n    function getGold(int x, int y) public {\r\n        require(goldOn[x][y].punkNumber > 0 , \"Nothing to do.\");\r\n        uint t = goldOn[x][y].vaildTime;\r\n        require(getCurrentTime() >= t, \"Wait, it is not the time.\");\r\n        uint id = stillPunkOn[x][y];\r\n        uint amount = goldOn[x][y].amount / goldOn[x][y].punkNumber;\r\n        while (id != 0) {\r\n          stillPunks[id].gold += amount;\r\n          id = stillPunks[id].newNeighbor;\r\n          emit GoldPicked(id, t, x, y, amount);\r\n        }\r\n        id = events[t][x][y].movingPunk;\r\n        while (id != 0) {\r\n          stillPunks[id].gold += amount;\r\n          id = movingPunks[id][t].newNeighbor;\r\n          emit GoldPicked(id, t, x, y, amount);\r\n        }\r\n        goldOn[x][y].vaildTime = 0;\r\n        goldOn[x][y].punkNumber = 0;\r\n        goldOn[x][y].amount = 0;\r\n    }\r\n\r\n    function getEvent(uint id) public view returns (StatusInfo memory) {\r\n      if (lastScheduleOf[id] == 0) {\r\n        return StatusInfo(0, 0, 0);\r\n      }\r\n      uint time = getCurrentTime();\r\n      uint start = time > 150? time-150: 1;\r\n      uint end = time < lastScheduleOf[id]-1? time: lastScheduleOf[id]-1;\r\n      for (uint t=start; t<=end; t++) {\r\n        int x_ = movingPunks[id][t].x;\r\n        int y_ = movingPunks[id][t].y;\r\n        if (goldOn[x_][y_].vaildTime == t) {\r\n          return StatusInfo(t, x_, y_);\r\n        }\r\n      }\r\n      if (lastScheduleOf[id] <= time) {\r\n        int x = stillPunks[id].x;\r\n        int y = stillPunks[id].y;\r\n        if (goldOn[x][y].vaildTime == lastScheduleOf[id]) {\r\n          return StatusInfo(lastScheduleOf[id], x, y);\r\n        }\r\n      }\r\n      return StatusInfo(0, 0, 0);\r\n    }\r\n\r\n    function _removeStillPunk(uint id, int x, int y) private {\r\n        uint oldNeighbor = stillPunks[id].oldNeighbor;\r\n        uint newNeighbor = stillPunks[id].newNeighbor;\r\n        if (oldNeighbor > 0) {\r\n          stillPunks[oldNeighbor].newNeighbor = newNeighbor;\r\n        }\r\n        else {\r\n          stillPunkOn[x][y] = newNeighbor;\r\n        }\r\n        if (newNeighbor > 0) {\r\n          stillPunks[newNeighbor].oldNeighbor = oldNeighbor;\r\n        }\r\n    }\r\n\r\n    function _addStillPunk(uint id, int x, int y, uint t) private {\r\n        uint latestNeighbor = stillPunkOn[x][y];\r\n        stillPunkOn[x][y] = id;\r\n        stillPunks[id].oldNeighbor = 0;\r\n        stillPunks[id].newNeighbor = latestNeighbor;\r\n        stillPunks[id].x = x;\r\n        stillPunks[id].y = y;\r\n        stillPunks[id].showtime = t;\r\n        if (latestNeighbor > 0) {\r\n          stillPunks[latestNeighbor].oldNeighbor = id;\r\n        }\r\n        // \r\n        if (goldOn[x][y].amount > 0 && (goldOn[x][y].vaildTime == 0 || goldOn[x][y].vaildTime >= t)) {\r\n          if (goldOn[x][y].vaildTime == t) {\r\n            goldOn[x][y].punkNumber ++;\r\n          }\r\n          else {\r\n            goldOn[x][y].punkNumber = 1;\r\n          }\r\n          goldOn[x][y].vaildTime = t;\r\n        }\r\n    }\r\n\r\n    function _addMovingPunk(uint id, uint t, int x, int y, ActionChoices action) private {\r\n        movingPunks[id][t].newNeighbor = events[t][x][y].movingPunk;\r\n        events[t][x][y].movingPunk = id;\r\n        movingPunks[id][t].action = action;\r\n        movingPunks[id][t].x = x;\r\n        movingPunks[id][t].y = y;\r\n    }\r\n\r\n    // punk\r\n    function scheduleAction(uint id, ActionChoices action) public {\r\n        require(playerInfo[msg.sender].id == id, \"Get authorized first!\");\r\n        uint currentTime = getCurrentTime();\r\n        if (lastScheduleOf[id] < currentTime) {\r\n          lastScheduleOf[id] = currentTime;\r\n        }\r\n        uint t = lastScheduleOf[id];\r\n        int x = stillPunks[id].x;\r\n        int y = stillPunks[id].y;\r\n        // remove this punk from still punks in (x, y) \r\n        _removeStillPunk(id, x, y);\r\n        _addMovingPunk(id, t, x, y, action);\r\n        if (action == ActionChoices.GoLeft) {\r\n          _addStillPunk(id, x-1, y, t+1);\r\n        }\r\n        if (action == ActionChoices.GoRight) {\r\n          _addStillPunk(id, x+1, y, t+1);\r\n        }\r\n        if (action == ActionChoices.GoUp) {\r\n          _addStillPunk(id, x, y+1, t+1);\r\n        }\r\n        if (action == ActionChoices.GoDown) {\r\n          _addStillPunk(id, x, y-1, t+1);\r\n        }\r\n        if (action == ActionChoices.GoLeftUp) {\r\n          _addStillPunk(id, x-1, y+1, t+1);\r\n        }\r\n        if (action == ActionChoices.GoLeftDown) {\r\n          _addStillPunk(id, x-1, y-1, t+1);\r\n        }\r\n        if (action == ActionChoices.GoRightUp) {\r\n          _addStillPunk(id, x+1, y+1, t+1);\r\n        }\r\n        if (action == ActionChoices.GoRightDown) {\r\n          _addStillPunk(id, x+1, y-1, t+1);\r\n        }\r\n        lastScheduleOf[id] ++;\r\n        emit ActionCommitted(id, lastScheduleOf[id], action);\r\n    }\r\n\r\n    function getCurrentTime() public view returns (uint) {\r\n      uint time = (block.number - _startBlock) / blockPerRound;\r\n      return time;\r\n    }\r\n\r\n    function getCurrentStatus(uint id) public view returns (StatusInfo memory) {\r\n      uint time = getCurrentTime();\r\n      if (lastScheduleOf[id] > time) {\r\n        return StatusInfo(time, movingPunks[id][time].x, movingPunks[id][time].y);\r\n      }\r\n      else {\r\n        return StatusInfo(time, stillPunks[id].x, stillPunks[id].y);\r\n      }\r\n      \r\n    }\r\n\r\n    function getScheduleInfo(uint id) public view returns (StatusInfo memory) {\r\n      uint time = getCurrentTime();\r\n      if (lastScheduleOf[id] > time) {\r\n        time = lastScheduleOf[id];\r\n      }\r\n      return StatusInfo(time, stillPunks[id].x, stillPunks[id].y);\r\n    }\r\n\r\n    function getPlayerInfo(address player_) public view returns (PlayerInfo memory) {\r\n      return playerInfo[player_];\r\n    }\r\n\r\n    function getGoldsofAllPunk() public view returns (uint[667] memory) {\r\n      uint[667] memory golds;\r\n      for (uint i=0; i<667; i++) {\r\n        golds[i] = stillPunks[i+1].gold;\r\n      }\r\n      return golds;\r\n    }\r\n\r\n}\r\n",
  "sourcePath": "C:/Users/Weixuan/Documents/github/RogueLand/contracts/RogueLand.sol",
  "compiler": {
    "name": "solc",
    "version": "0.8.0+commit.c7dfd78e.Emscripten.clang"
  },
  "schemaVersion": "3.4.0",
  "updatedAt": "2021-09-05T14:31:16.860Z",
  "networkType": "ethereum",
  "devdoc": {
    "kind": "dev",
    "methods": {},
    "version": 1
  },
  "userdoc": {
    "kind": "user",
    "methods": {},
    "version": 1
  }
}